:020000040800F2
:10000000C80E0020C9010008190400089D0300085B
:1000100015040008790200088B0A0008000000009F
:100020000000000000000000000000002D08000893
:100030007D020008000000000B08000841090008CC
:10004000E3010008E3010008E3010008E301000800
:10005000E3010008E3010008E3010008E3010008F0
:10006000E3010008E3010008E3010008E3010008E0
:10007000E3010008E3010008E3010008E3010008D0
:10008000E3010008E3010008E3010008E3010008C0
:10009000E3010008E3010008E3010008E3010008B0
:1000A000E3010008E3010008E3010008E3010008A0
:1000B000E3010008E3010008E3010008E301000890
:1000C000E3010008E3010008E3010008E301000880
:1000D000E3010008A5090008E3010008E3010008A6
:1000E000E3010008E3010008E301000800F002F862
:1000F00000F05AF80AA090E8000C82448344AAF168
:100100000107DA4501D100F04FF8AFF2090EBAE865
:100110000F0013F0010F18BFFB1A43F0010318473B
:100120008C140000AC1400000A444FF0000C10F8CE
:10013000013B13F0070408BF10F8014B1D1108BF65
:1001400010F8015B641E05D010F8016B641E01F805
:10015000016BF9D113F0080F1EBF10F8014BAD1C55
:100160000C1B09D16D1E58BF01F801CBFAD505E073
:1001700014F8016B01F8016B6D1EF9D59142D6D3CD
:10018000704700000023002400250026103A28BFF5
:1001900078C1FBD8520728BF30C148BF0B607047F9
:1001A0001FB51FBD10B510BD00F033F81146FFF7A5
:1001B000F7FF00F011FD00F051F803B4FFF7F2FF74
:1001C00003BC00F0BFFC0000094880470948004715
:1001D000FEE7FEE7FEE7FEE7FEE7FEE7FEE7FEE7F7
:1001E000FEE7FEE704480549054A064B7047000054
:1001F00045090008ED000008C8080020C80E0020CE
:10020000C80A0020C80A002070477047704770472E
:100210007047754600F02CF8AE4605006946534617
:1002200020F00700854618B020B5FFF7DBFFBDE8DA
:1002300020404FF000064FF000074FF000084FF04D
:10024000000B21F00701AC46ACE8C009ACE8C009DE
:10025000ACE8C009ACE8C0098D46704710B504464B
:10026000AFF300802046BDE81040FFF7A6BF0000B6
:10027000004870476808002000BFFEE770472DE97E
:10028000F04102460025002600200023002400271C
:1002900091F803C00CF00F0591F803C00CF0100C9E
:1002A000BCF1000F03D091F802C04CEA050591F8AB
:1002B00000C0BCF1000F31D0146800202BE04FF0DB
:1002C000010C0CFA00F3B1F800C00CEA03069E42E0
:1002D00020D183004FF00F0C0CFA03F7BC4305FA52
:1002E00003FC4CEA040491F803C0BCF1280F06D1CA
:1002F0004FF0010C0CFA00FCC2F814C00AE091F8AF
:1003000003C0BCF1480F05D14FF0010C0CFA00FC02
:10031000C2F810C0401C0828D1D31460B1F800C046
:10032000BCF1FF0F34DD546800202EE000F1080C12
:100330004FF0010808FA0CF3B1F800C00CEA03060C
:100340009E4221D183004FF00F0C0CFA03F7BC43FF
:1003500005FA03FC4CEA040491F803C0BCF1280F31
:1003600005D100F1080C08FA0CF8C2F8148091F8D5
:1003700003C0BCF1480F07D100F1080C4FF0010891
:1003800008FA0CF8C2F81080401C0828CED354603C
:10039000BDE8F081416170470161704700BFFEE731
:1003A00010B54FF400710948FFF7F6FF4FF4807164
:1003B0000648FFF7F1FF4FF480710448FFF7EAFFAA
:1003C0004FF400710148FFF7E5FF10BD000C01403C
:1003D00010B54FF400710748FFF7DEFF4FF480714E
:1003E0000448FFF7D7FF4FF480710248FFF7D4FFAE
:1003F00010BD0000000C014010B54FF4007104481E
:10040000FFF7CAFF4FF400710148FFF7C3FF10BDAB
:10041000000C014000BFFEE77047000002490143A5
:10042000024A1160704700000000FA050CED00E080
:1004300070B5002418E004F1B000002100F0D9F9F3
:100440000021084600F0D5F90021102000F0D1F974
:10045000002505E00121002000F0CBF9681CC5B2A1
:10046000802DF7DB601CC4B2082CE4DB70BD2DE9E5
:10047000F05F06460F4690461C46DDF828A04FF078
:10048000000BE11704EB5171C910A4EBC10131B9A4
:100490002046E11704EB5171C1F3C70506E0204681
:1004A000E11704EB5171C910491CCDB23D4615E06E
:1004B0002946304600F0A2F8B1460BE059460BF150
:1004C000010B1AF80100012100F093F909F1010074
:1004D00000F0FF09C145F1DB681CC5B2A542E7DBAE
:1004E000BDE8F09F08B50121082000F08FF94FF416
:1004F0004070ADF8000010208DF8030003208DF847
:10050000020069463C48FFF7BAFE4FF440713A4892
:10051000FFF742FF4FF4487000F038FB0021AE2097
:1005200000F067F90021084600F063F9002110206F
:1005300000F05FF90021402000F05BF90021B020BD
:1005400000F057F90021812000F053F90021FF202D
:1005500000F04FF90021A12000F04BF90021A62066
:1005600000F047F90021A82000F043F900213F20C6
:1005700000F03FF90021C82000F03BF90021D32012
:1005800000F037F90021084600F033F90021D520AA
:1005900000F02FF90021802000F02BF90021D82055
:1005A00000F027F90021052000F023F90021D920CF
:1005B00000F01FF90021F12000F01BF90021DA20E2
:1005C00000F017F90021122000F013F90021DB20C0
:1005D00000F00FF90021302000F00BF900218D20F0
:1005E00000F007F90021142000F003F90021AF20EA
:1005F00000F0FFF808BD0000000C014070B5044693
:100600000D4605F1B000002100F0F3F8102141EA99
:100610001410002100F0EDF804F00F00002100F0AC
:10062000E8F870BD2DE9F04180460E4615460027DA
:1006300031464046FFF7E2FF00240AE0124A02EB8F
:100640008511085D012100F0D4F8781CC7B2601C48
:10065000C4B2102CF2DB701CC1B24046FFF7CEFFD3
:1006600000240CE06900491C074A02EB4111085DB7
:10067000012100F0BEF8781CC7B2601CC4B2102C77
:10068000F0DBBDE8F0810000140400202DE9F04704
:1006900007460E469046994600250024A8F1200002
:1006A000C5B27F2F02DD0027B01CC6B2B9F1100F12
:1006B00024D131463846FFF7A1FF002408E004EBBF
:1006C0000511194A505C012100F093F8601CC4B276
:1006D000082CF4DB701CC1B23846FFF78FFF0024F2
:1006E00009E004EB051108310F4A505C012100F0CC
:1006F00080F8601CC4B2082CF3DB12E031463846A7
:10070000FFF77CFF00240AE005EB4501074A02EBF6
:100710004101085D012100F06CF8601CC4B2062C98
:10072000F2DBBDE8F0870000BA0F0008920D000868
:100730002DE9FF5F074691461E460E9D4FF0000AC9
:10074000002435E0301B401EC1B20A2000F016FB29
:10075000B9FBF0F00A21B0FBF1F201FB1208BAF18B
:10076000000F14D1701EA04211DDB8F1000F0CD1A2
:10077000AB4605EBDB71491001FB0471C8B22B4697
:1007800020220199FFF782FF10E04FF0010AAB46EB
:1007900005EBDB71491001FB0471C8B208F13001AF
:1007A000CAB22B460199FFF771FF00BF601CC4B2AB
:1007B000B442C7DBBDE8FF9F2DE9F04104460F4678
:1007C0001546984600260FE0AA5D43463946204666
:1007D000FFF75CFF04F10800C4B2782C02DD0024AE
:1007E000B81CC7B2701CC6B2A85D0028ECD1BDE829
:1007F000F08170B504460D461DB1E0B200F08CF9F1
:1008000002E0E0B200F072F970BD704729B1064A0B
:1008100092690243044B9A6104E0034A926982435D
:10082000014B9A617047000000100240704710B5FC
:1008300000F002F810BD00000CB5002001900090FF
:100840003348006840F480303149086000BF3048C8
:10085000006800F4003000900198401C019000985E
:1008600018B90198B0F5A06FF1D12948006800F4DB
:10087000003010B10120009001E0002000900098AD
:10088000012843D12348006840F010002149086046
:100890000846006820F0030008600846006840F041
:1008A000020008601A4840681949486008464068D4
:1008B00048600846406840F48060486008464068E8
:1008C00020F47C1048600846406840F4E810486016
:1008D0000846006840F08070086000BF0C4800685F
:1008E00000F000700028F9D00948406820F00300AB
:1008F000074948600846406840F00200486000BF71
:100900000348406800F00C000828F9D10CBD000035
:100910000010024000200240042808D14FF0E021DE
:10092000096941F004014FF0E022116107E04FF046
:10093000E021096921F004014FF0E02211617047C4
:100940007047000010B51348006840F001001149DD
:10095000086008464068104908400E49486008464B
:1009600000680E4908400B4908600846006820F4FA
:10097000802008600846406820F4FE0048604FF47C
:100980001F008860FFF753FF4FF0006004490860C4
:1009900010BD0000001002400000FFF8FFFFF6FE4F
:1009A00008ED00E010B540F225511D4800F03EF87A
:1009B00010B31B4800F064F8C4B21A48008800F471
:1009C0000040C8B91748008800F4804060B10A2C84
:1009D00003D000201349088020E01248008840F42A
:1009E00000401049088019E00D2C06D10D48008800
:1009F00040F480400B49088010E00A480088C0F3AA
:100A00000D0009490C5407480088401C054908801E
:100A100008460088C72801DD0020088010BD0000BE
:100A2000003801409C070020A007002070B5024656
:100A3000002400230025002040F66A16B14200D1B0
:100A400000BFC1F3421501F01F03012606FA03F3AC
:100A5000012D02D19689334006E0022D02D1168A7B
:100A6000334001E0968A33400C12012606FA04F462
:100A70001688344013B10CB1012000E0002070BD95
:100A800001468888C0F30800704700BFFEE70000F9
:100A90002DE9F04105462C464FF400711248FFF74E
:100AA00079FC00261CE0274607F08007802F04D140
:100AB00079000D48FFF770FC04E04FF480710A489C
:100AC000FFF768FC6006040E4FF400710648FFF75C
:100AD00063FC4FF400710448FFF75CFC701CC6B265
:100AE000082EE0DBBDE8F081000C014010B50446A3
:100AF000FFF756FC7820FFF7CBFFFFF77DFC0020C7
:100B0000FFF7C6FFFFF778FC2046FFF7C1FFFFF7AE
:100B100073FCFFF75DFC10BD10B50446FFF740FC09
:100B20007820FFF7B5FFFFF767FC4020FFF7B0FF25
:100B3000FFF762FC2046FFF7ABFFFFF75DFCFFF716
:100B400047FC10BD00BF704710B56FF00400FFF701
:100B5000E3FE0A4800680A49B0FBF1F00949087051
:100B60000846007800EB4001C1EBC0104FF6FF7162
:100B700001EAC0000449088010BD00000004002004
:100B800000127A0094070020960700200146114ABF
:100B900012884A434FF0E0235A6100229A611A46B4
:100BA000126942F001021A6100BF4FF0E0221069A1
:100BB00000F001021AB100F48032002AF5D04FF0A3
:100BC000E022126922F001024FF0E0231A610022B4
:100BD0009A6170479607002008B5FFF7B5FF4FF4FC
:100BE000A060FFF71BFCFFF77DFCFFF721FC202432
:100BF000002211461046FFF715FD012200211220A8
:100C0000FFF710FD022200212420FFF70BFD032235
:100C100000213620FFF706FD042200214820FFF7BF
:100C200001FD052200215A20FFF7FCFC06220021CD
:100C30006C20FFF7F7FC8DE0FFF7FAFB002211466E
:100C40001046FFF7EFFC012200211220FFF7EAFC1B
:100C5000022200212420FFF7E5FC03220021362098
:100C6000FFF7E0FC042200214820FFF7DBFC05220F
:100C700000215A20FFF7D6FC062200216C20FFF746
:100C8000D1FC102334A203210620FFF795FD102389
:100C900035A206210020FFF78FFD102334A2062184
:100CA0003F20FFF789FD1023224606213020FFF761
:100CB000EDFC601CC4B27E2C00DD20241020032338
:100CC0002246062100906720FFF732FD4FF4FA50CC
:100CD000FFF75CFF4FF4FA50FFF758FF4FF4FA505C
:100CE000FFF754FF4FF4FA50FFF750FF4FF4FA505C
:100CF000FFF74CFF2048082380220021009008467F
:100D0000FFF7B5FB4FF4FA50FFF740FF4FF4FA50EE
:100D1000FFF73CFF4FF4FA50FFF738FF4FF4FA505B
:100D2000FFF734FF14480823802200210090084672
:100D3000FFF79DFB4FF4FA50FFF728FF4FF4FA50EE
:100D4000FFF724FF4FF4FA50FFF720FF4FF4FA505B
:100D5000FFF71CFF70E70000302E393627204F4C7C
:100D6000454420544553540041534349493A0000F7
:100D7000434F44453A0000000000002010B50246F1
:100D8000012000E050430B1EA1F10104E1B2F9D1B2
:100D900010BD0000000000000000002F0000000057
:100DA0000700070000147F147F1400242A7F2A12F2
:100DB00000626408132300364955225000000503E1
:100DC000000000001C224100000041221C00001411
:100DD000083E08140008083E0808000000A0600053
:100DE00000080808080800006060000000201008E3
:100DF0000402003E5149453E0000427F400000424F
:100E000061514946002141454B31001814127F10B1
:100E1000002745454539003C4A49493000017109E0
:100E2000050300364949493600064949291E000094
:100E3000363600000000563600000008142241003B
:100E4000001414141414000041221408000201516B
:100E5000090600324959513E007C1211127C007F74
:100E600049494936003E41414122007F4141221C0F
:100E7000007F49494941007F09090901003E414974
:100E8000497A007F0808087F0000417F4100002068
:100E900040413F01007F08142241007F4040404014
:100EA000007F020C027F007F0408107F003E41415A
:100EB000413E007F09090906003E4151215E007F45
:100EC000091929460046494949310001017F0101BC
:100ED000003F4040403F001F2040201F003F40385F
:100EE000403F00631408146300070870080700619E
:100EF0005149454300007F41410000552A552A557C
:100F0000000041417F000004020102040040404013
:100F10004040000001020400002054545478007F37
:100F20004844443800384444442000384444487F0E
:100F300000385454541800087E0901020018A4A473
:100F4000A47C007F080404780000447D4000004039
:100F500080847D00007F102844000000417F400015
:100F6000007C04180478007C0804047800384444A9
:100F7000443800FC242424180018242418FC007C85
:100F80000804040800485454542000043F444020FE
:100F9000003C4040207C001C2040201C003C403095
:100FA000403C004428102844001CA0A0A07C004421
:100FB00064544C4414141414141400000000000071
:100FC00000000000000000000000000000F8000029
:100FD0000000000000333000000000100C06100C70
:100FE0000600000000000000000040C07840C0780B
:100FF0004000043F04043F040400007088FC0830F3
:101000000000001820FF211E0000F008F000E0188A
:10101000000000211C031E211E0000F00888700043
:1010200000001E2123241927211010160E00000095
:1010300000000000000000000000000000E01804B4
:101040000200000000071820400000020418E00021
:1010500000000040201807000000404080F0804061
:1010600040000202010F01020200000000F0000037
:1010700000000101011F010101000000000000004B
:10108000000080B0700000000000000000000000C0
:101090000000000101010101010100000000000049
:1010A0000000003030000000000000000000806000
:1010B0001804006018060100000000E01008081085
:1010C000E000000F102020100F00001010F80000AA
:1010D00000000020203F2020000000700808088841
:1010E0007000003028242221300000300888884811
:1010F00030000018202020110E000000C02010F841
:10110000000000070424243F240000F80888880811
:1011100008000019212020110E0000E01088881816
:101120000000000F112020110E0000380808C838F8
:1011300008000000003F00000000007088080888D8
:101140007000001C222121221C0000E01008081061
:10115000E0000000312222110F00000000C0C0009A
:10116000000000000030300000000000008000009F
:10117000000000008060000000000000804020109F
:101180000800000102040810200040404040404098
:1011900040000404040404040400000810204080FB
:1011A0000000002010080402010000704808080830
:1011B000F0000000003036010000C030C828E81000
:1011C000E0000718272423140B000000C038E000BB
:1011D0000000203C23020227382008F88888887005
:1011E0000000203F202020110E00C0300808080811
:1011F0003800071820202010080008F808080810F8
:10120000E000203F202020100F0008F88888E80820
:101210001000203F20202320180008F88888E808C4
:101220001000203F200003000000C03008080838EC
:10123000000007182020221E020008F808000008FD
:10124000F808203F210101213F20000808F8080884
:1012500000000020203F2020000000000808F808BF
:101260000800C08080807F00000008F888C028182F
:101270000800203F20012638200008F80800000060
:101280000000203F20202020300008F8F800F8F867
:101290000800203F003F003F200008F830C0000851
:1012A000F808203F200007183F00E0100808081049
:1012B000E0000F10202020100F0008F80808080890
:1012C000F000203F210101010000E0100808081093
:1012D000E0000F18242438504F0008F888888888C8
:1012E0007000203F2000030C3020007088080808A0
:1012F00038000038202121221C00180808F80808AE
:1013000018000000203F2000000008F80800000836
:10131000F808001F202020201F000878880000C83F
:101320003808000007380E010000F80800F800082F
:10133000F800033C0700073C030008186880806839
:10134000180820302C03032C30200838C800C83877
:1013500008000000203F2000000010080808C838DE
:1013600008002038262120201800000000FE02027C
:1013700002000000007F40404000000C30C0000030
:101380000000000000010638C00000020202FE005A
:101390000000004040407F00000000000402020204
:1013A0000400000000000000000000000000000039
:1013B0000000808080808080808000020204000025
:1013C000000000000000000000000000808080801D
:1013D00000000019242222223F2008F8008080000B
:1013E0000000003F112020110E00000000808080CE
:1013F0000000000E112020201100000000808088D5
:10140000F800000E112020103F2000008080808016
:101410000000001F222222221300008080F0888812
:1014200088180020203F202000000000808080805D
:101430008000006B94949493600008F80080808092
:101440000000203F210000203F20008098980000ED
:1014500000000020203F202000000000008098981D
:10146000000000C08080807F000008F800008080BD
:101470008000203F24022D302000000808F80000E2
:1014800000000020203F202000008080808080809D
:101490008000203F20003F20003F8080008080802F
:1014A0000000203F210000203F200000808080803D
:1014B0000000001F202020201F008080008080006E
:1014C000000080FFA12020110E000000008080801D
:1014D0008000000E112020A0FF808080800080808E
:1014E000800020203F2120000100000080808080BB
:1014F00080000033242424241900008080E08080B0
:1015000000000000001F20200000808000000080FC
:101510008000001F202020103F208080800000805D
:10152000808000010E30080601008080008000806D
:1015300080800F300C030C300F0000808000808012
:1015400080000020312E0E3120008080800000803D
:10155000808080818E7018060100008080808080ED
:1015600080000021302C2221300000000000807C0F
:10157000020200000000003F404000000000FF00A9
:10158000000000000000FF0000000002027C80005C
:1015900000000040403F0000000000060101020280
:1015A000040400000000000000000000CC1500084A
:1015B00000000020A00700002801000824180008EF
:1015C000A007002028070000840100081116060A61
:1015D000FE0AC612E012F062F84EFE7DBBC7EF01B4
:1015E000053EC7BB7DFE300D080CFEFE0C082060DA
:1015F000FEFE60208F7848FE82BABA0309135EAA05
:101600000101017E6CFEFF0301CBFFFF0F39BBEC34
:10161000C0C0C0271918F92701392975990B6CFF2B
:10162000FF0C01491A0C22E1E1E12701396C0F1F7F
:101630001801FB1F0F0F092E270136168C422212AC
:101640000C26FC020202FC3304FE16205844FE4025
:101650002A10015912491E4912A92A0123300A24CD
:10166000A42E24E4242EA424C00AF84A4C48F848A6
:101670004C4AF82A01013907490D5915991F991843
:10168000091412712BC020A1AB20C00A11300A121C
:101690000A07027F02070A121E0B0A0A0A7F0402C7
:1016A000560B980A1F2040404050205F800A117C52
:1016B000A24A04B92008020304060708092AF09F79
:1016C0002AFF050215F01B0F04012AFF0502130F64
:1016D000195C1E5F55555575041A5F0C09112108D8
:1016E0000C11200F094989790909090F201F112FB1
:1016F000FE02424ACA4A0304134202FE000E14FFCD
:1017000040504C4340404F50505C40FF1BF8880114
:101710002AFF050215F81B1F08012A7F200B109FC6
:1017200080E23B808201000916E2A2928A868280D2
:1017300080041840807F172424A4FEA3221B22CCFF
:10174000AA011415080601FF2B0104010511FF026F
:1017500002025808101010FF109008C30211080868
:101760000F100444827F01808040432C1028468162
:10177000A018094040484848C8784F060515484811
:1017800040400009150312122222528A063C1060C2
:1017900080BA19040B11C030FB1E404043407F0645
:1017A0001C7F424106094FC02941080B1110D0305F
:1017B000FF30D0121C10101F3D080402019E0D11B5
:1017C00001020408211116FE222222FE0712FE82C7
:1017D0008292A29E100880601F0242827F0F11FF3A
:1017E000402F102C438011000B1490884C57A424D8
:1017F00054548C84180801018042221A07441D4267
:101800003E01018AF9E1000D14E4242CB4252624BC
:10181000B42C24E404180AFF02011E1212121E4105
:0418200086011E001F
:04000005080000ED02
:00000001FF
