:020000040800F2
:10000000F00A0020C90100088D070008C504000897
:1000100089070008BD02000847180008000000001A
:10002000000000000000000000000000890F000830
:10003000CF02000800000000710E00089D100008AB
:10004000E3010008E3010008E3010008E301000800
:10005000E3010008E3010008E3010008E3010008F0
:10006000E3010008E3010008E3010008E3010008E0
:10007000E3010008E3010008E3010008E3010008D0
:10008000E3010008E3010008E3010008E3010008C0
:10009000E3010008E3010008E3010008E3010008B0
:1000A000E301000801110008E3010008E301000872
:1000B000BD120008E3010008E3010008E3010008A5
:1000C000E3010008E3010008E3010008E301000880
:1000D000E301000819150008E3010008A115000854
:1000E000E3010008E3010008E301000800F002F862
:1000F00000F05AF80AA090E8000C82448344AAF168
:100100000107DA4501D100F04FF8AFF2090EBAE865
:100110000F0013F0010F18BFFB1A43F0010318473B
:100120000C2F00002C2F00000A444FF0000C10F898
:10013000013B13F0070408BF10F8014B1D1108BF65
:1001400010F8015B641E05D010F8016B641E01F805
:10015000016BF9D113F0080F1EBF10F8014BAD1C55
:100160000C1B09D16D1E58BF01F801CBFAD505E073
:1001700014F8016B01F8016B6D1EF9D59142D6D3CD
:10018000704700000023002400250026103A28BFF5
:1001900078C1FBD8520728BF30C148BF0B607047F9
:1001A0001FB51FBD10B510BD00F033F81146FFF7A5
:1001B000F7FF01F029FC00F051F803B4FFF7F2FF5C
:1001C00003BC01F09DFB0000094880470948004737
:1001D000FEE7FEE7FEE7FEE7FEE7FEE7FEE7FEE7F7
:1001E000FEE7FEE704480549054A064B7047000054
:1001F000A1100008ED000008F0040020F00A002023
:10020000F0060020F00600207047704770477047E6
:100210007047754600F02CF8AE4605006946534617
:1002200020F00700854618B020B5FFF7DBFFBDE8DA
:1002300020404FF000064FF000074FF000084FF04D
:10024000000B21F00701AC46ACE8C009ACE8C009DE
:10025000ACE8C009ACE8C0098D46704710B504464B
:10026000AFF300802046BDE81040FFF7A6BF0000B6
:10027000004870479004002008B50121084600F0AE
:1002800009FE01210B4800F0AFF80121082000F021
:1002900001FE1020ADF800008DF8030001208DF85C
:1002A00002006946044800F013F81021024800F0EB
:1002B000ECF808BD00023000000C014000BFFEE772
:1002C00010B500214FF0804001F010F810BD7047CC
:1002D0002DE9F041024600250026002000230024DD
:1002E000002791F803C00CF00F0591F803C00CF043
:1002F000100CBCF1000F03D091F802C04CEA0505C8
:1003000091F800C0BCF1000F31D0146800202BE040
:100310004FF0010C0CFA00F3B1F800C00CEA030630
:100320009E4220D183004FF00F0C0CFA03F7BC4320
:1003300005FA03FC4CEA040491F803C0BCF1280F51
:1003400006D14FF0010C0CFA00FCC2F814C00AE010
:1003500091F803C0BCF1480F05D14FF0010C0CFA25
:1003600000FCC2F810C0401C0828D1D31460B1F8BA
:1003700000C0BCF1FF0F34DD546800202EE000F116
:10038000080C4FF0010808FA0CF3B1F800C00CEAB1
:1003900003069E4221D183004FF00F0C0CFA03F7A5
:1003A000BC4305FA03FC4CEA040491F803C0BCF119
:1003B000280F05D100F1080C08FA0CF8C2F81480D7
:1003C00091F803C0BCF1480F07D100F1080C4FF0C1
:1003D000010808FA0CF8C2F81080401C0828CED397
:1003E0005460BDE8F0810000F0B50A460023002407
:1003F0000021002500F00046B6F1004F02D11D4E4D
:10040000F16901E01B4E7168C0F3034583B200F44B
:100410004016B6F5401F08D121F07061154E766880
:1004200026F07066134F7E6012E000F48016B6F579
:10043000801F06D1032606FA05F4A14341F070613E
:1004400006E0460D360103FA06F6B14341F070614D
:1004500022B1460D360103FA06F6314300F000469C
:10046000B6F1004F02D1034EF16101E0014E71601F
:10047000F0BD0000000001400246002093680B40E0
:100480000BB1012000E0002070474161704701611D
:100490007047000010B500BF094800884FF47A711A
:1004A00000FB01F4C80600F02DFF044400204FF0CB
:1004B00080418884322001F047FA204610BD0000B8
:1004C000B803002000BFFEE72DE9F84F4FF0000A07
:1004D0000024A346A14631E00120214908601420F0
:1004E00001F058FA00201F49C1F88C0100BF1C48D8
:1004F000843800680028FAD000F0AAFC641C00BF11
:100500001748843800680128FAD0FFF7D9FEFFF7B2
:10051000C1FF8246504602F073F8009001F0D6FF0A
:1005200007460022104B01F0D5FB054601F0ECFA1E
:1005300083464946584601F0F5FF8146052CCBD14C
:10054000484601F0C3FF07460022084B01F0C2FBFA
:10055000054601F0D9FA83465846BDE8F88F0000F9
:100560008C0121420000214200004D400000144057
:100570001FB50121042000F08DFC0820ADF800001B
:1005800003208DF8020010208DF8030069461D48F5
:10059000FFF79EFE08211B48FFF777FF0420ADF808
:1005A00000008DF8030069461648FFF791FE04210C
:1005B0001448FFF76AFF0121084600F05BFC40F297
:1005C000E730ADF808004720ADF804000020ADF892
:1005D0000A00ADF8060001A94FF0804000F014FFBA
:1005E0000121880700F07CFE01221146900700F0EF
:1005F0009DFE01F0F5F900214FF0804000F076FEFD
:100600001FBD00000008014010B54FF4807109487B
:10061000FFF73DFF4FF400710648FFF738FF4FF436
:1006200000710448FFF731FF4FF480710148FFF774
:100630002CFF10BD000C014010B54FF4807107482D
:10064000FFF725FF4FF400710448FFF71EFF4FF43A
:1006500000710248FFF71BFF10BD0000000C0140B5
:1006600010B54FF480710448FFF711FF4FF480710B
:100670000148FFF70AFF10BD000C014008B5012139
:10068000042000F007FC48208DF803004FF4F850D8
:10069000ADF8000003208DF8020069460148FFF71D
:1006A00017FE08BD0008014030B589B005460C466C
:1006B0000121022000F0DEFB0121092000F0EAFB0D
:1006C0000121102000F0E6FB01212148FFF78CFEFC
:1006D0002020ADF8200018208DF8230001208DF88F
:1006E000220008A91B48FFF7F3FD4FF40050ADF8B6
:1006F000200010208DF8230001208DF8220008A989
:100700001548FFF7E5FDADF81850ADF8144000208E
:10071000ADF81600ADF81A0005A9104800F074FEF7
:100720006020ADF804000120ADF806000020ADF80F
:100730000C0001A9094800F003FE0821074800F059
:1007400051FE0121054800F0D1FD09B030BD000087
:1007500000081A00000C0140001001400004004095
:1007600008B50121042000F095FB28208DF8030036
:100770000120ADF800008DF8020069460148FFF73E
:10078000A7FD08BD0008014000BFFEE7704708B59F
:100790004FF4A06000F046F827208DF800000120FB
:1007A0008DF801008DF802008DF80300684600F016
:1007B00001F808BD70B5002100230F22C47804B3EE
:1007C000154C246804F4E064C4F5E064210AC1F126
:1007D0000403CA40447804FA03F1847814402143A6
:1007E00009010E4C0678A155047804F01F05012478
:1007F000AC4005786D11AD0005F1E025C5F800416C
:1008000009E0047804F01F050124AC40044D06788B
:10081000761145F8264070BD0CED00E000E400E0E4
:1008200080E100E002490143024A11607047000084
:100830000000FA050CED00E070B5002418E004F1AA
:10084000B000002100F0F7FA0021084600F0F3FAAA
:100850000021102000F0EFFA002505E00121002022
:1008600000F0E9FA681CC5B2802DF7DB601CC4B249
:10087000082CE4DB70BD00002DE9FF5F86B0144654
:100880001D464FF0010A00200390049005904FF0A0
:100890000109002600BF8346002213462046294650
:1008A00001F0E4FB09D285F00040CDE9004020468C
:1008B000019901F067FB064604E02046294601F055
:1008C00061FB0646304601F0BAFB22462B46CDE9D5
:1008D000000101F005FD074688460022554B3846C9
:1008E000414601F0FFFBCDE9000101F07BFB8346AF
:1008F00007E009EB89004FEA40090AF1010000F026
:10090000FF0A0A2096FBF0F090FBF9F00028F0D1E6
:1009100042F2107096FBF0F00A2190FBF1F201FB1D
:100920001200C0B28DF80C004FF47A7096FBF0F014
:1009300090FBF1F201FB1200C0B28DF80D006420B3
:1009400096FBF0F090FBF1F201FB1200C0B28DF8C3
:100950000E000A2096FBF0F090FBF1F201FB120072
:10096000C0B28DF80F000A2096FBF0F100FB116079
:10097000C0B28DF810002E208DF811004FF47A705F
:10098000BBFBF0F00A21B0FBF1F201FB12008DF885
:1009900012006420BBFBF0F0B0FBF1F201FB12008F
:1009A0008DF813000A20BBFBF0F0B0FBF1F201FB65
:1009B00012008DF814000A20BBFBF0F100FB11B00F
:1009C0008DF8150000211498801D03AA1154894642
:1009D00008E003A810F80900303003A901F8090065
:1009E00009F10109B9F10A0FF3DB00221346204691
:1009F000294601F03BFB08D20AF1010000F0FF0A92
:100A00002D20CAF1050103AA50542E208DF81100A3
:100A100000211498801D03AA1154CAF1050003A9EE
:100A200042180C23DDE9061000F0E8F90AB0BDE831
:100A3000F09F00000088C34008B50121082000F0A5
:100A400029FA4FF44070ADF8000010208DF8030033
:100A500003208DF8020069463C48FFF739FC4FF44B
:100A600040713A48FFF713FD4FF4487000F06CFFF7
:100A70000021AE2000F0DFF90021084600F0DBF98C
:100A80000021102000F0D7F90021402000F0D3F918
:100A90000021B02000F0CFF90021812000F0CBF937
:100AA0000021FF2000F0C7F90021A12000F0C3F9C8
:100AB0000021A62000F0BFF90021A82000F0BBF91A
:100AC00000213F2000F0B7F90021C82000F0B3F961
:100AD0000021D32000F0AFF90021084600F0ABF967
:100AE0000021D52000F0A7F90021802000F0A3F913
:100AF0000021D82000F09FF90021052000F09BF98B
:100B00000021D92000F097F90021F12000F093F99D
:100B10000021DA2000F08FF90021122000F08BF97B
:100B20000021DB2000F087F90021302000F083F95C
:100B300000218D2000F07FF90021142000F07BF9C6
:100B40000021AF2000F077F908BD0000000C014043
:100B500010B5FFF771FE00221146104600F084F830
:100B600001220021122000F07FF8102327A200218B
:100B7000202000F043F9032200212B2000F074F81C
:100B800005220021442000F06FF8062200215620A3
:100B900000F06AF802220021682000F065F80422C3
:100BA0000021712000F060F80A220621002000F0E8
:100BB0005BF80B220621122000F056F8102313A236
:100BC0000621202000F01AF9102311A206212A2064
:100BD00000F014F90C2206213C2000F045F8072211
:100BE0000321002000F040F808220321122000F029
:100BF0003BF809220321242000F036F8102303A239
:100C00000321322000F0FAF810BD00003A00000085
:100C10003500000070B504460D4605F1B000002116
:100C200000F009F9102141EA1410002100F003F945
:100C300004F00F00002100F0FEF870BD38B5FFF79A
:100C400043FC084908600846006801F03FFC044680
:100C5000032022460B46462100900420FFF70CFE9D
:100C600038BD0000300000202DE9F04180460E46DE
:100C70001546002731464046FFF7CCFF00240AE026
:100C8000124A02EB8511085D012100F0D4F8781CAE
:100C9000C7B2601CC4B2102CF2DB701CC1B240465B
:100CA000FFF7B8FF00240CE06900491C074A02EB7B
:100CB0004111085D012100F0BEF8781CC7B2601C2C
:100CC000C4B2102CF0DBBDE8F081000074000020FD
:100CD0002DE9F04707460E46904699460025002428
:100CE000A8F12000C5B27F2F02DD0027B01CC6B2DC
:100CF000B9F1100F24D131463846FFF78BFF00249D
:100D000008E004EB0511194A505C012100F093F84A
:100D1000601CC4B2082CF4DB701CC1B23846FFF76B
:100D200079FF002409E004EB051108310F4A505CFB
:100D3000012100F080F8601CC4B2082CF3DB12E043
:100D400031463846FFF766FF00240AE005EB45010F
:100D5000074A02EB4101085D012100F06CF8601CBC
:100D6000C4B2062CF2DBBDE8F08700003A2A000886
:100D7000122800082DE9FF5F074691461E460E9D8A
:100D80004FF0000A002435E0301B401EC1B20A209B
:100D900000F0AEFEB9FBF0F00A21B0FBF1F201FB6E
:100DA0001208BAF1000F14D1701EA04211DDB8F183
:100DB000000F0CD1AB4605EBDB71491001FB047150
:100DC000C8B22B4620220199FFF782FF10E04FF0B6
:100DD000010AAB4605EBDB71491001FB0471C8B297
:100DE00008F13001CAB22B460199FFF771FF00BF2D
:100DF000601CC4B2B442C7DBBDE8FF9F2DE9F041DF
:100E000004460F461546984600260FE0AA5D434665
:100E100039462046FFF75CFF04F10800C4B2782C85
:100E200002DD0024B81CC7B2701CC6B2A85D002841
:100E3000ECD1BDE8F08170B504460D461DB1E0B2BD
:100E400000F048FD02E0E0B200F02EFD70BD0000B1
:100E500010B500214FF0804000F0D3FA0020034984
:100E600008800121880700F041FA10BDB803002076
:100E70007047000029B1064AD2690243044BDA6187
:100E800004E0034AD2698243014BDA6170470000F3
:100E90000010024029B1064A92690243044B9A614C
:100EA00004E0034A92698243014B9A617047000053
:100EB0000010024030B500210022002400232D4DF7
:100EC0006D6805F00C0121B1042905D0082923D152
:100ED00005E0294D056022E0274D05601FE0254D06
:100EE0006D6805F47012234D6D6805F48034022599
:100EF00005EB92421CB9214D554305600BE01D4D99
:100F00006D6805F400351DB11C4D5543056002E0C8
:100F1000194D5543056002E0174D056000BF00BF45
:100F2000144D6D6805F0F0010909154D6B5C0568FD
:100F3000DD4045600F4D6D6805F4E061090A104D14
:100F40006B5C4568DD4085600A4D6D6805F4605155
:100F5000C90A0B4D6B5C4568DD40C560054D6D6889
:100F600005F44041890B074D6B5CC568B5FBF3F593
:100F7000056130BD0010024000127A0000093D00FA
:100F80006000002070000020704710B500F002F8EB
:100F900010BD00000CB5002001900090334800689F
:100FA00040F480303149086000BF3048006800F4E8
:100FB000003000900198401C0190009818B90198E9
:100FC000B0F5A06FF1D12948006800F4003010B1ED
:100FD0000120009001E0002000900098012843D1FA
:100FE0002348006840F01000214908600846006866
:100FF00020F0030008600846006840F00200086026
:101000001A484068194948600846406848600846E0
:10101000406840F4806048600846406820F47C10D6
:1010200048600846406840F4E81048600846006898
:1010300040F08070086000BF0C48006800F000704D
:101040000028F9D00948406820F0030007494860AB
:101050000846406840F00200486000BF034840680E
:1010600000F00C000828F9D10CBD0000001002406F
:1010700000200240042808D14FF0E021096941F026
:1010800004014FF0E022116107E04FF0E02109690F
:1010900021F004014FF0E022116170477047000019
:1010A00010B51348006840F0010011490860084677
:1010B0004068104908400E494860084600680E49DB
:1010C00008400B4908600846006820F4802008604A
:1010D0000846406820F4FE0048604FF41F00886016
:1010E000FFF753FF4FF000600449086010BD000097
:1010F000001002400000FFF8FFFFF6FE08ED00E0E0
:1011000008B50121614800F000F900287DD00121D7
:101110005E4800F0E8F85E480078012876D10102C8
:101120005C48FFF7A9F920BB5B48007814281BD165
:1011300000205949087059480078012808D100203A
:1011400056490870042200217120FFF78DFD10E040
:101150005248007868B901205049087003220021E4
:101160007120FFF781FD04E04B480078401C4A499C
:10117000087001214748FFF77FF930B947480078E8
:10118000012802D14649087002E000204449087055
:101190004FF400713F48FFF76FF978B94148007884
:1011A000142806D100203F49087001203E490870EC
:1011B00004E03C480078401C3A4908704FF4007144
:1011C0003448FFF759F9E0B937480078012818D1B9
:1011D000364800680A2805DA34480068401C33495C
:1011E000086002E0002031490860102002230090CE
:1011F0002E48062102682A20FFF7BCFD00202A495C
:1012000008704FF48061234801E03EE036E0FFF7CC
:1012100033F978B926480078142806D100202449EB
:10122000087001202349087004E021480078401C20
:101230001F4908704FF480611648FFF71DF920BB65
:101240001C480078012820D118480068002805DDD6
:1012500016480068401E1549086002E00A2013493C
:1012600008601020022300901048062102682A20FE
:10127000FFF780FD00200F49087006E00448007861
:1012800018B900210C4800F0BAF808BD002C014044
:1012900034000020000801403A0000203F000020F8
:1012A000350000203C000020410000202C000020E0
:1012B0003D000020420000200004004010B5012144
:1012C000880700F022F840B10121880700F00BF8F0
:1012D00002480088401C0149088010BDB803002066
:1012E000CA4302827047CA430282704721B1028812
:1012F00042F00102028004E002884FF6FE731A40B9
:10130000028070470146888C704730B50246002045
:1013100000230024158A05EA0103958905EA0104E2
:1013200013B10CB1012000E0002030BD1AB1838957
:101330000B43838102E083898B43838170470000E4
:1013400070B5002400220023058C4FF6EF7635405F
:101350000584028C8388048B48F6FF752C404FF679
:10136000FF452C400D884FF6FF7606EA05252C43F5
:101370004FF6DF752A400D8906EA05152A434D8888
:1013800006EA05152A43154DA84202D0144DA8427D
:101390001DD14FF67F752A404D894FF6FF7606EA3C
:1013A00005152A434FF6BF752A408D8806EA0515B4
:1013B0002A434FF6FF352B404FF2FF752B408D89A6
:1013C00006EA85052B43CD8906EA85052B438380F4
:1013D0000483CD880587028470BD0000002C014085
:1013E000003401400A460021018B4FF2FF7319407F
:1013F0004FF6FF7303EA0223194301837047018705
:101400007047818470470000002202881D4B98427B
:101410000ED01D4B98420BD0B0F1804F08D01B4B23
:10142000984205D01A4B984202D01A4B984204D1E8
:101430004FF68F731A404B881A43174B984207D0C8
:10144000164B984204D04FF6FF431A40CB881A43FC
:1014500002808B8883850B8803850A4B98420BD0CA
:10146000094B984208D00E4B984205D00D4B98423C
:1014700002D00D4B984201D10B7A0386012383825F
:1014800070470000002C014000340140000400407F
:1014900000080040000C0040001000400014004014
:1014A0000040014000440140004801407FB504462F
:1014B0000D460121C802FFF7EDFCADF80840681E9B
:1014C00080B2ADF804000020ADF80A00ADF80600C7
:1014D0008DF80C0001A90F48FFF796FF01210D4878
:1014E000FFF7FEFE012241210A48FFF71FFF1920E6
:1014F0008DF8000000208DF801008DF80200012019
:101500008DF803006846FFF755F901210148FFF700
:10151000EDFE7FBD002C014010B540F225511D4865
:1015200000F0D0F810B31B4800F088F9C4B21A4894
:10153000008800F40040C8B91748008800F48040D3
:1015400060B10A2C03D000201349088020E0124823
:10155000008840F400401049088019E00D2C06D1A5
:101560000D48008840F480400B49088010E00A488C
:101570000088C0F30D0009490C5407480088401C3E
:101580000549088008460088C72801DD002008803A
:1015900010BD000000380140C4030020C803002033
:1015A00010B540F22551144800F08CF8E8B112480B
:1015B00000F044F911490870084600786B2808D1FA
:1015C0004FF400510E48FEF760FF01200D490870EE
:1015D0000BE00A480078672807D14FF4005108480B
:1015E000FEF755FF00200749087040F225510248D8
:1015F00000F00AF810BD000000480040B4030020CD
:10160000001001403400002001F40072B2F5007FA8
:1016100000D100BFCA430280704721B1828942F4E1
:101620000052828104E082894DF6FF731A40828164
:101630007047000000B585B001210820FFF72AFCA3
:1016400001218804FFF716FC4FF48060ADF810000C
:1016500018208DF8130003208DF8120004A91748F4
:10166000FEF736FE4FF40060ADF8100004208DF850
:10167000130004A91148FEF72BFE4FF416500090FA
:101680000020ADF80400ADF80600ADF80800ADF894
:101690000C000C20ADF80A006946094800F062F819
:1016A000FFF775F8012240F22551054800F034F8A3
:1016B00001210348FFF7B1FF05B000BD000C014058
:1016C0000048004070B50246002400230025002099
:1016D00040F66A16B14200D100BFC1F3421501F0D5
:1016E0001F03012606FA03F3012D02D19689334028
:1016F00006E0022D02D1168A334001E0968A33407B
:101700000C12012606FA04F41688344013B10CB109
:10171000012000E0002070BDF0B503460024002643
:101720000025002040F66A17B94200D100BF1846D4
:10173000C1F3421401F01F06012707FA06F5012C38
:1017400001D10C3004E0022C01D1103000E0143043
:101750001AB107682F43076002E00768AF430760CC
:10176000F0BD00002DE9F04786B005460E46002486
:10177000A24600BFA1460027B08900B100BF2F4696
:101780002C8A4CF6FF700440F08804432C82AC890C
:101790004EF6F3100440B08831890843718908433C
:1017A0000443AC81AC8A4FF6FF400440B089044347
:1017B000AC8201A8FFF77EFB1F48874202D1DDF80B
:1017C00010A001E0DDF80CA0A88900F4004040B1B1
:1017D0000AEBCA0000EB0A1031684900B0FBF1F8CF
:1017E00007E00AEBCA0000EB0A1031688900B0FB81
:1017F000F1F86420B8FBF0F004012009642101FB3A
:101800001089A88900F4004040B1322000EBC900E3
:10181000B0FBF1F000F00700044308E0322000EBD9
:1018200009106421B0FBF1F000F00F0004432C819B
:1018300006B0BDE8F0870000003801400146888806
:10184000C0F30800704700BFFEE700002DE9F0413B
:1018500005462C464FF480711248FEF716FE00260E
:101860001CE0274607F08007802F04D1B9000D48FF
:10187000FEF70DFE04E04FF400710A48FEF705FE86
:101880006006040E4FF480710648FEF700FE4FF428
:1018900080710448FEF7F9FD701CC6B2082EE0DB2B
:1018A000BDE8F081000C014010B50446FEF7ACFE27
:1018B0007820FFF7CBFFFEF7D3FE0020FFF7C6FF2F
:1018C000FEF7CEFE2046FFF7C1FFFEF7C9FEFEF78A
:1018D000B3FE10BD10B50446FEF796FE7820FFF764
:1018E000B5FFFEF7BDFE4020FFF7B0FFFEF7B8FEE4
:1018F0002046FFF7ABFFFEF7B3FEFEF79DFE10BDDF
:1019000000BF704710B56FF00400FFF7B3FB0A4843
:1019100000680A49B0FBF1F00949087008460078F0
:1019200000EB4001C1EBC0104FF6FF7101EAC000AF
:101930000449088010BD00004C00002000127A000D
:10194000BA030020BC0300200146114A12884A4312
:101950004FF0E0235A6100229A611A46126942F060
:1019600001021A6100BF4FF0E022106900F001028D
:101970001AB100F48032002AF5D04FF0E02212694B
:1019800022F001024FF0E0231A6100229A617047B1
:10199000BC0300200146114A12784A434FF0E0236D
:1019A0005A6100229A611A46126942F001021A61D4
:1019B00000BF4FF0E022106900F001021AB100F4FC
:1019C0008032002AF5D04FF0E022126922F00102A5
:1019D0004FF0E0231A6100229A617047BA03002099
:1019E00008B54FF4A060FEF71DFF1C208DF8000025
:1019F00000208DF801008DF8020001208DF8030011
:101A00006846FEF7D7FE08BDFFF77CFF4FF4A060E5
:101A1000FEF708FFFEF7ACFDFFF70EF840F2CF210E
:101A200040F2E730FEF740FEFFF704FEFFF790F8C4
:101A3000FEF796FE40F2CF2140F2E730FFF736FD89
:101A4000FEF71CFEFEF718FC40E0FEF73DFD2049C6
:101A50000860FFF7F3F81F480078012826D1042218
:101A600000212B20FFF700F91B480078012804D142
:101A700000211A48FFF7C3FC08E01948194A126808
:101A800030F8220081B21548FFF7B9FC164910481A
:101A9000006800F0C9FD04D810211448FEF7F7FCD7
:101AA00014E010211148FEF7F0FC0FE0094800781F
:101AB00060B9032200212B20FFF7D6F80021074848
:101AC000FFF79DFC10210948FEF7DFFCBDE7000091
:101AD00030000020340000203500002000040040C9
:101AE000000000202C00002000002041000C0140DC
:101AF00010B50246012000E050430B1EA1F1010485
:101B0000E1B2F9D110BD000021F00042A2F1605213
:101B1000B2F5801F01F0004328BFD2F17F6C0BD9D2
:101B20005FEA001C43EAC20242EB507018BF7047E4
:101B300028BF20F001007047B2F5801FBCBF1846D7
:101B400070474FEA410C1CF5001F02D2084600F016
:101B5000E5BD70B500F070FB00000089FFF7F6BF2F
:101B60004FF00040A0F580007047000010B591EAEA
:101B7000030F48BF83F0004300F1C683841A71EB62
:101B8000030C05D2121943EB0C03001B61EB0C0193
:101B9000DFF824E14FEA1154A4EB135C1EEA430F73
:101BA00018BF9EEA445F73D023EA0E03DCF1200ED7
:101BB00021EA045143F4801332D322FA0CFE10EBD5
:101BC0000E0023FA0CFE41EB0E01CCF1200E03FABD
:101BD0000EFE10EB0E0051F10001B1F5801FCCF1AB
:101BE000200E32D201EB045112FA0EF2BDE8104081
:101BF00058BF7047401C38BF5FEA420218BF7047A9
:101C0000002814BF20F0010041F100014FEA410318
:101C100013F5001F38BF7047A1F1C04100F05ABB57
:101C2000012A43EB0302ACF1200CDCF11F0E32BFA2
:101C30004FF0000E23FA0CF310EB030041EB0451BC
:101C4000B4EB115FD0D0A1EB045101F5801149082C
:101C50005FEA300001EB04510ED350F1000038BFB1
:101C600012FA0EFE08D1BDE81040C9E7401C38BF8B
:101C70005FEA4202CAD1C3E7BDE810404FEA410320
:101C800013F5001F38BF7047A1F1C04100F022BB1F
:101C90009EEA445F08D011EA5E0FBDE8104004BF21
:101CA00001F0004100207047BDE8104070B500F021
:101CB000C3FA00BF64FBBE3E0000E0FF491058BFFE
:101CC000C1F140415B1058BFC3F140438B42EFF379
:101CD000008070472DE9C04130B4DFF8A0C23CEA73
:101CE000111418BF3CEA131400F0EC8081EA0305DC
:101CF0001CEA111444EAD57418BF1CEA131500F04D
:101D0000C780A4EB05044FF0004545EAC12145EA30
:101D1000C32341EA505143EA525304F17F7499427C
:101D200004F500344FEAC0204FEAC22208BF9042B7
:101D300000F09C804FEA13650FF24016765D4FEA83
:101D4000134506FB05F7C7F1807706FB07F74FEA57
:101D5000D737A7FB03687642C8F58038A7FB06CEC5
:101D600038BFA8F1010807FB08E64FF0000EA6FBFC
:101D7000028CE6FB03CEDCF1000CCEF1004E38BF46
:101D8000AEF1010EA6FB0C584FF000074FF0000516
:101D9000E6FB0E87A1FB08C6A0FB07CE16EB0E06DE
:101DA00045F10005E1FB076515F1E04E7EBFA4F5A6
:101DB00080345FEA46066D4116F1800745F1000563
:101DC0004FEA17274FEA066647EA0567A6F1DE469F
:101DD000B6F1805F4FEA15251FD9384624F0010C73
:101DE00005EBC471BCF1FE6F01EB0C1102D8F0BC25
:101DF000BDE8008124425CBF01F5801E9EEAC47FDD
:101E000002D4F0BCBDE80081244238D4F0BCA1F17A
:101E1000C041BDE8004100F05DBA4FEAD22242EA7B
:101E200043524FEAD323A7FB02864FEAD02040EA71
:101E3000415007FB03661EEA0E0F4FEAD12105FB56
:101E4000026658BFA6EB0056B6EB00564FEA520E9C
:101E50004EEAC37E18EB0E0E56EB530EBDD518EBB3
:101E600002085E417F1C55F10005B6E74FF480156E
:101E70004FF000074FF000064FF00008ADE7F0BC50
:101E80004FF0000001F1C04101F00041BDE80081C8
:101E900011EA0C1F0CEA131500D00CE013EA0C1F1A
:101EA00000F025804FF00000F0BC81EA030101F052
:101EB0000041BDE80081F0BCBDE8004181EA0301BA
:101EC00000F008BAF0BCBDE8004170B500F0B4F90C
:101ED000097EFC3E00F007B881EA03014FF00000E4
:101EE00001F00041704781EA030100F0F3B9F0BC52
:101EF000BDE800414FF0000021497047FFFDFBF9AC
:101F0000F7F5F4F2F0EEEDEBE9E8E6E4E3E1E0DE2C
:101F1000DDDBDAD8D7D5D4D3D1D0CFCDCCCBCAC89E
:101F2000C7C6C5C4C2C1C0BFBEBDBCBBBAB9B8B7C5
:101F3000B6B5B4B3B2B1B0AFAEADACABAAA9A8A8B8
:101F4000A7A6A5A4A3A3A2A1A09F9F9E9D9C9C9B86
:101F50009A99999897979695959493939291919031
:101F60008F8F8E8E8D8C8C8B8B8A898988888787C2
:101F70008685858484838382828181800000FF0737
:101F80000000F87F4FEA41034FEA5353A3F5806303
:101F9000D3F11E03C8BFD3F1210C0CDD4FF000427A
:101FA00042EAC12242EA505232FA03FC8CEAE17C56
:101FB000ACEBE1707047102BC4BF0020704703F5F5
:101FC000787CBCF1FF3F04D06FF0004282EA210030
:101FD000704770B500F030F94992248000207047B6
:101FE000F2E700004FEA1153A3F58063D3F11E031B
:101FF000A8BFD3F1200C08DB4FF0004242EAC12217
:1020000052EA505232FA03F0704709420BD4102BB7
:10201000C4BF0020704703F5787CBCF1FF3F05D0BA
:102020004FF0FF3070474FF00000704770B500F080
:1020300003F900BF4992248000207047F0E710F0B8
:10204000004248BF4042B0FA80F310FA03F10AD0D0
:10205000C3F11D0303F580634FEA415002EB0352C5
:1020600002EBD12170474FF00000704751EA030C9A
:1020700017D41CF5801F58BFBCF5801F00F10680E7
:10208000994218BF704708BF9042704707D711F5B3
:10209000801F58BF13F5801F19D499427047894299
:1020A00070471CF5801F08D5BCF5801FF7D58B4203
:1020B00018BF704708BF824270474FF4001C1CEBEA
:1020C000410F38BF1CEB430F01D28B42704770B5F4
:1020D00000F0B2F8922449004FF000514FF08053C5
:1020E000FFF7ECBDDFF848C170B51CEA111E1EBF3A
:1020F0001CEA13159EEA0C0F95EA0C0F00F06F8096
:1021000081EA030423EA4C134EEAD47E21EA4C11FF
:1021100041F4801143F48013AE44A1FB024CA0FBB8
:102120000365AEF17F7E361955EB0C05A1FB034C20
:102130004CF10003A0FB021C16EB0C06654153F1A9
:102140000003094218BF46F0010613F4007F0BD1CB
:102150004FEA03314FEA0530340341EA155140EAB2
:1021600016506FF003020AE04FEAC3214FEAC52080
:10217000F40241EA555140EA56506FF0020202EB78
:102180002E4201EB025585EACE710AD05FEA440C7B
:1021900018BF24F0004450F1000041F1000120EA92
:1021A000D47040F2FE7C624500D270BDA84214BFDC
:1021B0004FF080444FF04044002E08BF0024BEF191
:1021C000806FA8BFA1F1C041BDE8704080F282805D
:1021D0004FF0000001F1C04101F0004170479EEA5C
:1021E0000C0F0CEA131518BF95EA0C0F06D04FF030
:1021F000000081EA030E0EF0004170BD00F01CF8F3
:102200008900013E00F007B800F009B84FEA430C1E
:102210005FEA5C5C08D081EA030100F05BB84FEA3A
:10222000410C5FEA5C5CF6D14FF000000149704759
:102230000000FF070000F87F0EF1020E2EF0030EE3
:102240005EF8046B364205D4012A43EB030515F50D
:10225000001F12D8012841EB010C1CF5001F0CD8FF
:102260000ED14FEAD17C15F5001F0CEB4C0C0CF194
:10227000020C08BF4CEBD37C04E04FF0080C01E0EB
:102280004FEAD37C0CEB4C0526FA05F606F0070660
:10229000B6F1040C06D20EEB860CBDE870404CF093
:1022A000010C6047DFE80CF0090B02024FF000411F
:1022B0004FF00000A1F5002170BD1946104601281D
:1022C00051EB010418BFD4F5001484BF002001F0C5
:1022D000004170BD0808A0F500114FEA31017047B8
:1022E00091EA030F10B581F000413FF547AC83F050
:1022F000004300F009B8000010B591EA030F48BF91
:1023000083F000433FF53AAC841A71EB030C07D21B
:1023100012198CF0004C43EB0C03001B61EB0C0119
:10232000DFF8A4E14FEA1154A4EB135C1EEA430F5B
:1023300018BF9EEA445F00F0B08023EA6E03524269
:1023400021EA0451C3EB6E0338BF5B1EDCF1200EA3
:1023500025D322FA0CFE10EB0E0043FA0CFE41EBE3
:102360000E01CCF1200E03FA0EFE10EB0E0051F11F
:102370000001CCF1200E29D412FA0EF201EB045127
:10238000BDE8104058BF7047401C1CBFB2F1004F61
:10239000704700280CBF491C20F00100704712EB69
:1023A000020E43EB030218BF4FF0010E4EEA420249
:1023B000ACF1200CDCF11E0E54D943FA0CFE10EBEC
:1023C0000E0051F1FF31CCF11E0ED5D50EF1010EEC
:1023D00012FA0EFE404141EB010101EB445C5FEA61
:1023E0005C5C10D910EBDE7001EB045138BFBEF11C
:1023F000004FBDE8104018BF704700280CBF491CB3
:1024000020F00100704730D24FEAD42C11F50011B2
:1024100024F400641BD0B1FA81F20B3AA41AA41E72
:10242000D2F12003914030FA03F31943904001EBBD
:10243000CC71002C01EB0451BDE81040A8BF7047DF
:1024400001F1C0414FF0000001F000417047B0FAC7
:1024500080F310FA03F100D110BDE41A173C4805CF
:10246000C90AE4E701EB045110BD491001EB045126
:10247000BDE810404FEA300002E04FF00001704725
:102480004A0008BF0042F8D0B2F5001F28BF7047CD
:1024900001F000414FF0000070479EEA445F07D012
:1024A00011EA5E0FBDE8104004BF00210020704714
:1024B000BDE8104070B5FFF7BFFE00BF40DFF63E3D
:1024C00083F00041104670470000E0FF43004FEAF0
:1024D000D30C4FEA3C0C43401FBF40070CF1605146
:1024E00013F0FE4F70471CF0006F03D100200CF07A
:1024F000004170470CF0004343EA507010B540EAC9
:10250000CC0000F0C5F800BF000000924FEA0001C7
:10251000FFF7E0BE4FF000414FF00000A1F50021B1
:102520007047000090EA010F48BF81F0004100F1C0
:102530000281421A3CBF801A89184FEAD0524FF0EC
:102540007F4C1CEA410FA2EBD15318BF9CEA026FEB
:1025500000F03B804FF0004C4CEA00204CEA012197
:1025600021FA03FC10EB0C0C1ED202F1FF325FEAE1
:102570001C2040EBC25038BF70471CF07F0F4FEA61
:10258000400C18BFBCF17F4F38BF7047C3F1200328
:10259000994008BF20F00100BCF17F4F38BF704761
:1025A000A0F1C04000F0BAB84FEA3C00000A40EB8E
:1025B000C25028BF1CF0FF0F4FEA400CE6D018BFF6
:1025C000BCF17F4F38BF7047EAE79CEA026F05D045
:1025D00010EA5C0F08BF00F00040704710B500F033
:1025E00057F800BF64FBBE3E401058BFC0F14040EA
:1025F000491058BFC1F140418142EFF3008070475C
:10260000B0FA80F310FA03F2C3F19D030AD0D905A2
:1026100001EB1220530638BF704700F1010008BFDC
:1026200020F001007047000050EA010C00F1138017
:102630001CF5000F58BFBCF5000F01D4884270474D
:1026400007D710F5000F58BF11F5000F15D48842B9
:102650007047894270471CF5000F04D5BCF5000F88
:10266000F7D5814270474FF0807C1CEB400F38BF9C
:102670001CEB410F01D28142704710B500F008F801
:10268000922449004FF000504FF08051FFF7ACBF4B
:102690000EF1020E2EF0030E5EF8044B244204D419
:1026A0004FEA4102B2F17F4F11D84FEA4003B3F134
:1026B0007F4F0CD80ED14FEAD07CB2F17F4F0CEB9C
:1026C0004C0C0CF1020C08BF4CEBD17C04E04FF039
:1026D000080C01E04FEAD17C0CEB4C0324FA03F424
:1026E00004F00704B4F1040C06D20EEB840CBDE830
:1026F00010404CF0010C6047DFE80CF007080202C4
:102700004FF00040A0F5800010BD0846420018BF01
:10271000D2F1807288BF00F0004010BDFF2141EA75
:10272000D050C0057047000090EA010F48BF81F00B
:1027300000413FF5FEAE421A04D882F00042A0EB01
:10274000020011444FEAD0524FF07F4C1CEA410F77
:10275000A2EBD15318BF9CEA026F4AD04FF0004C55
:102760004CEA00204CEA012121FA03FCB0EB0C0CEE
:102770000FD412F0FE0F36D05FEA4C001DD50012C8
:1027800040EBC25038BF70471CF03F0F18BF704776
:102790000BE0A2F101025FEA1C2040EBC25038BFFF
:1027A00070471CF07F0F18BF7047C3F1200399409A
:1027B00014BF401E20F00100704780084FEA12232A
:1027C00008BF7047B0FA80FCA2EB0C02CCF1280CD9
:1027D00060FA0CF093EA122F04BF00EBC25070476E
:1027E0004FEAC3707047130A5FEADC1008BF7047F6
:1027F000F6E79CEA026F04D010EA5C0F08BF0020E5
:10280000704710B5FFF744FF40DFF63E81F000400F
:1028100070470000000000000000002F00000000D2
:102820000700070000147F147F1400242A7F2A1257
:102830000062640813230036495522500000050346
:10284000000000001C224100000041221C00001476
:10285000083E08140008083E0808000000A06000B8
:102860000008080808080000606000000020100848
:102870000402003E5149453E0000427F40000042B4
:1028800061514946002141454B31001814127F1017
:10289000002745454539003C4A4949300001710946
:1028A000050300364949493600064949291E0000FA
:1028B00036360000000056360000000814224100A1
:1028C00000141414141400004122140800020151D1
:1028D000090600324959513E007C1211127C007FDA
:1028E00049494936003E41414122007F4141221C75
:1028F000007F49494941007F09090901003E4149DA
:10290000497A007F0808087F0000417F41000020CD
:1029100040413F01007F08142241007F4040404079
:10292000007F020C027F007F0408107F003E4141BF
:10293000413E007F09090906003E4151215E007FAA
:10294000091929460046494949310001017F010121
:10295000003F4040403F001F2040201F003F4038C4
:10296000403F006314081463000708700807006103
:102970005149454300007F41410000552A552A55E1
:10298000000041417F000004020102040040404079
:102990004040000001020400002054545478007F9D
:1029A0004844443800384444442000384444487F74
:1029B00000385454541800087E0901020018A4A4D9
:1029C000A47C007F080404780000447D400000409F
:1029D00080847D00007F102844000000417F40007B
:1029E000007C04180478007C08040478003844440F
:1029F000443800FC242424180018242418FC007CEB
:102A00000804040800485454542000043F44402063
:102A1000003C4040207C001C2040201C003C4030FA
:102A2000403C004428102844001CA0A0A07C004486
:102A300064544C44141414141414000000000000D6
:102A400000000000000000000000000000F800008E
:102A50000000000000333000000000100C06100CD5
:102A60000600000000000000000040C07840C07870
:102A70004000043F04043F040400007088FC083058
:102A80000000001820FF211E0000F008F000E018F0
:102A9000000000211C031E211E0000F008887000A9
:102AA00000001E2123241927211010160E000000FB
:102AB00000000000000000000000000000E018041A
:102AC0000200000000071820400000020418E00087
:102AD00000000040201807000000404080F08040C7
:102AE00040000202010F01020200000000F000009D
:102AF00000000101011F01010100000000000000B1
:102B0000000080B070000000000000000000000025
:102B100000000001010101010101000000000000AE
:102B20000000003030000000000000000000806065
:102B30001804006018060100000000E010080810EA
:102B4000E000000F102020100F00001010F800000F
:102B500000000020203F20200000007008080888A6
:102B60007000003028242221300000300888884876
:102B700030000018202020110E000000C02010F8A6
:102B8000000000070424243F240000F80888880877
:102B900008000019212020110E0000E0108888187C
:102BA0000000000F112020110E0000380808C8385E
:102BB00008000000003F000000000070880808883E
:102BC0007000001C222121221C0000E010080810C7
:102BD000E0000000312222110F00000000C0C00000
:102BE0000000000000303000000000000080000005
:102BF0000000000080600000000000008040201005
:102C000008000001020408102000404040404040FD
:102C10004000040404040404040000081020408060
:102C20000000002010080402010000704808080895
:102C3000F0000000003036010000C030C828E81065
:102C4000E0000718272423140B000000C038E00020
:102C50000000203C23020227382008F8888888706A
:102C60000000203F202020110E00C0300808080876
:102C70003800071820202010080008F8080808105D
:102C8000E000203F202020100F0008F88888E80886
:102C90001000203F20202320180008F88888E8082A
:102CA0001000203F200003000000C0300808083852
:102CB000000007182020221E020008F80800000863
:102CC000F808203F210101213F20000808F80808EA
:102CD00000000020203F2020000000000808F80825
:102CE0000800C08080807F00000008F888C0281895
:102CF0000800203F20012638200008F808000000C6
:102D00000000203F20202020300008F8F800F8F8CC
:102D10000800203F003F003F200008F830C00008B6
:102D2000F808203F200007183F00E01008080810AE
:102D3000E0000F10202020100F0008F808080808F5
:102D4000F000203F210101010000E01008080810F8
:102D5000E0000F18242438504F0008F8888888882D
:102D60007000203F2000030C302000708808080805
:102D700038000038202121221C00180808F8080813
:102D800018000000203F2000000008F8080000089C
:102D9000F808001F202020201F000878880000C8A5
:102DA0003808000007380E010000F80800F8000895
:102DB000F800033C0700073C03000818688080689F
:102DC000180820302C03032C30200838C800C838DD
:102DD00008000000203F2000000010080808C83844
:102DE00008002038262120201800000000FE0202E2
:102DF00002000000007F40404000000C30C0000096
:102E00000000000000010638C00000020202FE00BF
:102E10000000004040407F00000000000402020269
:102E2000040000000000000000000000000000009E
:102E3000000080808080808080800002020400008A
:102E40000000000000000000000000008080808082
:102E500000000019242222223F2008F80080800070
:102E60000000003F112020110E0000000080808033
:102E70000000000E1120202011000000008080883A
:102E8000F800000E112020103F200000808080807C
:102E90000000001F222222221300008080F0888878
:102EA00088180020203F20200000000080808080C3
:102EB0008000006B94949493600008F800808080F8
:102EC0000000203F210000203F2000809898000053
:102ED00000000020203F2020000000000080989883
:102EE000000000C08080807F000008F80000808023
:102EF0008000203F24022D302000000808F8000048
:102F000000000020203F2020000080808080808002
:102F10008000203F20003F20003F80800080808094
:102F20000000203F210000203F20000080808080A2
:102F30000000001F202020201F00808000808000D3
:102F4000000080FFA12020110E0000000080808082
:102F50008000000E112020A0FF80808080008080F3
:102F6000800020203F212000010000008080808020
:102F700080000033242424241900008080E0808015
:102F800000000000001F2020000080800000008062
:102F90008000001F202020103F20808080000080C3
:102FA000808000010E3008060100808000800080D3
:102FB00080800F300C030C300F0000808000808078
:102FC00080000020312E0E312000808080000080A3
:102FD000808080818E701806010000808080808053
:102FE00080000021302C2221300000000000807C75
:102FF000020200000000003F404000000000FF000F
:10300000000000000000FF0000000002027C8000C1
:1030100000000040403F00000000000601010202E5
:103020000404000000000000000000004C30000814
:1030300000000020C803000028010008E831000853
:10304000C80300202807000084010008413205322F
:103050000A3214321E32283232323C324632505A50
:103060005A284102180184A24A0468090102030493
:10307000060708090C69107813020406080404E422
:10308000040FF40404F444CF444444339100101377
:1030900040407D44447D4445447C44457C40402C34
:1030A000C2B282012AFE05021280000A38202010D6
:1030B00008040241807F031C36366A807B3906098A
:1030C0001180558040300F0217FF000C13101116AD
:1030D0001010F010101413100010118181414121C3
:1030E000110D030D11214141818108101040404212
:1030F0004458C0407F40C050484640407F368040E2
:103100002018071B3F400102117800101108F71426
:10311000549414F40480708F0808F808080F101DE8
:1031200013115599513F914120130C3340E0000F8A
:103130001240484848FF484842A29E82A2C2BE1898
:103140000A80601F207F4444404F280B10484FA046
:103150001D0414D454012ADF050C12D41404401A9F
:1031600002013A03050113161060020CC0080A1090
:10317000F8888888FF8888A818601C047C034408A5
:10318000081080432C10284681C019211E74545405
:1031900055567F0B1074047F112F848341211D0528
:1031A0000106137D818185E32809FC242424FC2564
:1031B000262408091041080F1040308F80844C5598
:1031C000252525554C808080080F111010D0FF90C8
:1031D0001040425C407F4050CE9F120312FF3C01E2
:0831E0004044010226FF00003B
:04000005080000ED02
:00000001FF
