:020000040800F2
:10000000E0C50120390D00080D0B00080F0B00089A
:10001000130B0008170B00081B0B00080000000062
:100020000000000000000000000000001F0B00089E
:10003000210B000800000000230B0008250B00081E
:10004000530D0008530D0008530D0008530D000810
:10005000530D0008530D0008D53F00080D4000085F
:1000600033400008530D0008530D0008530D0008DD
:10007000530D0008530D000899AE00087BAE000830
:10008000530D0008530D0008530D0008530D0008D0
:10009000530D0008530D0008530D0008530D0008C0
:1000A000530D0008530D0008530D0008530D0008B0
:1000B000273E0008597B0008530D0008530D000827
:1000C000530D0008530D0008530D0008530D000890
:1000D000530D0008FF3C0008530D0008354100088F
:1000E000CD3E0008530D0008530D0008530D0008C5
:1000F000530D0008530D0008530D0008530D000860
:10010000530D000885A50008530D0008530D000885
:10011000530D0008530D0008530D0008530D00083F
:10012000530D0008737C0008530D0008530D0008A0
:10013000530D0008530D0008530D0008530D00081F
:10014000530D0008530D0008530D0008530D00080F
:10015000530D0008530D0008530D0008530D0008FF
:10016000530D0008530D0008530D0008530D0008EF
:10017000530D0008530D0008957B0008530D00082F
:10018000530D0008530D000800F002F800F064F869
:100190000AA090E8000C82448344AAF10107DA45E2
:1001A00001D100F059F8AFF2090EBAE80F0013F0D0
:1001B000010F18BFFB1A43F00103184794510100C7
:1001C000B45101000A444FF0000C10F8013B13F049
:1001D000070408BF10F8014B1D1108BF10F8015BA0
:1001E000641E05D010F8016B641E01F8016BF9D193
:1001F00013F0080F1EBF10F8014BAD1C0C1B09D1EA
:100200006D1E58BF01F801CBFAD505E014F8016B5B
:1002100001F8016B6D1EF9D59142D6D370470000ED
:100220000023002400250026103A28BF78C1FBD8FF
:10023000520728BF30C148BF0B607047642912F0D5
:100240004B81782912F08481002070471FB512F08D
:10025000C1FD1FBD10B510BD12F044FC1146FFF7E3
:10026000F5FF00F05EF812F062FC03B4FFF7F2FF56
:1002700003BC03F0E5FC000030BF72B6704762B605
:10028000704780F30888704710B50020FE49086069
:100290000D220821FD4801F0F6FC0D220921FB4842
:1002A00001F0F1FC0D220B21F84801F0ECFC10BD2F
:1002B0002DE9F04106460F46002517E02FB92A46E2
:1002C000F3A1304612F0CCF804E02A46F7A13046FC
:1002D00012F0C6F801223146FB4800680CF085FE9A
:1002E0000446042C00D105E0681C85B24FF6FF706F
:1002F0008542E3DB00BFBDE8F08110B50120E24993
:1003000008600C220821E14801F0BDFC0C22092103
:10031000DE4801F0B8FC0C220B21DC4801F0B3FCF4
:1003200010BD0EB501264FF4A06000F025FDA820F9
:1003300003F004FC4FF4E13003F08FFC42F2D001F3
:100340004FF47A7003F040FD42F2CF0142F20F7099
:1003500007F0D6FB4FF4165003F09AFE03F014FD9D
:1003600003F0DCFD04F0BDFB08F0C0F90AF00AFA66
:100370000AF02AFF282108460BF05FF832200BF024
:1003800073F800200BF021F902200BF01EF90EF09B
:1003900069FCCE4901220868CDA10CF0FBFD07F0F5
:1003A00055FA07F0F2FACBA00DF055FC0446082CE4
:1003B00012D08CB14FF47840CA4908800020102137
:1003C000C9A2F023CDE900210290DC2296211E2053
:1003D0000EF047FE00260BE000201021C5A2F023FE
:1003E000CDE900210290DC2296211E200EF039FE7C
:1003F00026E2C348007898BBC248007801282FD174
:1004000007F0C3FA40F6C411212003F0DDFC0421FB
:10041000BD4801F029FC4FF4967003F0F1FB042174
:10042000B94801F023FC642003F0EAFB41F2941187
:100430002F2003F0C9FC0421B34801F015FC4FF450
:10044000C87003F0DDFB0421AF4801F00FFC4FF44E
:10045000FA7003F0D5FB0020AA49087007F095FA5E
:10046000A7480078002830D1A8490870A84800782B
:1004700001282AD107F089FAC82003F0C1FBA5A002
:1004800003F095FE4FF4FA6003F0BAFBA5A003F069
:100490008EFE4FF4FA6003F0B3FBA5A003F087FED5
:1004A0004FF4FA6003F0ACFBA7A003F080FE41F22A
:1004B000883003F0A5FB1A2003F08CFE002094493D
:1004C00008709049087007F060FA8D48007801289C
:1004D00041D100208E4908708C48007801283AD11B
:1004E000012E35D1FFF709FF00212846FFF7E0FE76
:1004F0000021A0484088CDE900019E4803880A46B3
:1005000028460FF081F90446FFF7BEFE64B10020D3
:10051000102199A20B46CDE900210290F022822100
:100520001E200EF09EFD13E040F6C411212003F0C2
:100530004BFC0421744801F097FB4FF4967003F0D4
:100540005FFB0421704801F091FB642003F058FB2D
:1005500000206E4908708C48007828B10A2003F00A
:100560004FFB0020884908708848007801287DD119
:1005700000206449087086480078012877D14FF43C
:10058000A04100200BF0E3F8824908604FF4A0413D
:1005900000200BF0DCF8804908604FF49621012020
:1005A0000BF0D5F87D4908601E2100200BF0CFF834
:1005B00005461AE00020102179A2F023CDE90021A0
:1005C0000290DC22AA211E200EF04BFDC82003F071
:1005D00017FB4FF6FF709223F022BE2100901E20E1
:1005E00006F0A6FEC82003F00BFB002DE2D0694800
:1005F00000680028DED0684800680028DAD0674824
:1006000000680028D6D00020102169A2F023CDE98F
:1006100000210290DC22AA211E200EF022FD1AE009
:100620000020102166A2F023CDE900210290DC22F7
:10063000BE211E200EF015FDC82003F0E1FA4FF692
:10064000FF70CE23EF22BE2100901E2006F070FE28
:10065000C82003F0D5FA07F01FFC0028E0D11021D4
:100660005BA2F023CDE90021029001E0E8E0D3E0B5
:10067000DC22BE211E200EF0F4FC07F0A0FC07F0E7
:1006800007FB0020ACE00000A40243420008024047
:10069000303A4D61735F50686F746F2F53687561A6
:1006A0006E675F253035642E626D7000303A4D61A3
:1006B000735F50686F746F2F536875616E675F2545
:1006C0003035642E6A7067001C010020CCBE01200A
:1006D000303A0000303A2F4D61735F50686F746F8D
:1006E000000000005400002053445F4552524F5216
:1006F0005F31210053445F52494748545F31210024
:100700000700002002000020001002400500002029
:100710000000002041542B435343533D2247534D87
:10072000220D0A0041542B434D47463D310D0A002E
:1007300041542B434D47533D223138303239373401
:1007400035323839220D0A00536F6D656F6E6520A2
:100750006973206C696E676572696E6720617420C9
:10076000796F757220646F6F72737465702E0D0AE5
:1007700000000000E002002057524954455F4552F6
:10078000524F5221000000000D0000200300002005
:1007900006000020180000201C000020200000207F
:1007A0004D616C6C6F635F4552524F5221000000E7
:1007B0004D616C6C6F635F524947485421000000E3
:1007C0004F56323634305F4552524F5221000000AE
:1007D0004F56323634305F524947485400000000CB
:1007E0004FF40053012201460090B54807F0EBF9A1
:1007F000B44A5188108807F075FD4FF4FA7003F081
:10080000FFF907F0D0FA0120AF4908700020AF4986
:100810000870AF49087013E0AC48007880B907F061
:10082000D1FA07F013F807F0B0F80020A6490870D5
:100830000120A64908700020A549087011F02BFC82
:10084000D7E570B5A3480078002852D0A2480078B8
:1008500000283BD10021A14800F0A0FC00BF9F4828
:1008600000F0E9FC0028FAD19C4800F0BAFCC0F581
:10087000A05085B29A4800689A49096800EB810641
:100880009648006800F4002060B1002407E0964814
:10089000006850F8240046F82400601C84B2AC4282
:1008A000F5DB0BE0002407E09048006850F82400D6
:1008B00046F82400601C84B2AC42F5DB894800682D
:1008C00028448849086001208349087082480078DC
:1008D000022817D14FF4A051804800F080FC01217C
:1008E0007E4800F05BFC00207B4908707D49086071
:1008F00008E00021084603F0CDFC03F0AEFC012027
:100900007B49087070BD764A1268764B1B6802EB13
:100910008301724A126802F400229AB1002007E0B3
:10092000724A126852F8202041F82020421C90B2EE
:10093000B0F5A05FF4DB6B4A126802F5A052694B78
:100940001A6012E0002007E0674A126852F820207F
:1009500041F82020421C90B2B0F5A05FF4DB614A60
:10096000126802F5A0525F4B1A6070472DE9FC41F6
:1009700007464FF000084FF40A7100200AF0E7FE26
:10098000064616B9FF20BDE8FC81012051490870D8
:10099000FFF77AFCAFF29100564908604FF480608F
:1009A00003014FF4A05200904F4801684F4800687F
:1009B00007F009F907F0E2FA4FF496634FF4C862C2
:1009C0000021084607F0D2FC4FF496614FF4C8604E
:1009D00007F088FC07F0E7F900BF3F4800780128DE
:1009E000FBD102203C49087000BF3B480078012839
:1009F000FBD102203849087000BF37480078012831
:100A0000FBD107F0DFF9002032490870FFF775FCD1
:100A10000622394630460CF0E8FA8046B8F1000F5D
:100A200035D130480068810033A011F00DFD2C480D
:100A30000568002409E0285DFF2804D1601C285CBB
:100A4000D82800D106E0601C84B226480068B4EBC8
:100A5000800FF0D300BF23480068B4EB800F02D1B1
:100A60004FF0FD0813E025441E480068C4EB8002E7
:100A700001AB294630460CF058FC80461948006806
:100A8000C4EB80000199884201D04FF0FE0800209D
:100A90001449086030460CF095FDFFF7F5FB07F0B0
:100AA0008EFA00204FF400530122014600900448C2
:100AB00007F089F8314600200AF039FE404662E727
:100AC0008000006CE00200200700002006000020EB
:100AD000030000200E0000201400002028640240C3
:100AE00020000020100000201C0000201800002022
:100AF0000D0000205C0000206A706567206461744E
:100B0000612073697A653A25640D0A00704700BF59
:100B1000FEE700BFFEE700BFFEE700BFFEE770474D
:100B200070477047704700000CB50020019000909E
:100B30007648006840F480307449086000BF73480C
:100B4000006800F4003000900198401C019000986B
:100B500018B90198B0F5A04FF1D16C48006800F4C5
:100B6000003010B10120009001E0002000900098BA
:100B7000012846D165484030006840F08050634904
:100B8000403108606248006840F4404060490860B5
:100B90005E48083000685D49083108600846006812
:100BA00040F4004008600846006840F4A050086027
:100BB0005848091F0860081F006840F08070091F2E
:100BC000086000BF5148006800F000700028F9D0AC
:100BD00040F20570504908604C480830006820F029
:100BE00003004A49083108600846006840F00200E6
:100BF000086000BF45480830006800F00C00082875
:100C0000F8D10CBD10B54548006840F47000434968
:100C100008603E48006840F001003C490860002040
:100C20003A4908310860394800683D490840374969
:100C300008603C48091D0860081F006820F48020F7
:100C4000091F0860002031490C310860FFF76CFF74
:100C50004FF0006031498039086010BD70B5002048
:100C60000022022300240221284D08352D6805F0BA
:100C70000C0020B1042806D0082834D107E02A4D02
:100C80002A4E356033E02A4D284E35602FE01F4D47
:100C90002D1D2D68C5F380541C4D2D1D2D6805F0AC
:100CA0003F0154B1224DB5FBF1F5184E361D3668A3
:100CB000C6F3881605FB06F209E01B4DB5FBF1F5FE
:100CC000124E361D3668C6F3881605FB06F20F4D28
:100CD0002D1D2D68C5F301456D1C6B00B2FBF3F5AE
:100CE000124E356003E0104D104E356000BF00BF5E
:100CF000064D08352D68C5F303150E4E705D0B4D7E
:100D00002D68C540094E356070BD000000380240B6
:100D10000070004008544007003C024088ED00E0AD
:100D2000FFFFF6FE103000240024F4002400002011
:100D300000127A002800002009488047094800472F
:100D4000FEE7FEE7FEE7FEE7FEE7FEE7FEE7FEE77B
:100D5000FEE7FEE704480549054A064B70470000D8
:100D6000050C000889010008E0BF0120E0C5012052
:100D7000E0C10120E0C1012032490143324A116043
:100D8000704770B5002100230F22C4781CB32E4C8D
:100D9000246804F4E064C4F5E064C4F30721C1F1FD
:100DA0000404E3B20A4144789C40E1B284781440E0
:100DB00021430C07210E254C05786155047804F079
:100DC0001F050124AC4005786D11AD0005F1E0254B
:100DD000C5F8004109E0047804F01F050124AC4087
:100DE0001B4D0678761145F8264070BD194A0A4019
:100DF0000243154B1B1F1A60704739B1124A121D6E
:100E000012680243104B1B1D1A6006E00E4A121DA9
:100E1000126882430C4B1B1D1A607047042808D1CE
:100E20004FF0E021096941F004014FF0E022116127
:100E300007E04FF0E021096921F004014FF0E022C2
:100E4000116170470000FA050CED00E000E400E0DD
:100E500080E100E080FFFF1F002061490860C8605A
:100E60001F20486100208861C8610862486270479D
:100E700000215B4A126844F201039A43584B1A60FE
:100E80001A46116840F6F2729143028843881A4369
:100E900083881A43C3881A4303891A4343891A4330
:100EA00083891A4311434E4A116070470021018023
:100EB00041808180C1800181418181817047418869
:100EC000028841EA0241464A1162C188828841EAA9
:100ED0000241434A5162704730B14149096841F0CB
:100EE00004013F4A116005E03D49096821F0040111
:100EF0003B4A116070470178427841EA02218278CA
:100F000041EA0241C27841EA0261354A9161704783
:100F100030B13349096841F00801314A116005E0F8
:100F20002F49096821F008012D4A1160704730B13E
:100F30002B49096841F48041294A116005E028499C
:100F4000096821F48041264A1160704730B1244974
:100F5000096841F00101224A116005E02049096851
:100F600021F001011E4A116070471D48806A7047D8
:100F700029B11B4AD2680243194BDA6006E0184ACD
:100F8000D268C3439BB21A40154BDA60704710B564
:100F90000146002000230A1312B9114CA36806E091
:100FA000022A02D10E4C636801E00D4C236903EA6A
:100FB00001040CB1012000E0002010BD0849486187
:100FC0007047014600200022054B1B6903EA01021D
:100FD0000AB1012000E000207047014948617047D4
:100FE00000000550016821F001010160002101604D
:100FF00041608160C160016121214161DB4988421A
:1010000004D13D21D94A103A91608CE0D74918317A
:10101000884205D14FF47461D44A103A916082E05D
:10102000D2493031884205D14FF47411CF4A103A79
:10103000916078E0CD494831884205D14FF0746124
:10104000CA4A103A91606EE0C8496031884204D1C2
:10105000C749C64A103AD16065E0C4497831884230
:1010600004D1C449C14A103AD1605CE0BF49903113
:10107000884204D1C049BD4A103AD16053E0BB490F
:10108000A831884205D14FF03D51B84A103AD1609D
:1010900049E0BA49884204D13D21B84A083A116072
:1010A00041E0B6491831884205D14FF47461B34A22
:1010B000083A116037E0B1493031884205D14FF428
:1010C0007411AE4A083A11602DE0AC4948318842AB
:1010D00005D14FF07461A94A083A116023E0A7498D
:1010E0006031884204D1A249A44A121F11601AE05B
:1010F000A2497831884204D19E49A04A121F11604A
:1011000011E09E499031884204D19B499B4A121FAD
:10111000116008E09949A831884204D14FF03D514F
:10112000964A121F1160704710B500220268944B56
:101130001A40CC680B6823434C6923438C692343D2
:10114000CC6923430C6A23434C6A23438C6A2343B0
:101150004C6B23438C6B23431A430260426922F099
:101160000702D1E90B3423431A4342610B69436000
:101170004B6883608B68C36010BD002101604160D3
:101180008160C160016141618161C161016241624F
:101190008162C162016341638163704721B102686A
:1011A00042F00102026003E0026822F001020260E4
:1011B000704721B1026842F40042026003E0026815
:1011C00022F400420260704721B1026842F020021E
:1011D000026003E0026822F0200202607047416072
:1011E00070470146486880B2704722B1036843F4F3
:1011F0000023036003E0036823F40023036001611C
:10120000704721B1026842F48022026003E0026864
:1012100022F48022026070470AB1016100E0C160DF
:101220007047014600200A6802F400220AB101203A
:1012300000E000207047014600200A6802F0010229
:101240000AB1012000E000207047014600204A69F1
:1012500002F03800704730B503460A4600200024EB
:10126000464DAB4202D24149103901E043491039A1
:1012700002F000550DB14C6800E00C68414D2C4067
:1012800004EA02050DB1012000E0002030BD024655
:101290003A4B9A4202D23548103801E037481038AC
:1012A00001F000531BB1374B0B40C36002E0354BDC
:1012B0000B408360704710B501F080034BB122B141
:1012C000436943F08003436103E0436923F08003F3
:1012D000436180290BD02AB1036801F01E04234327
:1012E000036004E0036801F01E04A343036010BD23
:1012F00070B50246002000240025204EB24202D2E2
:101300001A4B103B01E01D4B103B1F4E0E4036B1F7
:101310001E2606EAD124166806EA040502E056698C
:1013200006F0800501F000560EB15C6800E01C6814
:10133000144E344004EA010616B10DB1012000E05C
:10134000002070BD02460D4B9A4202D20748103869
:1013500001E00A48103801F000531BB1094B0B4063
:10136000C36002E0074B0B4083607047106002408F
:101370003D000020400F002000003D20106402408E
:101380003F801CF07D0F7D0F3C0F3C0F002041493A
:101390000860091D0860091D0860091D08603E48B5
:1013A0003C4914310860704700213A498279002A8B
:1013B0003AD00A46126803689A430B461A600A1D1F
:1013C000126803689A430B1D1A60027911440A6877
:1013D00003681A430A602F4A0832126803689A4366
:1013E0002C4B08331A601A1D126803689A43294B64
:1013F0000C331A604279102A0ED11A1F1268036842
:101400001A43244B08331A601A1D126803681A43E2
:10141000204B0C331A600DE01E49427911440A68D2
:1014200003681A430A6005E0027911440A680368F8
:101430009A430A6070470021016001710C214171DB
:101440000021817170471349103109680143114A25
:10145000103211607047014600200E4A14321268A3
:101460000A400AB1012000E0002070470949143108
:101470000860704701460020064A143212680A408C
:101480000AB1012000E000207047024914310860D1
:1014900070470000003C0140FFFF7F0030B943F27D
:1014A000DB028100A1F1C0410A6005E043F2D202F3
:1014B0008100A1F1C0410A606FF07042411C8900B7
:1014C000A1F1C0410A608100A1F1C041C1F804212D
:1014D0007047D0E901121143C268114302691143F8
:1014E0004269114382691143C2691143026A11437F
:1014F000426A1143826A1143C26A1143026B11436B
:1015000002689200A2F1C0421160816808290BD1E3
:1015100001688900A1F1C041096841F040020168F9
:101520008900A1F1C0410A60416B0968426B5268B1
:1015300041EA0211426B926841EA0221426B9289B0
:1015400041EA0241426B128A41EA0251426B127D2A
:1015500041EA0261426B926911430268521C920097
:10156000A2F1C0421160C16AB1F5804F1BD1816BFD
:101570000968826B526841EA0211826B926841EA03
:101580000221826B128A41EA0251826B127D41EA8A
:101590000261826B9269114302689200A2F1C0421B
:1015A000C2F8041107E06FF0704201688900A1F1F0
:1015B000C041C1F80421704700210160022141604F
:1015C00000218160C160016141618161C16101628D
:1015D0004FF480514162490081620021C162016380
:1015E000F84941638163704751B18200A2F1C04262
:1015F000126842F001038200A2F1C042136009E0C8
:101600008200A2F1C0421268EF4B1A408300A3F19E
:10161000C0431A60704710280AD118214FF02042A9
:101620001166402151664FF0FC319166D16610E0A1
:101630001821E64A116040214FF02042C2F8841080
:101640004FF0FC31E14A083211604FF02042C2F8FD
:101650008C10704730B5002100220023446844F00C
:10166000080485682C43C5682C4305692C434569EB
:1016700044EA4524856944EA4531C4692468C5695A
:101680006D6844EA0524C5692D8944EA0544C569A5
:101690002D7B44EA0562046A2468056A6D6844EAA1
:1016A0000524056A2D8944EA0544056A2D7B44EA30
:1016B00005630468102C05D14FF020442166A26612
:1016C000E36608E0C14C21604FF02044C4F8882054
:1016D000BE4C0C34236030BD1021016000214160FC
:1016E0008160C160016141618161FC21C269116059
:1016F000C2695160C2699160C269D160026A1160B9
:10170000026A5160026A9160026AD160704799B1C1
:10171000102808D14FF02042126E42F004024FF020
:1017200020431A661DE0A94A126842F004024FF0F5
:101730002043C3F8802014E0102809D14FF0204244
:10174000126EA14BDB1E1A404FF020431A6608E0D0
:101750009E4A12689C4BDB1E1A404FF02043C3F890
:101760008020704799B1102808D14FF02042126EA6
:1017700042F040024FF020431A661DE0934A12687F
:1017800042F040024FF02043C3F8802014E01028BC
:1017900009D14FF02042126E8B4B3F3B1A404FF065
:1017A00020431A6608E0894A1268874B3F3B1A407B
:1017B0004FF02043C3F880207047014600201029D5
:1017C00003D14FF02042506F02E0804A143210687B
:1017D000704718207D492031086000200906C1F8B3
:1017E000A4004FF0FC30794928310860091D0860D9
:1017F000091D08607047016841F01001426841EA24
:101800004221826841EA4231704A20321160C16847
:101810000968C268526841EA0221C268128941EA35
:101820000241C268127B41EA0261684A28321160B3
:10183000016909680269526841EA02210269128954
:1018400041EA02410269127B41EA02615F4A2C329D
:101850001160416909684269526841EA022142699E
:10186000128941EA02414269127B41EA02614FF06A
:101870002042C2F8B01070470021016041608160D1
:10188000FC21C2681160C2685160C2689160C26880
:10189000D160026911600269516002699160026958
:1018A000D160426911604269516042699160426948
:1018B000D160704748B145492031096841F00401C1
:1018C0004FF02042C2F8A01009E0404920310968D9
:1018D0003D4AD21E11404FF02042C2F8A01070477E
:1018E00010B5F2B1102807D14FF020435B6E0B43C7
:1018F0004FF02044636632E0B0F5807F08D1334B6F
:101900001B1D1B680B434FF02044C4F8843026E0B5
:101910002E4B24331B680B434FF02044C4F8A430F3
:101920001DE0102807D14FF020435B6E8B434FF032
:101930002044636613E0B0F5807F08D1234B1B1D64
:101940001B688B434FF02044C4F8843007E01F4BE2
:1019500024331B688B434FF02044C4F8A43010BDDF
:1019600010B5024600200023102A03D14FF0204476
:10197000636E09E0B2F5807F03D1144C241D236807
:1019800002E0124C2434236803EA01040CB1012064
:1019900000E0002010BD102807D14FF02042526E09
:1019A0008A434FF020435A6619E0B0F5807F0FD18B
:1019B000064A121D12688A434FF02043C3F8842060
:1019C0000DE00000E02D0108FEFF0F00800000A0E8
:1019D000234A12688A434FF02043C3F8A42070477B
:1019E00070B502460020002300240025102A03D1F0
:1019F0004FF02046736E08E0B2F5807F03D1184E99
:101A0000203E336801E0164E336803EA010403EA1E
:101A1000D10514B10DB1012000E0002070BD1028E7
:101A200008D14FF02042526E22EAD1024FF02043FB
:101A30005A6614E0B0F5807F09D1094A203A12684D
:101A400022EAD1024FF02043C3F8842007E0044A81
:101A5000126822EAD1024FF02043C3F8A420704755
:101A6000A40000A010B504469848844208D1012182
:101A7000084600F086FB0021012000F082FB76E0A2
:101A80009348844208D10121022000F07AFB002112
:101A9000022000F076FB6AE08E48844208D10121E2
:101AA000042000F06EFB0021042000F06AFB5EE0E1
:101AB0008948844208D10121082000F062FB0021FE
:101AC000082000F05EFB52E08448844208D10121E6
:101AD000102000F056FB0021102000F052FB46E0E1
:101AE0007F48844208D10121202000F04AFB0021D8
:101AF000202000F046FB3AE07A48844208D10121D8
:101B0000402000F03EFB0021402000F03AFB2EE098
:101B10007548844208D10121802000F032FB002169
:101B2000802000F02EFB22E07048844208D1012181
:101B3000801500F026FB0021A01500F022FB16E026
:101B40006B48844208D10121401500F01AFB0021A6
:101B5000601500F016FB0AE06648844207D10121B7
:101B6000001500F00EFB0021201500F00AFB10BD4F
:101B7000F0B50A4600210023002400BF3DE0012506
:101B800005FA01F3156805EA03049C4234D105689F
:101B90004F000326BE40B543056015794E00B540A1
:101BA0000668354305601579012D02D01579022D9F
:101BB00016D185684F000326BE40B5438560557930
:101BC0004E00B540866835438560456801268E40E5
:101BD000B5434560456896798E40B6B23543456059
:101BE000C5684F000326BE40B543C560D5794E0099
:101BF000B540C6683543C560491C1029BFD3F0BD48
:101C00004FF6FF7101600021017141718171C17155
:101C1000704708B54FF480320092009A0A43009250
:101C2000009AC261C161009AC261C2690092C26930
:101C3000009208BD0246002013690B400BB1012041
:101C400000E0002070470146086980B270470246F4
:101C5000002053690B400BB1012000E000207047C9
:101C60000146486980B270470183704741837047DD
:101C70000AB1018300E041837047416170474269C6
:101C80004A4042617047F0B5002300244D07ED0E35
:101C900002FA05F3CE1000F1200555F826504E0744
:101CA000F70E0F26BE40B543CF1000F1200646F8D0
:101CB0002750CE1000F1200555F8265045EA0304C0
:101CC000CE1000F1200545F82640F0BD000002408E
:101CD0000004024000080240000C024000100240D4
:101CE0000014024000180240001C02400020024084
:101CF0000024024000280240F948006840F001003A
:101D0000F74908600020F64908310860F448006887
:101D1000F4490840F2490860F348091D0860F34897
:101D2000EF4984310860F0481038091D0860EC481C
:101D3000006820F48020EA4908600020E8490C315E
:101D40000860E7498C31086070470021E44A921C22
:101D5000117011460870704710B50146002200232B
:101D600000204A11012A02D1DD4C236808E0022A32
:101D700003D1DB4C7034236802E0D94C74342368FF
:101D800001F01F02012494401C400CB1012000E02E
:101D9000002010BD38B5002000900024002500BFB1
:101DA0003120FFF7D9FF05460098401C00900098AD
:101DB000B0F5A04F01D0002DF2D03120FFF7CCFFBD
:101DC00008B1012400E00024204638BD014600206F
:101DD000C34A106820F0F80040EAC1001060704764
:101DE000C349086070470021BD4A703211701170FC
:101DF000012802D004280AD104E00121B84A703237
:101E0000117005E00521B64A7032117000E000BF84
:101E100000BF7047B7490860704770B5049C41EA3D
:101E200082150126C6EB530645EA0645054345EAF9
:101E30000465AB4E361D356070BDAD490866704710
:101E4000820142EA0172A64B84331A607047A849A6
:101E50008866704710B5830143EA016343EA027361
:101E60009F4C8834236010BDA14908677047A04982
:101E7000C864704702460020994B0833186820F068
:101E8000EC6042EA01031843954B08331860704731
:101E900002460020924B0833186820F0784042EA4E
:101EA000010318438E4B0833186070470146002029
:101EB0008B4A0832106820F0030008431060704716
:101EC00087480830006800F00C0070470146002089
:101ED000834A0832106820F0F00008431060704711
:101EE000014600207E4A0832106820F4E050084382
:101EF0001060704701460020794A0832106820F4CB
:101F0000604040EAC10010607047F0B50021002237
:101F10000024022500260223714F08373F6807F08E
:101F20000C0121B1042905D0082937D105E0724FF1
:101F3000076036E0714F076033E0694F3F1D3F682F
:101F4000C7F38056664F3F1D3F6807F03F036EB1F1
:101F50006A4FB7FBF3F7DFF888C10CF1040CDCF82B
:101F600000C0CCF3881C07FB0CF40CE0624FB7FBFD
:101F7000F3F7DFF86CC10CF1040CDCF800C0CCF313
:101F8000881C07FB0CF4564F3F1D3F68C7F3014701
:101F90007F1C7D00B4FBF5F7076002E0564F076039
:101FA00000BF00BF4E4F08373F6807F0F001090936
:101FB000534F7A5C0768D7404760494F08373F68FE
:101FC00007F4E051890A4E4F7A5C4768D740876032
:101FD000434F08373F6807F46041490B484F7A5C2C
:101FE0004768D740C760F0BD002100F44072B2F5E9
:101FF000407F0AD13A4A0832116821F4F811414A67
:1020000002401143364A08321160354A7032126874
:10201000C0F30B031A43324B70331A6070473549D3
:102020004439086070473349403908607047364981
:102030000860704701460020294A8C32106820F061
:102040001F004A1E1043264A8C321060704701461A
:102050000020234A8C32106820F4F8504A1E40EACF
:1020600002201F4A8C3210607047014600201C4A33
:102070008C32106820F4401008431060704701460D
:102080000020174A8C32106820F44000084310608A
:10209000704701460020124A8C32106820F440300C
:1020A00008431060704719490860704739B10C4AFD
:1020B0003032126802430A4B30331A6006E0084A95
:1020C000303212688243064B30331A607047F9B1E0
:1020D000034A343212680243014B34331A601CE065
:1020E00000380240FFFFF6EA1030002400300020E4
:1020F00000004742800E47420024F40000127A009C
:1021000038000020FFFCFF0F5C014742E01147420E
:102110008F4A126882438E4B1A60704739B18C4ADD
:10212000121D126802438A4B1B1D1A6006E0884A82
:10213000121D12688243864B1B1D1A60704739B10D
:10214000834A0C3212680243814B0C331A6006E05A
:102150007F4A0C32126882437D4B0C331A60704701
:1021600039B17B4A103212680243794B10331A603E
:1021700006E0774A103212688243754B10331A60BA
:10218000704739B1724A243A12680243704B243BBB
:102190001A6006E06E4A243A126882436C4B243B74
:1021A0001A60704739B16A4A203A12680243684B94
:1021B000203B1A6006E0664A203A12688243644B6C
:1021C000203B1A60704739B1614A1C3A12680243D9
:1021D0005F4B1C3B1A6006E05D4A1C3A1268824362
:1021E0005B4B1C3B1A60704739B1594A143A12686C
:1021F0000243574B143B1A6006E0554A143A1268E2
:102200008243534B143B1A60704739B1504A103A1D
:10221000126802434E4B103B1A6006E04C4A103ADB
:10222000126882434A4B103B1A60704739B1484AE2
:102230001C3212680243464B1C331A6006E0444AC3
:102240001C3212688243424B1C331A60704739B10A
:102250003F4A2032126802433D4B20331A6006E0A9
:102260003B4A203212688243394B20331A60704750
:1022700039B1374A243212680243354B24331A608D
:1022800006E0334A243212688243314B24331A6009
:10229000704739B12E4A2C32126802432C4B2C3332
:1022A0001A6006E02A4A2C3212688243284B2C33EB
:1022B0001A60704739B1264A303212680243244B03
:1022C00030331A6006E0224A303212688243204BD3
:1022D00030331A607047012808D11D493C31096824
:1022E00041F008011A4A3C32116007E018493C31BC
:1022F000096821F00801164A3C321160704739B173
:10230000134A273A12780243114B273B1A7006E012
:102310000F4A273A127882430D4B273B1A707047B9
:102320000B484030006840F0807009494031086037
:10233000704701460020064A283A12680A400AB14E
:10234000012000E0002070470149263908707047DD
:102350003438024010B50121C802FFF756FF0021B2
:102360004FF40060FFF751FF10BD00216C4A116867
:1023700047F6FF629143027D83681A4343681A431C
:10238000C3681A4303681A4303691A431143644A32
:102390001160704700210175016041608160C1607A
:1023A000016170475F49086070475D49091F086017
:1023B00070475B48001F006800F003007047002171
:1023C000574B1B1D02681A601A1D11686FF30A0132
:1023D000D0E901231A43C3681A4303691A4311431E
:1023E0004F4A0832116070470021016041608160EE
:1023F000C160016170474A480C300068C0B2704744
:1024000008B501460020009045481030084400906F
:102410000098006808BD0021414B203302681A6013
:102420001B1D42681A601A1D116821F0F701D0E9DE
:1024300002231A4303691A4343691A431143384A72
:102440002832116070474FF0FF3101600021416078
:102450008160C16001614161704731482C30006882
:1024600070472F487C30006870472D497C310860E8
:1024700070472B484430006870472B49086070470C
:102480002949091D086070472749083108607047CD
:1024900025490C310860704724490860704723497A
:1024A000091D0860704701218143204A08321160EC
:1024B00070471E490C31086070471B491439086089
:1024C000704739B1164A383212680243144B383318
:1024D0001A6006E0124A383212688243104B3833D1
:1024E0001A607047014600200D4A303212680A40D7
:1024F0000AB1012000E0002070470949343108602A
:10250000704701460020064A303212680A400AB17C
:10251000012000E000207047014934310860704715
:10252000042C0140A0802542A0852542AC81254293
:1025300010B50446FB48844208D101218014FFF7FE
:1025400064FE0021A014FFF760FE3CE0F6488442E0
:1025500008D101210014FFF747FE00212014FFF7E6
:1025600043FE30E0F148844208D10121C013FFF757
:102570003BFE0021E013FFF737FE24E0EC488442E5
:1025800008D101214014FFF740FE00216014FFF73D
:102590003CFE18E0E748844209D101210805FFF715
:1025A00034FE00214FF48010FFF72FFE0BE0E248CD
:1025B000844208D101214805FFF727FE00214FF48E
:1025C0000010FFF722FE10BD10B50022028802F4B1
:1025D00041520B884C8823438C882343CC88234367
:1025E0000C8923434C8923438C892343CC8923437F
:1025F0001A430280838B4FF2FF74234083830B8A3C
:10260000038210BD2DE9F04F0025022300244FF076
:10261000010900220026002794469046B0F81CA02D
:102620004FF2400B0AEA0B0AA0F81CA04FF0020A76
:10263000A0F820A0858BD1F808A0BAF1020F01D133
:1026400000BF82E0B1F804A0BAF1000F02D14FF050
:10265000010901E04FF00209DFF8E0A2DAF800A07A
:102660000AF4000ABAF1000F09D0DFF8D0A2DAF8B4
:1026700000A02AF4000ADFF8C4B2CBF800A0DFF80B
:10268000BCA20AF17C0ADAF800A0CAF3881CDFF8C1
:10269000ACA20AF17C0ADAF800A0CAF30278DFF8EB
:1026A0009CA2AAF1040ADAF800A00AF03F07DFF8BA
:1026B0008CA2AAF1040ADAF800A00AF4800ABAF59A
:1026C000800F08D1DFF878A2BAFBF7FA0AFB0CFA00
:1026D000BAFBF8F607E0DFF86CA2BAFBF7FA0AFBE0
:1026E0000CFABAFBF8F6B1F806A0BAF5007F0ED1E5
:1026F0004FEA162A0AEB8A0A4FEA4A0AD1F808B0CA
:10270000BAFBFBFA0AF1050A1FFA8AF20FE04FEA58
:10271000491AB6FBFAFA0AEB8A0A4FEA4A0AD1F8D2
:1027200008B0BAFBFBFA0AF1050A1FFA8AF24FF069
:102730000A0AB2FBFAF202F00104A2EB040ACAF39D
:102740004F034FF6FF7A0AEA0424022B01DBFF2B2A
:1027500001DD02230024B1F806A04AEA040A4AEA8D
:10276000030AA0F820A0B1F804A0B1F80CB04AEA1E
:102770000B0AB1F802B04AEA0B0AB1F800B04AEA13
:102780000B0A4AF4006A4AEA05058583BDE8F08F22
:102790000021018041808180C1800181418181814E
:1027A000C181072101827047002101804180818021
:1027B000C1800221816000218181704721B102889E
:1027C00042F04002028004E002884FF6BF731A40D4
:1027D0000280704721B1828B42F48062828304E0E0
:1027E000828B4FF6FF331A408283704702884FF284
:1027F000FF731A40028002880A4302807047B1F5D5
:10280000804F04D1028842F48042028004E00288B2
:102810004BF6FF731A40028070474FF6FF629142F9
:1028200004D0028842F48072028004E002884FF6ED
:10283000FF631A400280704721B1828842F004028F
:10284000828004E082884FF6FB731A4082807047D2
:1028500021B1828842F01002828004E082884FF623
:10286000EF731A408280704730B500220023848BBA
:102870004FF240052C40848302240484828B0C8810
:10288000B4F5007F01D00C8814B94FF4807308E0D0
:102890000C88B4F5407F03D00C88B4F5807F00D15C
:1028A00000238C888D892C434D882C431C4344F491
:1028B00000642243828330BD01468889704781814C
:1028C000704721B1028842F40052028004E002887D
:1028D0004DF6FF731A4002807047018841F4805121
:1028E0000180704702460020012901D0108B00E0D2
:1028F000908A70470146088A70471AB183880B4353
:10290000838002E083888B438380704730B5002446
:1029100000230C110125A540ABB2AAB185881D4347
:10292000858014E00030014000380040003C004049
:10293000003401400050014000540140083802407A
:1029400000127A000024F40085889D43858030BD04
:102950000246002013890B400BB1012000E000204B
:102960007047CA4302817047F0B502460020002438
:102970000023002501F00F070126BE40B4B20B1161
:1029800001269E40B3B2968806EA030516892640C2
:1029900016B10DB1012000E00020F0BD10B50022FD
:1029A00001F00F040123A3409AB2D343038110BD69
:1029B00010B501218803FFF728FC00214FF4804067
:1029C000FFF723FC10BD1C49086070471B490862D3
:1029D000704730B500228B071C0F0F2303FA04F257
:1029E000154B08338C1053F824309343124C0834A1
:1029F0008D1044F8253023468C1053F824308C0772
:102A0000240F00FA04F423430B4C08348D1044F8CF
:102A1000253030BD0949DC3108607047084908603D
:102A20007047002004492031096801F4807109B120
:102A3000012000E0002070470038014000002742DC
:102A40000004274210B50446FE48844208D1012103
:102A50000846FFF7DAFB00210120FFF7D6FB9DE0D7
:102A6000B4F1804F08D101210846FFF7BDFB0021DA
:102A70000120FFF7B9FB91E0F348844208D101211E
:102A80000220FFF7B1FB00210220FFF7ADFB85E03C
:102A9000EE48844208D101210420FFF7A5FB002164
:102AA0000420FFF7A1FB79E0E948844208D1012125
:102AB0000820FFF799FB00210820FFF795FB6DE048
:102AC000E448844208D101211020FFF78DFB00214A
:102AD0001020FFF789FB61E0DF48844208D1012123
:102AE0002020FFF781FB00212020FFF77DFB55E030
:102AF000DA48844208D101210220FFF786FB002139
:102B00000220FFF782FB49E0D548844209D1012128
:102B10000804FFF77AFB00214FF48030FFF775FBC4
:102B20003CE0D048844209D101214804FFF76DFB05
:102B300000214FF40030FFF768FB2FE0CA488442C1
:102B400009D101218804FFF760FB00214FF48020A8
:102B5000FFF75BFB22E0C548844208D101214020F9
:102B6000FFF742FB00214020FFF73EFB16E0C04884
:102B7000844208D101218020FFF736FB002180200C
:102B8000FFF732FB0AE0BB48844207D101218015E0
:102B9000FFF72AFB0021A015FFF726FB10BD00223E
:102BA0000288A84B98420ED0AC4B98420BD0B0F1A3
:102BB000804F08D0A44B984205D0A44B984202D035
:102BC000A34B984204D14FF68F731A404B881A4397
:102BD000A04B984207D0A04B984204D04FF6FF4339
:102BE0001A400B891A4302804B68C3620B88038525
:102BF000944B984202D0994B984201D18B7A03862C
:102C00000123838270474FF0FF3141600021018032
:102C100001814180817270470185828270470A4636
:102C2000002101884FF68F731940114301807047CE
:102C300041627047C16270470146486A7047014669
:102C4000088D704721B1028842F00202028004E040
:102C500002884FF6FD731A400280704721B1028846
:102C600042F00402028004E002884FF6FB731A402F
:102C70000280704721B1028842F08002028004E0A5
:102C800002884FF67F731A400280704702884FF621
:102C9000F7731A40028002880A4302807047028854
:102CA0004FF6FF431A40028002880A4302807047B1
:102CB00021B1028842F00102028004E002884FF64E
:102CC000FE731A400280704770B500240022002372
:102CD000058C4FF6FE7635400584028C8388048B84
:102CE0004FF68F752C40B51E2C400D882C43751E59
:102CF0002A408D892A434D882A43524DA84202D04A
:102D0000564DA84213D14FF6F7752A40CD892A4374
:102D10004FF6FB752A408D882A434FF6FF652B40FE
:102D20004FF6FF552B400D8A2B434D8A2B43838052
:102D300004838D684563028470BD70B50024002251
:102D40000023058C4FF6EF7635400584028C83888E
:102D5000048B48F6FF752C404FF6FF452C400D883C
:102D60004FF6FF7606EA05252C434FF6DF752A401D
:102D70008D8906EA05152A434D8806EA05152A437A
:102D8000304DA84202D0354DA8421DD14FF67F7577
:102D90002A40CD894FF6FF7606EA05152A434FF6FD
:102DA000BF752A408D8806EA05152A434FF6FF3580
:102DB0002B404FF2FF752B400D8A06EA85052B4309
:102DC0004D8A06EA85052B43838004838D688563DD
:102DD000028470BD70B5002400220023058C4FF6DC
:102DE000FF6635400584028C8388848B4FF68F758F
:102DF0002C404FF6FC752C400D882C434FF6FF55A8
:102E00002A408D894FF6FF7606EA05252A434D882C
:102E100006EA05252A430B4DA84202D00F4DA842D1
:102E200038D14FF2FF752A40CD894FF6FF7606EA7A
:102E300005252A434FF6FF352A408D8806EA0525E9
:102E40002A4319E00000014000040040000800404F
:102E5000000C00400010004000140040000401403D
:102E6000004001400044014000480140001800407B
:102E7000001C0040002000404EF6FF752B404DF630
:102E8000FF752B400D8A06EA05152B434D8A06EA8D
:102E900005152B43838084838D68C563028470BDD0
:102EA00070B5002200230024058C4EF6FF763540D5
:102EB0000584038C8488828B48F6FF752A404FF680
:102EC000FF452A400D884FF6FF7606EA05252A437E
:102ED0004DF6FF752B408D8906EA05352B434D884D
:102EE00006EA05352B43FE4DA84202D0FD4DA8420F
:102EF00008D14BF6FF752C400D8A4FF6FF7606EA97
:102F000085152C43848082838D680564038470BD9D
:102F1000002101804180818081608181C1810182A5
:102F20004182704770B503460020002418461830CF
:102F300001258D40ACB21D8CA5431D8409B1082923
:102F40000AD100EB610005684FF68F7635400560C9
:102F50000568154305600FE00D1FC5F34E052844B5
:102F6000056848F6FF763540056005684FF6FF7640
:102F700006EA02263543056070BD416370478163F0
:102F80007047C1637047016470470A460021018B96
:102F90004FF68F7319401143018370470A46002191
:102FA000018B48F6FF7319404FF6FF7303EA0223C3
:102FB0001943018370470A460021818B4FF68F73B6
:102FC00019401143818370470A460021818B48F6DE
:102FD000FF7319404FF6FF7303EA022319438183FD
:102FE00070470A460021018B4FF6F77319401143D1
:102FF000018370470A460021018B4FF2FF7319408D
:103000004FF6FF7303EA02231943018370470A4610
:103010000021818B4FF6F77319401143818370476C
:103020000A460021818B4FF2FF7319404FF6FF7360
:1030300003EA02231943818370470A460021018B6A
:103040004FF6FB7319401143018370470A46002174
:10305000018B4FF6FF3319404FF6FF7303EA02234B
:103060001943018370470A460021818B4FF6FB7399
:1030700019401143818370470A460021818B4FF626
:10308000FF3319404FF6FF7303EA0223194381838C
:1030900070470A460021018B4FF67F731940114398
:1030A000018370470A460021018BC1F30E014FF6E0
:1030B000FF7303EA02231943018370470A46002184
:1030C000818B4FF67F7319401143818370470A4605
:1030D0000021818BC1F30E014FF6FF7303EA022337
:1030E0001943818370470A460021018C4FF6FD7316
:1030F00019401143018470470A460021018C4FF6A4
:10310000F77319401143018470470A460021018C6E
:103110004FF6DF7319404FF6FF7303EA02131943AA
:10312000018470470A460021018C4FF67F731940D5
:103130004FF6FF7303EA02131943018470470A46EE
:103140000021018C4FF6FF5319404FF6FF7303EA3D
:1031500002231943018470470A460021018C4FF273
:10316000FF7319404FF6FF7303EA022319430184EA
:1031700070470A460021018C4DF6FF7319404FF647
:10318000FF7303EA023319430184704730B500230B
:1031900001248C40A3B2048C9C430484048C02FA66
:1031A00001F5ADB22C43048430BD30B500230424B6
:1031B0008C40A3B2048C9C430484048C02FA01F575
:1031C000ADB22C43048430BD828B4FF2FF331A40E2
:1031D0008283828B4FF6FF7303EA01231A438283B3
:1031E0007047F0B50C461546002100220026078CDA
:1031F0004EF6FF7C07EA0C070784818B028C4FF6A2
:10320000FF7707EA043640F6FF4739404FF6FF776D
:1032100007EA052739434FF6FF7707EA03373943B3
:1032200045F6FF773A4046F480573A43818302845B
:10323000F0BD828B4FF6F3731A408283828B0A4370
:1032400082837047F0B50C46154600210022002607
:10325000078C4FF6FF6C07EA0C070784818B028C02
:103260004FF6FF7707EA04264FF60C7739404FF602
:10327000FF7707EA03172F4339434FF2FF573A40CE
:1032800046F480773A4381830284F0BD028B4FF28B
:10329000FF331A400283028B4FF6FF7303EA0123C8
:1032A0001A4302837047F0B50C46154600210022F0
:1032B0000026078C4FF6EF7C07EA0C070784018B8A
:1032C000028C4FF6FF7707EA041640F6FF473940B5
:1032D0004FF6FF7707EA033739434FF6FF7703E0EE
:1032E000000001400004014007EA052739434FF67A
:1032F0005F773A4046F010073A4301830284F0BDFD
:10330000028B4FF6F3731A400283028B0A43028347
:103310007047F0B50C46154600210022068C4FF68A
:10332000FE773E400684018B028C4FF60C763140CE
:103330007E1C06EA03162E4331434FF6F5763240E3
:1033400044F00106324301830284F0BD70B50546A6
:103350000C46208850B92389A28861882846FFF747
:10336000D8FFE1882846FFF7CBFF25E02088042816
:103370000AD12389A28861882846FFF794FFE18853
:103380002846FFF783FF17E0208808280AD1238901
:10339000A28861882846FFF755FFE1882846FFF795
:1033A00048FF09E02389A28861882846FFF719FFB2
:1033B000E1882846FFF708FF70BD002101804180A9
:1033C000012181800021C180018170472DE9F041F8
:1033D00005460C4600260127608808B9022600E051
:1033E0000026A088012801D1022700E001272088BB
:1033F000A0B92389A28861882846FFF78AFFE1885F
:103400002846FFF77DFF23893A4631462846FFF7D5
:103410004AFFE1882846FFF739FF13E02389A28895
:1034200061882846FFF73FFFE1882846FFF72EFF17
:1034300023893A4631462846FFF76BFFE188284644
:10344000FFF75EFFBDE8F0810146486B704701461B
:10345000886B70470146C86B70470146086C70471F
:103460000A884B881A438B881A43CB881A430B89E6
:103470001A434B891A438B891A43A0F8442070479A
:103480000021018041808180C18001814181818151
:10349000704731B1B0F8442042F40042A0F8442013
:1034A00005E0B0F84420C2F30E02A0F844207047B3
:1034B00021B1828842F00402828004E082884FF6C3
:1034C000FB731A408280704721B1828842F001026A
:1034D000828004E082884FF6FE731A408280704733
:1034E0001AB183890B43838102E083898B438381F3
:1034F00070478182704702460020138A0B400BB14F
:10350000012000E000207047CA430282704730B5B6
:103510000246002000230024158A05EA010395894C
:1035200005EA010413B10CB1012000E0002030BD18
:10353000CA430282704741EA0203A0F8483070474C
:103540001AB183890B43838102E083898B43838192
:10355000704721B1828842F00802828004E08288AC
:103560004FF6F7731A408280704701894FF6F87260
:103570001140018170470A46002101894FF68F737F
:10358000194011430181704730B504460D46294664
:103590002046FFF7F0FF208940F00700208130BD72
:1035A0002DE9F04104460D4616461F46602D06D112
:1035B0003B46012231462046FFF775FE05E03B46BB
:1035C000012231462046FFF7A4FE29462046FFF798
:1035D000D2FF208940F007002081BDE8F08130B59E
:1035E0000C4600210189C9B24FF6FF7505EA032593
:1035F000154325432943018130BD2DE9F04105469E
:103600000E4617469846002443463A463146284619
:10361000FFF7E5FF2C894FF6F870044044F00704EB
:103620004FF68F70044044F070042C81BDE8F081A7
:10363000F0B504460D4616461F463B46324629461F
:103640002046FFF7CCFF208940F480402081F0BD68
:1036500082884FF68F731A40828082880A43828064
:10366000704702894FF6F8731A40028102890A43B3
:103670000281704702894FF67F731A4002810289E6
:103680000A4302817047F0B50C4615461E460021DC
:10369000002200230189028B038C4FF6F877394012
:1036A00021434FF6FC473A4040F201173A434FF6A8
:1036B000DD773B404FF6FF7707EA06172F433B4382
:1036C000018102830384F0BD21B1828842F080022F
:1036D000828004E082884FF67F731A4082807047B0
:1036E000A0F850107047000010B50446FA48844214
:1036F00008D101211020FEF788FD00211020FEF7DF
:1037000084FD57E0F548844209D101214804FEF7C1
:103710006BFD00214FF40030FEF766FD4AE0F048F3
:10372000844209D101218804FEF75EFD00214FF497
:103730008020FEF759FD3DE0EA48844209D101218D
:10374000C804FEF751FD00214FF40020FEF74CFDA8
:1037500030E0E548844209D101210805FEF744FD27
:1037600000214FF48010FEF73FFD23E0DF48844244
:1037700008D101212020FEF748FD00212020FEF77E
:1037800044FD17E0DA48844209D101218807FEF799
:103790002BFD00214FF08040FEF726FD0AE0D548C2
:1037A000844207D101214005FEF71EFD002160057E
:1037B000FEF71AFD10BD2DE9FF4705460E46002411
:1037C000A14600BFA046B08900B100BF2C8A24F4F6
:1037D0004054F08804432C82AC8941F20C6084434D
:1037E000B08831890843718908430443AC81AC8AAD
:1037F00024F44074B0890443AC826846FEF785FB2C
:10380000B548854202D0B948854202D1DDF80C9016
:1038100001E0DDF80890A88900F4004040B109EB10
:10382000C90000EB091031684900B0FBF1F707E06F
:1038300009EBC90000EB091031688900B0FBF1F712
:103840006420B7FBF0F004012009642101FB10782B
:10385000A88900F4004040B1322000EBC800B0FB62
:10386000F1F000F00700044308E0322000EB0810FC
:103870006421B0FBF1F000F00F0004432C81BDE89F
:10388000FF874FF41651016000218180C1800181C2
:103890000C21418100218181704710B50246002032
:1038A000108A20F470600B884C8823438C88234353
:1038B000CC8823431843108210BD00210180418031
:1038C0008180C180704721B1828942F40052828197
:1038D00004E082894DF6FF731A4082817047028BA3
:1038E00002F47F420283028B0A430283704721B1B4
:1038F000828942F40042828103E08289C2F30E028F
:103900008281704721B1828A42F40062828204E09F
:10391000828A4FF2FF731A4082827047C1F3080215
:103920008280704701468888C0F308007047028A89
:103930004FF6F0731A400282028A0A4302827047ED
:1039400021B1828942F00202828104E082894FF62D
:10395000FD731A408281704782894FF2FF731A40CB
:10396000828182890A4382817047028A4FF6DF731F
:103970001A400282028A0A430282704721B1028AF7
:1039800042F48042028204E0028A4BF6FF731A403E
:1039900002827047818941F001018181704721B124
:1039A000828A42F00802828204E0828A4FF6F7732C
:1039B0001A4082827047028BD2B20283028B42EAA3
:1039C00001220283704721B1828A42F02002828262
:1039D00004E0828A4FF6DF731A408282704721B179
:1039E000828A42F01002828204E0828A4FF6EF73EC
:1039F0001A4082827047828A4FF6FB731A40828295
:103A0000828A0A438282704721B1828A42F002028E
:103A1000828204E0828A4FF6FD731A4082827047E8
:103A20001AB1838A0B43838202E0838A8B438382A9
:103A30007047F0B50346002400260025002040F61C
:103A40006A17B94200D100BF1846C1F3421401F011
:103A50001F06012707FA06F5012C01D10C3004E0FE
:103A6000022C01D1103000E014301AB107682F4346
:103A7000076002E00768AF430760F0BD0246002020
:103A8000B1F5007F00D100BF13880B400BB10120BE
:103A900000E00020704701F40072B2F5007F00D111
:103AA00000BFCA430280704770B50246002400235D
:103AB0000025002040F66A16B14200D100BFC1F3D4
:103AC000421501F01F03012606FA03F3012D13D15D
:103AD0009689334017E00000001001400044004088
:103AE00000480040004C00400050004000140140DD
:103AF00000780040007C0040022D02D1168A33403D
:103B000001E0968A33400C12012606FA04F4168866
:103B1000344013B10CB1012000E0002070BD10B59D
:103B20000022002340F66A14A14200D100BF0A120D
:103B300001249440A3B2DC43048010BD10B50446B8
:103B40006FF00400FDF76AF9E11704EB5171C1F35E
:103B5000C701394A11701046007800EB4001C1EBF3
:103B6000C0104FF6FF7101EAC0003449088010BD53
:103B70000146314A12784A434FF0E0235A6100224D
:103B80009A611A46126942F001021A6100BF4FF0B1
:103B9000E022106900F001021AB100F48032002A1C
:103BA000F5D04FF0E022126922F001024FF0E0233D
:103BB0001A6100229A6170470146204A12884A43DE
:103BC0004FF0E0235A6100229A611A46126942F0CE
:103BD00001021A6100BF4FF0E022106900F00102FB
:103BE0001AB100F48032002AF5D04FF0E0221269B9
:103BF00022F001024FF0E0231A6100229A6170471F
:103C000070B504464FF4077094FBF0F0C6B24FF461
:103C1000077094FBF0F100FB114085B205E04FF412
:103C20000770FFF7C9FF701EC6B2002EF7D115B19D
:103C30002846FFF7C1FF70BD480000204A00002061
:103C400000BF704700BF4C4A128802F04002002AB1
:103C5000F9D0C2B2484B9A80704710B588B004467C
:103C600001210846FEF722FA01211020FEF778FA1A
:103C7000072209214148FEF706F807220A213F489A
:103C8000FEF701F84FF4C060069002208DF81C008A
:103C90008DF81D0000208DF81E0001208DF81F00FA
:103CA00006A93648FDF764FF02940020ADF80C0029
:103CB000ADF80E00ADF81000ADF814000C20ADF812
:103CC000120002A92C48FFF776FD01212A48FFF7D0
:103CD000FAFD012240F225512748FFF7AAFE2520D0
:103CE0008DF8040003208DF805008DF806000120F2
:103CF0008DF8070001A8FDF744F808B010BD10B515
:103D000040F225511C48FFF7CFFE10B31A48FFF7C9
:103D100009FEC4B21A48008800F40040C8B9184827
:103D2000008800F4804060B10A2C03D000201449C0
:103D3000088020E01248008840F4004010490880C4
:103D400019E00D2C06D10E48008840F480400C4943
:103D5000088010E00A480088C0F30D0009490C549F
:103D600007480088401C0649088008460088C72884
:103D700001DD0020088010BD00100140000002405D
:103D800050000020500100201CB501211020FEF73A
:103D90008DF901208DF8040000208DF806000C201C
:103DA000009001208DF8070003208DF8050069467A
:103DB0002548FDF7DDFE08212348FDF755FF0421C6
:103DC0002148FDF753FF1CBD7FB505460C46012178
:103DD0000846FEF7B4F9681E0290601E80B2ADF886
:103DE00004000020ADF80C00ADF8060001A94FF06A
:103DF0008040FEF7D4FE012211469007FFF770FBCA
:103E00001C208DF8000000208DF8010001208DF8A5
:103E100002008DF803006846FCF7B3FF0121880714
:103E2000FEF746FF7FBD10B501218807FFF76FFB46
:103E3000012807D108210448FDF721FF0121880747
:103E4000FFF776FB10BD0000001002401CB50121F9
:103E50000846FEF72BF900208DF804004FF40060AF
:103E6000009002208DF8070003208DF805006946B8
:103E70001C48FDF77DFE1CBD0EB5FFF7E7FF0121D5
:103E80008803FEF76DF90B210020FEF7A2FD4FF429
:103E90000060019001208DF80A0000208DF80800D4
:103EA00010208DF8090001A8FDF77EFA28208DF872
:103EB000000001208DF8030000208DF80100012092
:103EC0008DF802006846FCF75CFF0EBD10B54FF49C
:103ED0000060FDF7CFFA18B94FF40060FDF7D5FA8E
:103EE00010BD0000000002401CB501210846FEF78D
:103EF000DDF800208DF804000620009002208DF8E7
:103F0000070003208DF805000120009002208DF8A5
:103F1000070069465548FDF72BFE1CBD0EB5FFF79F
:103F2000E3FF01218803FEF71BF900210846FEF795
:103F300050FD01210020FEF74CFD02210020FEF77C
:103F400048FD0120009000208DF8040008208DF825
:103F5000050001208DF806006846FDF725FA0620C9
:103F6000009000208DF804000C208DF80500012041
:103F70008DF806006846FDF717FA06208DF8080050
:103F800001208DF80B0000208DF8090002208DF82B
:103F90000A0002A8FCF7F5FE07208DF808000120B2
:103FA0008DF80B0003208DF8090002208DF80A001F
:103FB00002A8FCF7E6FE08208DF8080001208DF825
:103FC0000B0002208DF809008DF80A0002A8FCF70A
:103FD000D8FE0EBD10B50A20FFF712FE2448006877
:103FE00001280FD12349087023480078012803D104
:103FF00000202149087005E01F48007810B9012011
:104000001D4908700120FDF740FA10BD10B50A20C7
:10401000FFF7F6FD1648001D006830B9012017496A
:10402000087017490870174908700220FDF72DFA2B
:1040300010BD10B50A20FFF7E3FD0D4808300068F9
:1040400080B901201049087010480078012803D178
:1040500000200E49087005E00C48007810B90120D6
:104060000A4908700420FDF710FA10BD0000024054
:10407000000240420200002009000020050000204C
:10408000000000200A00002003000020040000209F
:1040900010B588B0044601210220FEF707F801217F
:1040A0008804FEF74CF807220B215148FDF7EBFD81
:1040B00007220A214E48FDF7E6FD4FF440600690C6
:1040C00002208DF81C008DF81D0000208DF81E00C8
:1040D00001208DF81F0006A94548FDF749FD02940F
:1040E0000020ADF80C00ADF80E00ADF81000ADF8F2
:1040F00014000C20ADF8120002A93E48FFF75BFB4C
:1041000001213C48FFF7DFFB012240F225513948ED
:10411000FFF78FFC27208DF8040003208DF80500A1
:104120008DF8060001208DF8070001A8FCF729FE94
:1041300008B010BD10B540F225512E48FFF7B4FC71
:1041400010B32C48FFF7EEFBC4B22B48008800F4F4
:104150000040C8B92848008800F4804060B10A2CAB
:1041600003D000202449088020E02348008840F440
:1041700000402149088019E00D2C06D11E48008816
:1041800040F480401C49088010E01B480088C0F3C0
:104190000D001A490C5418480088401C1649088024
:1041A00008460088C72801DD0020088010BD10B532
:1041B00004460BE000BF40210E48FFF75FFC0028DB
:1041C000F9D021780B48FFF7A9FB641C2078002860
:1041D000F0D110BD10B5044600BF40210548FFF7DF
:1041E0004DFC0028F9D021460248FFF797FB10BD8F
:1041F0000004024000480040520000201802002045
:1042000001B5BDF800000090BDF80000FE4908802F
:1042100008BD01B5BDF800000090BDF80000FA49E6
:10422000891C088008BD08B5F748801C00880090EC
:10423000BDF8000008BDF44A10804FF0D842A2F843
:104240008010704710B504462046FFF7D9FF0520BF
:10425000FFF78EFCFFF7E7FF10BDEC480089EA4945
:1042600008807047E849891C0880704730B50146CE
:1042700001F01F04C1F34513CA0AE50205EB43151B
:104280001544A8B230BD00BF011EA0F10102D0B29A
:10429000FAD1704710B502460C46DC48808841F6DA
:1042A0006311884247D1D9488079A8B9D748008896
:1042B000401E801A82B2D5494889FFF7A1FF00202D
:1042C000FFF7A7FF0020FFF7A4FF1012FFF7A1FFE1
:1042D000D0B2FFF79EFF16E0CC494889FFF790FF68
:1042E0001012FFF796FFD0B2FFF793FFC749098876
:1042F000491EC1F30F20FFF78CFFC4490978491EFE
:10430000C8B2FFF786FFC1498889FFF779FF2012FD
:10431000FFF77FFFE0B2FFF77CFFBC494988491EE9
:10432000C1F30F20FFF775FFB8498978491EC8B25D
:10433000FFF76FFF3AE0B548808845F21051884298
:1043400020D1B2494889FFF75BFF1012FFF761FFE8
:10435000AE494989491C88B2FFF752FFD0B2FFF736
:1043600058FFAA498889FFF74BFF2012FFF751FF3A
:10437000A6498989491C88B2FFF742FFE0B2FFF7DE
:1043800048FF13E0A1494889FFF73AFF1012FFF7F1
:1043900040FFD0B2FFF73DFF9C498889FFF730FF0F
:1043A0002012FFF736FFE0B2FFF733FF10BD2DE913
:1043B000F04105460E4600240027A0469348008899
:1043C000A84203DD91484088B04202DC0020BDE8ED
:1043D000F08131462846FFF75DFF8C48808845F222
:1043E0001051884204D14FF43850FFF709FF02E022
:1043F0002E20FFF705FFFFF716FF0446834880884D
:1044000041F66311884201D12046E0E7FFF70BFF38
:104410000446FFF708FF8046E7B24FF6FF7000EA58
:104420000727E012C002B91240EA411040EAE82032
:10443000CDE700B57548808845F21051884204D117
:104440004FF42450FFF7DCFE02E02920FFF7D8FEEE
:1044500000BD00B56D48808845F21051884204D1F6
:104460004FF42050FFF7CCFE02E02820FFF7C8FEF3
:1044700000BDF0B505460024002764488079012876
:1044800005D16248808841F66311884208D15F48AF
:104490008079F0B95D48808841F66311884218D16F
:1044A000082D15D2DFE805F00406080A0C0E1012DC
:1044B00006250DE007250BE0042509E0052507E0AA
:1044C000012505E0002503E0032501E0022500BFEA
:1044D00000BF082D1CD2DFE805F00406090C0F12FE
:1044E000151800BF14E044F0800411E044F04004CB
:1044F0000EE044F0C0040BE044F0200408E044F077
:10450000600405E044F0A00402E044F0E00400BFD1
:1045100000BF3E48808845F21051884202D14FF4D6
:10452000585700E036273948808849F2413188429F
:1045300005D03648808847F28971884201D144F01D
:10454000080421463846FFF776FE3048808841F659
:10455000631188421DD004F0200068B12B48008808
:104560002A494988884214DA284806884088274919
:104570000880084646800CE0244800882349498882
:10458000884206DD21480688408820490880084680
:1045900046801E48808845F21051884257D11B49F9
:1045A0004889FFF72DFE0020FFF733FE17494989A0
:1045B000491C88B2FFF724FE0020FFF72AFE1349AA
:1045C0004989891C88B2FFF71BFE10490988491EDA
:1045D000C1F30F20FFF71DFE0C494989C91C88B2A1
:1045E000FFF70EFE09490978491EC8B2FFF711FE10
:1045F00006498889FFF704FE0020FFF70AFE0349F9
:104600008989491C88B203E07E00006CE00200202A
:10461000FFF7F6FD0020FFF7FCFDFE498989891CA4
:1046200088B2FFF7EDFDFB494988491EC1F30F2011
:10463000FFF7EFFDF7498989C91C88B2FFF7E0FD54
:10464000F4498978491EC8B2FFF7E3FD2DE0F1492E
:104650004889FFF7D5FD0020FFF7DBFD0020FFF7BD
:10466000D8FDEC490988491EC1F30F20FFF7D1FDA1
:10467000E8490978491EC8B2FFF7CBFDE5498889AA
:10468000FFF7BEFD0020FFF7C4FD0020FFF7C1FDCE
:10469000E0494988491EC1F30F20FFF7BAFDDD4903
:1046A0008978491EC8B2FFF7B4FDF0BD30B50446A5
:1046B0000D4629462046FFF7EDFDFFF7CEFDD64813
:1046C0000088D649088030BD30B504460D46D14833
:1046D000808845F21051884220D1CE494889FFF7A1
:1046E0008FFD2012FFF795FDCA494989491C88B200
:1046F000FFF786FDE0B2FFF78CFDC6498889FFF71A
:104700007FFD2812FFF785FDC2498989491C88B2BF
:10471000FFF776FDE8B2FFF77CFD42E0BD488088F8
:1047200041F66311884228D1BA48807920B9B94846
:104730000088401E001B84B2B6494889FFF760FD1F
:104740002012FFF766FDE0B2FFF763FD2012FFF7CE
:1047500060FDE0B2FFF75DFDAE498889FFF750FDCF
:104760002812FFF756FDE8B2FFF753FD2812FFF7B6
:1047700050FDE8B2FFF74DFD13E0A6494889FFF769
:104780003FFD2012FFF745FDE0B2FFF742FDA149D2
:104790008889FFF735FD2812FFF73BFDE8B2FFF7E8
:1047A00038FD9C4800899D49891E08804FF0D840FB
:1047B000A0F8802030BD70B52DED048B0446BE20DE
:1047C000FFF71EFD0520FFF724FD20460EF0F1F94E
:1047D00041EC190B9FED920B53EC102B0EF0FCF9F2
:1047E00041EC180B0EF0B8F985B22846FFF711FD21
:1047F0000120FFF70EFDFF20FFF70BFD0020FFF764
:1048000008FD0020FFF705FDBDEC048B70BD10B561
:10481000044680488471002C45D1F0207D490880F1
:104820004FF4A07048800846808845F210518842B5
:1048300010D14FF43050774908814FF42850488107
:104840004FF42C5088814FF4F07008804FF448707A
:1048500048801AE06F48808841F6631188420DD184
:104860002C206C4908812B2048812A2088814FF414
:10487000F07008804FF44870488006E02C206549AD
:1048800008812A2048812B2088816248808845F24F
:10489000103188424CD14FF4A0705E4908804FF42B
:1048A000F070488044E04FF4A0705A490880F0202E
:1048B00048800846808845F21051884210D14FF454
:1048C0003050544908814FF4285048814FF42C50FF
:1048D00088814FF4487008804FF4F07048801AE0E7
:1048E0004C48808841F6631188420DD12C204949FB
:1048F00008812A2048812B2088814FF44870088045
:104900004FF4F070488006E02C20424908812A20AC
:1049100048812B2088813F48808845F210318842A9
:1049200006D14FF4F0703B4908804FF4A0704880E6
:104930000020FFF79EFD10BD2DE9F04104460D4615
:104940001E46A018401E87B2A819401E1FFA80F804
:104950003048808841F66311884231D12D488079F2
:1049600001282DD02B480088801A001B84B2A8197A
:10497000401E86B227494889FFF742FC2012FFF704
:1049800048FCE0B2FFF745FCA118491EC1F30F2017
:10499000FFF73FFCA118491EC8B2FFF73AFC1D49BA
:1049A0008889FFF72DFC2812FFF733FCE8B2FFF7E8
:1049B00030FC3012FFF72DFCF0B2FFF72AFC79E053
:1049C0001448808845F21051884251D111494889D4
:1049D000FFF716FC2012FFF71CFC0E494989491C01
:1049E00088B2FFF70DFCE0B2FFF713FC09494989D3
:1049F000891C88B2FFF704FC3812FFF70AFC05494E
:104A00004989C91C88B2FFF7FBFBF8B2FFF701FC2C
:104A1000004909E0E0020020540000208000006C02
:104A200066666666666604408889FFF7E9FB2812B9
:104A3000FFF7EFFBFD498989491C88B2FFF7E0FBCE
:104A4000E8B2FFF7E6FBF9498989891C88B2FFF7CC
:104A5000D7FB4FEA2820FFF7DCFBF4498989C91C02
:104A600088B2FFF7CDFB08F0FF00FFF7D2FB21E093
:104A7000EE494889FFF7C4FB2012FFF7CAFBE0B2FA
:104A8000FFF7C7FB3812FFF7C4FBF8B2FFF7C1FB13
:104A9000E6498889FFF7B4FB2812FFF7BAFBE8B2B2
:104AA000FFF7B7FB4FEA2820FFF7B3FB08F0FF0042
:104AB000FFF7AFFBBDE8F08170B504460026DB4888
:104AC00005884088454300210846FFF7E3FBFFF7D0
:104AD000C4FB00BF02E0D6480480761CAE42FAD385
:104AE00070BD00B5A1B00020209001217A20FDF713
:104AF000DDFA01210846FDF711FB4FF400401E903E
:104B000001208DF87C0000208DF87E0002208DF8B9
:104B10007D0001208DF87F001EA9C648FDF728F80A
:104B20004CF233701E9002208DF87C0000208DF82E
:104B30007E0003208DF87D0001208DF87F001EA9E6
:104B4000BD48FDF715F84FF680701E9002208DF8D5
:104B50007C0000208DF87E0003208DF87D00012070
:104B60008DF87F001EA9B548FDF702F84FF480507C
:104B70001E9002208DF87C0000208DF87E0003201E
:104B80008DF87D0001208DF87F001EA9AC48FCF750
:104B9000EFFF4FF480501E9002208DF87C00002023
:104BA0008DF87E0003208DF87D0001208DF87F00B8
:104BB0001EA9A448FCF7DCFF0C2200219E48FDF74B
:104BC00062F80C2201219C48FDF75DF80C220421BB
:104BD0009948FDF758F80C2205219748FDF753F83E
:104BE0000C2208219448FDF74EF80C220921924826
:104BF000FDF749F80C220A218F48FDF744F80C22F2
:104C00000E218D48FDF73FF80C220F218A48FDF751
:104C10003AF80C2207218948FDF735F80C220821C3
:104C20008648FDF730F80C2209218448FDF72BF85F
:104C30000C220A218148FDF726F80C220B217F481F
:104C4000FDF721F80C2211467C48FDF71CF80C22D8
:104C50000D217A48FDF717F80C220E217748FDF751
:104C600012F80C220F217548FDF70DF80C221146A1
:104C70007348FDF708F80C2211467248FDF703F857
:104C80000F200890002009903C200A9000200B90F3
:104C90000C900D900E9009200190002002900820A9
:104CA00003900020049005900690079006200F9036
:104CB0000020109011901020129000201390159059
:104CC0001490169017904FF480501890002019906F
:104CD0004FF480401A9000201B9008A81C9001A857
:104CE0001D900FA8FCF7F5FB01210620FCF77CFCCA
:104CF0003220FEF785FFD320FFF782FAFFF793FA01
:104D00004A498880FFF78FFA48498880FFF78BFA75
:104D100046498880084680884FF6FF7101EA0020E6
:104D200042498880FFF77FFA4049898808433F4914
:104D300088800846808849F24131884275D0042035
:104D4000FFF75EFAFFF76FFA38498880FFF76BFAD2
:104D500036498880FFF767FA34498880084680889A
:104D60004FF6FF7101EA002030498880FFF75BFAB7
:104D70002E49898808432D4988800846808848F252
:104D80005251884203D147F28970284988802748C8
:104D9000808847F289718842D0D0D420FFF730FA5A
:104DA000FFF741FA21498880FFF73DFA1F498880C3
:104DB000FFF739FA1D498880084680884FF6FF7151
:104DC00001EA002019498880FFF72DFA17498988E0
:104DD0000843164988800846808845F21031884289
:104DE00079D055214FF47040FFF725FAAA214FF2F0
:104DF0000100FFF720FA52214FF20200FFF71BFAE1
:104E000008214FF20300FFF716FA01214FF20400C8
:104E1000FFF711FA4FF44540FFF7F2F9FFF703FAF5
:104E200002498880084680880EE054E0E0020020B5
:104E30008000006C00040240000C024000100240A0
:104E400000140240001802404FF6FF7101EA0020F2
:104E5000FE4988804CF20150FFF7D2F9FFF7E3F9E1
:104E6000FA4989880843F94988800520FEF7C8FE79
:104E7000F6488088B0F5004F03D145F21050F34951
:104E80008880F248808845F21051884223D0A120C2
:104E9000FFF7B6F9FFF7C7F9EC498880FFF7C3F9C8
:104EA000EA498880084680884FF6FF7101EA0020B1
:104EB000E6498880FFF7B7F9E44989880843E34960
:104EC00088800846808845F26171884203D141F6A6
:104ED0006310DE498880DD48808849F2413188428C
:104EE00017D0DA48808847F28971884211D0D748B4
:104EF000808845F2103188420BD0D448808845F232
:104F00001051884205D0D148808841F6631188420B
:104F10002CD1CF48006820F00F004FF02041C1F89D
:104F20001C010846D0F81C0120F47060C1F81C0177
:104F30000846D0F81C0140F00300C1F81C01C3482A
:104F4000808847F28971884208D1C148006840F4DE
:104F500040704FF02041C1F81C0107E0BC480068D8
:104F600040F400704FF02041C1F81C01B74881881F
:104F7000B8A00DF069FAB548808849F241318842FD
:104F80007ED1CF20FFF73CF90020FFF742F9C12086
:104F9000FFF73FF93020FFF73CF9ED20FFF730F93C
:104FA0006420FFF736F90320FFF733F91220FFF7EB
:104FB00030F98120FFF72DF9E820FFF721F985204E
:104FC000FFF727F91020FFF724F97A20FFF721F9DE
:104FD000CB20FFF715F93920FFF71BF92C20FFF73D
:104FE00018F90020FFF715F93420FFF712F9022015
:104FF000FFF70FF9F720FFF703F92020FFF709F972
:10500000EA20FFF7FDF80020FFF703F90020FFF783
:1050100000F9C020FFF7F4F81B20FFF7FAF8C120D1
:10502000FFF7EEF80120FFF7F4F8C520FFF7E8F8E6
:105030003020FFF7EEF83020FFF7EBF8C720FFF73E
:10504000DFF8B720FFF7E5F83620FFF7D9F848205A
:10505000FFF7DFF83A20FFF7D3F85520FFF7D9F82C
:10506000B120FFF7CDF80020FFF7D3F81A20FFF7A3
:10507000D0F8B620FFF7C4F80A20FFF7CAF800E01E
:1050800097E0A220FFF7C5F8F220FFF7B9F800205B
:10509000FFF7BFF82620FFF7B3F80120FFF7B9F8B4
:1050A000E020FFF7ADF80F20FFF7B3F82A20FFF755
:1050B000B0F82820FFF7ADF80820FFF7AAF80E2077
:1050C000FFF7A7F80820FFF7A4F85420FFF7A1F88E
:1050D000A920FFF79EF84320FFF79BF80A20FFF76F
:1050E00098F80F20FFF795F80020FFF792F80020BE
:1050F000FFF78FF80020FFF78CF80020FFF789F802
:10510000E120FFF77DF80020FFF783F81520FFF777
:1051100080F81720FFF77DF80720FFF77AF81120B5
:10512000FFF777F80620FFF774F82B20FFF771F8E8
:105130005620FFF76EF83C20FFF76BF80520FFF7CD
:1051400068F81020FFF765F80F20FFF762F83F209E
:10515000FFF75FF83F20FFF75CF80F20FFF759F8E3
:105160002B20FFF74DF80020FFF753F80020FFF742
:1051700050F80120FFF74DF83F20FFF74AF82A20AA
:10518000FFF73EF80020FFF744F80020FFF741F852
:105190000020FFF73EF8EF20FFF73BF81120FFF764
:1051A0002FF87820FEF72CFD2920FFF729F802F0D0
:1051B000B3B82648808847F2897188427DD1112092
:1051C000FFF71EF87820FEF71BFD3620FFF718F8D2
:1051D0000020FFF71EF83A20FFF712F80520FFF72E
:1051E00018F8B220FFF70CF80C20FFF712F80C208B
:1051F000FFF70FF80020FFF70CF83320FFF709F84E
:105200003320FFF706F8B720FEF7FAFF3520FFF747
:1052100000F8BB20FEF7F4FF3220FEF7FAFFC020B3
:10522000FEF7EEFF0C20FEF7F4FFC220FEF7E8FFCA
:105230000120FEF7EEFFC320FEF7E2FF1020FEF78D
:10524000E8FFC420FEF7DCFF20200BE0E002002096
:105250001C0100A0204C43442049443A25780D0A03
:1052600000000000FEF7D5FFC620FEF7C9FF0F20A3
:10527000FEF7CFFFD020FEF7C3FFA420FEF7C9FF43
:10528000A120FEF7C6FFE020FEF7BAFFD020FEF710
:10529000C0FF0020FEF7BDFF0220FEF7BAFF072087
:1052A000FEF7B7FF0A20FEF7B4FF2820FEF7B1FF94
:1052B0003220FEF7AEFF442000E062E0FEF7A9FFD7
:1052C0004220FEF7A6FF0620FEF7A3FF0E20FEF702
:1052D000A0FF1220FEF79DFF1420FEF79AFF172073
:1052E000FEF797FFE120FEF78BFFD020FEF791FF3E
:1052F0000020FEF78EFF0220FEF78BFF0720FEF74F
:1053000088FF0A20FEF785FF2820FEF782FF312064
:10531000FEF77FFF5420FEF77CFF4720FEF779FF62
:105320000E20FEF776FF1C20FEF773FF1720FEF716
:1053300070FF1B20FEF76DFF1E20FEF76AFF2A207C
:10534000FEF75EFF0020FEF764FF0020FEF761FF1E
:105350000020FEF75EFFEF20FEF75BFF2B20FEF73D
:105360004FFF0020FEF755FF0020FEF752FF0120FF
:10537000FEF74FFF3F20FEF74CFF2920FEF740FFCE
:1053800015E7FE48808845F21031884240F07C875E
:10539000ED20FEF735FF0120FEF73BFFFE20FEF774
:1053A00038FFEE20FEF72CFFDE20FEF732FF212033
:1053B000FEF72FFFF120FEF723FF0120FEF729FF64
:1053C000DF20FEF71DFF1020FEF723FFC420FEF7AD
:1053D00017FF8F20FEF71DFFC620FEF711FF0020EC
:1053E000FEF717FFE220FEF714FFE220FEF711FFA1
:1053F000E220FEF70EFFBF20FEF702FFAA20FEF715
:1054000008FFB020FEF7FCFE0D20FEF702FF002093
:10541000FEF7FFFE0D20FEF7FCFE0020FEF7F9FE72
:105420001120FEF7F6FE0020FEF7F3FE1920FEF72E
:10543000F0FE0020FEF7EDFE2120FEF7EAFE002040
:10544000FEF7E7FE2D20FEF7E4FE0020FEF7E1FE6A
:105450003D20FEF7DEFE0020FEF7DBFE5D20FEF7BE
:10546000D8FE0020FEF7D5FE5D20FEF7D2FE00201C
:10547000FEF7CFFEB120FEF7C3FE8020FEF7C9FE87
:105480000020FEF7C6FE8B20FEF7C3FE0020FEF7CD
:10549000C0FE9620FEF7BDFE0020FEF7BAFEB22049
:1054A000FEF7AEFE0020FEF7B4FE0020FEF7B1FED0
:1054B0000220FEF7AEFE0020FEF7ABFE0320FEF753
:1054C000A8FE0020FEF7A5FEB320FEF799FE0020FF
:1054D000FEF79FFE0020FEF79CFE0020FEF799FEDF
:1054E0000020FEF796FE0020FEF793FE0020FEF758
:1054F00090FE0020FEF78DFE0020FEF78AFE0020C1
:10550000FEF787FE0020FEF784FE0020FEF781FEF6
:105510000020FEF77EFE0020FEF77BFE0020FEF757
:1055200078FE0020FEF775FE0020FEF772FE0020D8
:10553000FEF76FFE0020FEF76CFE0020FEF769FE0E
:105540000020FEF766FE0020FEF763FE0020FEF757
:1055500060FE0020FEF75DFE0020FEF75AFEB4203C
:10556000FEF74EFE8B20FEF754FE0020FEF751FEA4
:105570009620FEF74EFE0020FEF74BFEA120FEF720
:1055800048FE0020FEF745FEB520FEF739FE02205A
:10559000FEF73FFE0020FEF73CFE0320FEF739FE3B
:1055A0000020FEF736FE0420FEF733FE0020FEF753
:1055B00030FEB620FEF724FE0020FEF72AFE002073
:1055C000FEF727FEB720FEF71BFE0020FEF721FEA8
:1055D0000020FEF71EFE3F20FEF71BFE0020FEF718
:1055E00018FE5E20FEF715FE0020FEF712FE642076
:1055F000FEF70FFE0020FEF70CFE8C20FEF709FEE2
:105600000020FEF706FEAC20FEF703FE0020FEF7AA
:1056100000FEDC20FEF7FDFD0020FEF7FAFD702005
:10562000FEF7F7FD0020FEF7F4FD9020FEF7F1FDF8
:105630000020FEF7EEFDEB20FEF7EBFD0020FEF76D
:10564000E8FDDC20FEF7E5FD0020FEF7E2FDB820D6
:10565000FEF7D6FD0020FEF7DCFD0020FEF7D9FDA9
:105660000020FEF7D6FD0020FEF7D3FD0020FEF758
:10567000D0FD0020FEF7CDFD0020FEF7CAFD002082
:10568000FEF7C7FDBA20FEF7BBFD2420FEF7C1FDE3
:105690000020FEF7BEFD0020FEF7BBFD0020FEF758
:1056A000B8FDC120FEF7ACFD2020FEF7B2FD0020C2
:1056B000FEF7AFFD5420FEF7ACFD0020FEF7A9FD7C
:1056C000FF20FEF7A6FD0020FEF7A3FDC220FEF797
:1056D00097FD0A20FEF79DFD0020FEF79AFD0420AD
:1056E000FEF797FD0020FEF794FDC320FEF788FD2E
:1056F0003C20FEF78EFD0020FEF78BFD3A20FEF7E2
:1057000088FD0020FEF785FD3920FEF782FD002090
:10571000FEF77FFD3720FEF77CFD0020FEF779FDC8
:105720003C20FEF776FD0020FEF773FD3620FEF7E5
:1057300070FD0020FEF76DFD3220FEF76AFD0020AF
:10574000FEF767FD2F20FEF764FD0020FEF761FDE8
:105750002C20FEF75EFD0020FEF75BFD2920FEF702
:1057600058FD0020FEF755FD2620FEF752FD0020D3
:10577000FEF74FFD2420FEF74CFD01E0E002002083
:105780000020FEF746FD2420FEF743FD0020FEF733
:1057900040FD2320FEF73DFD0020FEF73AFD3C20B2
:1057A000FEF737FD0020FEF734FD3620FEF731FD11
:1057B0000020FEF72EFD3220FEF72BFD0020FEF725
:1057C00028FD2F20FEF725FD0020FEF722FD2C20CE
:1057D000FEF71FFD0020FEF71CFD2920FEF719FD36
:1057E0000020FEF716FD2620FEF713FD0020FEF731
:1057F00010FD2420FEF70DFD0020FEF70AFD2420F9
:10580000FEF707FD0020FEF704FD2320FEF701FD53
:105810000020FEF7FEFCC420FEF7F2FC6220FEF73B
:10582000F8FC0020FEF7F5FC0520FEF7F2FC002056
:10583000FEF7EFFC8420FEF7ECFC0020FEF7E9FC0D
:10584000F020FEF7E6FC0020FEF7E3FC1820FEF750
:10585000E0FC0020FEF7DDFCA420FEF7DAFC0020CF
:10586000FEF7D7FC1820FEF7D4FC0020FEF7D1FC91
:105870005020FEF7CEFC0020FEF7CBFC0C20FEF7FC
:10588000C8FC0020FEF7C5FC1720FEF7C2FC002074
:10589000FEF7BFFC9520FEF7BCFC0020FEF7B9FC2C
:1058A000F320FEF7B6FC0020FEF7B3FCE620FEF77F
:1058B000B0FC0020FEF7ADFCC520FEF7A1FC3220B5
:1058C000FEF7A7FC0020FEF7A4FC4420FEF7A1FC95
:1058D0000020FEF79EFC6520FEF79BFC0020FEF7F3
:1058E00098FC7620FEF795FC0020FEF792FC8820BD
:1058F000FEF78FFC0020FEF78CFCC620FEF780FC34
:105900002020FEF786FC0020FEF783FC1720FEF720
:1059100080FC0020FEF77DFC0120FEF77AFC0020D1
:10592000FEF777FCC720FEF76BFC0020FEF771FC4A
:105930000020FEF76EFC0020FEF76BFC0020FEF757
:1059400068FCC820FEF75CFC0020FEF762FC00202B
:10595000FEF75FFC0020FEF75CFC0020FEF759FC20
:10596000C920FEF74DFC0020FEF753FC0020FEF797
:1059700050FC0020FEF74DFC0020FEF74AFC002002
:10598000FEF747FC0020FEF744FC0020FEF741FC38
:105990000020FEF73EFC0020FEF73BFC0020FEF757
:1059A00038FC0020FEF735FC0020FEF732FC00201A
:1059B000FEF72FFC0020FEF72CFC0020FEF729FC50
:1059C0000020FEF726FCE020FEF71AFC1620FEF76A
:1059D00020FC0020FEF71DFC1C20FEF71AFC002016
:1059E000FEF717FC2120FEF714FC0020FEF711FC47
:1059F0003620FEF70EFC0020FEF70BFC4620FEF7DB
:105A000008FC0020FEF705FC5220FEF702FC0020F7
:105A1000FEF7FFFB6420FEF7FCFB0020FEF7F9FB1E
:105A20007A20FEF7F6FB0020FEF7F3FB8B20FEF753
:105A3000F0FB0020FEF7EDFB9920FEF7EAFB0020CB
:105A4000FEF7E7FBA820FEF7E4FB0020FEF7E1FBF2
:105A5000B920FEF7DEFB0020FEF7DBFBC420FEF7DB
:105A6000D8FB0020FEF7D5FBCA20FEF7D2FB0020B2
:105A7000FEF7CFFBD220FEF7CCFB0020FEF7C9FBE0
:105A8000D920FEF7C6FB0020FEF7C3FBE020FEF79F
:105A9000C0FB0020FEF7BDFBF320FEF7BAFB0020A1
:105AA000FEF7B7FBE120FEF7ABFB1620FEF7B1FBDC
:105AB0000020FEF7AEFB1C20FEF7ABFB0020FEF73C
:105AC000A8FB2220FEF7A5FB0020FEF7A2FB362054
:105AD000FEF79FFB0020FEF79CFB4520FEF799FB9D
