:020000040800F2
:10000000D00A0020C9010008050A000811090008EB
:10001000010A0008F1040008BB19000800000000F4
:10002000000000000000000000000000A91200080D
:100030007D060008000000006B100008BD130008DA
:10004000E3010008E3010008E3010008E301000800
:10005000E3010008E3010008E3010008E3010008F0
:10006000E3010008E3010008E3010008E3010008E0
:10007000E3010008E3010008E3010008E3010008D0
:10008000E3010008E3010008E3010008E3010008C0
:10009000E3010008E3010008E3010008E3010008B0
:1000A000E3010008E3010008E3010008E3010008A0
:1000B000E3010008E3010008E3010008E301000890
:1000C000E3010008E3010008E3010008E301000880
:1000D000E30100088916000811170008E301000871
:1000E000E3010008E3010008E301000800F002F862
:1000F00000F05AF80AA090E8000C82448344AAF168
:100100000107DA4501D100F04FF8AFF2090EBAE865
:100110000F0013F0010F18BFFB1A43F0010318473B
:1001200060310000803100000A444FF0000C10F8EC
:10013000013B13F0070408BF10F8014B1D1108BF65
:1001400010F8015B641E05D010F8016B641E01F805
:10015000016BF9D113F0080F1EBF10F8014BAD1C55
:100160000C1B09D16D1E58BF01F801CBFAD505E073
:1001700014F8016B01F8016B6D1EF9D59142D6D3CD
:10018000704700000023002400250026103A28BFF5
:1001900078C1FBD8520728BF30C148BF0B607047F9
:1001A0001FB51FBD10B510BD00F033F81146FFF7A5
:1001B000F7FF01F0CFFC00F051F803B4FFF7F2FFB6
:1001C00003BC01F057FC000009488047094800477C
:1001D000FEE7FEE7FEE7FEE7FEE7FEE7FEE7FEE7F7
:1001E000FEE7FEE704480549054A064B7047000054
:1001F000C1130008ED000008D0040020D00A002040
:10020000D0060020D0060020704770477047704726
:100210007047754600F02CF8AE4605006946534617
:1002200020F00700854618B020B5FFF7DBFFBDE8DA
:1002300020404FF000064FF000074FF000084FF04D
:10024000000B21F00701AC46ACE8C009ACE8C009DE
:10025000ACE8C009ACE8C0098D46704710B504464B
:10026000AFF300802046BDE81040FFF7A6BF0000B6
:10027000004870477004002021B1826842F00102FA
:10028000826003E0826822F0010282607047000011
:1002900010B504461248844208D10121401500F0EF
:1002A00011FF0021601500F00DFF17E00D4884429A
:1002B00008D10121001500F005FF0021201500F0F4
:1002C00001FF0BE00848844208D10121C80300F077
:1002D000F9FE00214FF4004000F0F4FE10BD0000D4
:1002E0000024014000280140003C0140014600205C
:1002F0008A6802F004020AB1012000E00020704781
:100300000146C86C80B270470246002013680B405B
:100310000BB1012000E000207047014600208A68F0
:1003200002F008020AB1012000E00020704700003E
:1003300030B502460020002350680F4C20400D7954
:100340000C6844EA05242043506090680B4C204020
:10035000D1E902542C434D7944EA4504204390608E
:10036000D06A20F470000C7C641EE4B2234340EA9F
:100370000350D06230BD0000FFFEF0FFFDF7F1FF3B
:10038000F0B504460D4600200021092D11DDE0687E
:10039000A5F10A0606EB4607072606FA07F1884389
:1003A000A5F10A0606EB460603FA06F10843E060EB
:1003B0000CE0206905EB4507072606FA07F188439C
:1003C00005EB450603FA06F108432061072A0FDA18
:1003D000606B561E06EB86071F2606FA07F1884358
:1003E000561E06EB860605FA06F10843606322E016
:1003F0000D2A0FDA206BD61F06EB86071F2606FA9A
:1004000007F18843D61F06EB860605FA06F1084376
:10041000206310E0E06AA2F10D0606EB86071F26B6
:1004200006FA07F18843A2F10D0606EB860605FAE7
:1004300006F10843E062F0BD816841F00801816087
:10044000704721B1826842F4A002826003E08268B2
:1004500022F4A00282607047816841F0040181604B
:100460007047000000B587B001214FF4017000F023
:1004700019FE4FF4004000F0F9FD0220ADF8040031
:1004800000208DF8070001A9174800F0F8F8174878
:10049000FFF7FEFE002002908DF80C008DF80D0095
:1004A0004FF4602004900020059001208DF8180082
:1004B00002A90E48FFF73CFF01210C48FFF7DCFEC4
:1004C0000A48FFF7B9FF00BF0848FFF726FF0028DA
:1004D000FAD10648FFF7C0FF00BF0448FFF706FF48
:1004E0000028FAD107B000BD0008014000240140F7
:1004F00000BFFEE708B50121042000F0D3FD042071
:100500008DF803000120ADF8000003208DF80200F3
:100510006946024800F0B3F808BD00000008014039
:1005200008B50121042000F0BDFD10208DF8030066
:100530000120ADF8000003208DF802006946024852
:1005400000F09DF808BD00000008014070B50025CE
:1005500000BF1CE000BF01210F4800F01BF900287C
:10056000F9D01E2001F0D0FA6006040E01210A48DD
:1005700000F010F9012801D1601CC4B200BF0121B4
:10058000054800F007F90128F9D0681CC5B2082D0C
:10059000E0DB204670BD0000000801402DE9F84F67
:1005A00000F04EF80121244800F0FFF80121224814
:1005B00000F0F0F8A8BB00BF01211F4800F0EAF8E6
:1005C0000028F9D000BF01211B4800F0E3F8012802
:1005D000F9D0FFF7BBFF0446FFF7B8FF0546FFF76A
:1005E000B5FF0646FFF7B2FF0746FFF7AFFF0090E3
:1005F0000121114800F0D7F8372001F085FA0121D8
:100600000D4800F0D2F860193044C11900988142B9
:1006100007D104F0FF0805F0FF0906F0FF0A07F014
:10062000FF0B0648C0F80080C0F80490C0F808A08E
:10063000C0F80CB0BDE8F88F000801409803002016
:1006400010B5FFF76DFF01210B4800F0AEF81E203A
:1006500001F05AFA0121084800F0A5F8142001F031
:100660002DFA0121044800F0A0F81E2001F04CFAF8
:10067000FFF740FF10BD00000008014070472DE962
:10068000F041024600250026002000230024002718
:1006900091F803C00CF00F0591F803C00CF0100C9A
:1006A000BCF1000F03D091F802C04CEA050591F8A7
:1006B00000C0BCF1000F31D0146800202BE04FF0D7
:1006C000010C0CFA00F3B1F800C00CEA03069E42DC
:1006D00020D183004FF00F0C0CFA03F7BC4305FA4E
:1006E00003FC4CEA040491F803C0BCF1280F06D1C6
:1006F0004FF0010C0CFA00FCC2F814C00AE091F8AB
:1007000003C0BCF1480F05D14FF0010C0CFA00FCFE
:10071000C2F810C0401C0828D1D31460B1F800C042
:10072000BCF1FF0F34DD546800202EE000F1080C0E
:100730004FF0010808FA0CF3B1F800C00CEA030608
:100740009E4221D183004FF00F0C0CFA03F7BC43FB
:1007500005FA03FC4CEA040491F803C0BCF1280F2D
:1007600005D100F1080C08FA0CF8C2F8148091F8D1
:1007700003C0BCF1480F07D100F1080C4FF001088D
:1007800008FA0CF8C2F81080401C0828CED3546038
:10079000BDE8F0810246002093680B400BB10120B8
:1007A00000E0002070474161704701617047000020
:1007B00010B504460723012221460948FFF7E0FD52
:1007C00001210748FFF73DFE00BF02210448FFF763
:1007D0009BFD0028F9D00248FFF792FD10BD0000F4
:1007E000002401402DE9F04107460C460025002673
:1007F00008E03846FFF7DCFF0544052001F05EF90C
:10080000701CC6B2A642F4DBB5FBF4F080B2BDE8C2
:10081000F081000010B500F041F80149086010BDFA
:10082000780300202DE9F04700F038F815490860FA
:100830000846006814490968884221D911480068AF
:1008400012490860084600680F490968401A0F49B4
:1008500008600846006801F029FF81460C480168DD
:10086000484601F045FE044601F0A8FD0746094A46
:10087000094B01F0B9FC054601F016FB034908607D
:10088000BDE8F08774030020780300207C0300207B
:100890008403002040A4DFBE0E9CA33F70B501205E
:1008A0001949086001F030F900201849C1F88401A5
:1008B000002400BF144800680028FBD1002513E085
:1008C0000120114984310860640001F01DF9002005
:1008D0000E49C1F884010C48006800B1641C012075
:1008E00001F012F9681CC5B2182DE9DB0120064998
:1008F0008431086084F4000401F006F90020034903
:10090000C1F88401204670BD00812142008021424F
:1009100000BFFEE710B54FF400510948FFF745FF4F
:100920004FF400410648FFF740FF4FF400410448F0
:10093000FFF739FF4FF400510148FFF734FF10BDB6
:10094000000C014010B54FF400510748FFF72DFF90
:100950004FF400410448FFF726FF4FF400410248DE
:10096000FFF723FF10BD0000000C014010B54FF44D
:1009700000510448FFF719FF4FF400510148FFF7F9
:1009800012FF10BD000C014008B50121082000F045
:1009900089FB0220ADF8000010208DF80300032031
:1009A0008DF8020069460748FFF769FE0120ADF89F
:1009B000000048208DF8030069460248FFF75FFEFB
:1009C00008BD0000000C014008B50121102000F016
:1009D00069FB4FF40050ADF8000010208DF80300C3
:1009E00003208DF8020069460448FFF748FE4FF4E3
:1009F00000510248FFF7D9FE08BD00000010014079
:100A000000BFFEE7704708B54FF4A06000F046F85D
:100A100026208DF8000001208DF801008DF80200DD
:100A20008DF80300684600F001F808BD70B500219C
:100A300000230F22C47804B3154C246804F4E06446
:100A4000C4F5E064210AC1F10403CA40447804FA01
:100A500003F184781440214309010E4C0678A15516
:100A6000047804F01F050124AC4005786D11AD0039
:100A700005F1E025C5F8004109E0047804F01F0500
:100A80000124AC40044D0678761145F8264070BD2F
:100A90000CED00E000E400E080E100E002490143E9
:100AA000024A1160704700000000FA050CED00E0FA
:100AB00070B5002418E004F1B000002100F0C9FA7C
:100AC0000021084600F0C5FA0021102000F0C1FA0C
:100AD000002505E00121002000F0BBFA681CC5B22A
:100AE000802DF7DB601CC4B2082CE4DB70BD000075
:100AF00008B50121082000F0D5FA4FF42040ADF8E8
:100B0000000010208DF8030003208DF802006946D4
:100B10003C48FFF7B4FD4FF420413A48FFF745FE4B
:100B20004FF4487000F0CAFF0021AE2000F091FAA7
:100B30000021084600F08DFA0021102000F089FA0B
:100B40000021402000F085FA0021B02000F081FA59
:100B50000021812000F07DFA0021FF2000F079FAC9
:100B60000021A12000F075FA0021A62000F071FA02
:100B70000021A82000F06DFA00213F2000F069FA62
:100B80000021C82000F065FA0021D32000F061FAAE
:100B90000021084600F05DFA0021D52000F059FA46
:100BA0000021802000F055FA0021D82000F051FAF1
:100BB0000021052000F04DFA0021D92000F049FA6B
:100BC0000021F12000F045FA0021DA2000F041FA7E
:100BD0000021122000F03DFA0021DB2000F039FA5C
:100BE0000021302000F035FA00218D2000F031FA8C
:100BF0000021142000F02DFA0021AF2000F029FA86
:100C000008BD0000000C014010B50022114610463E
:100C100000F072F801220021122000F06DF810237C
:100C20002AA20021242000F0F7F910232E2200210F
:100C3000482000F095F8082200215A2000F05CF8C6
:100C400002221146002000F057F803220221122050
:100C500000F052F810231DA20221242000F0DCF93C
:100C600010232E220221482000F07AF809220221C6
:100C70005A2000F041F804221146002000F03CF810
:100C800005220421122000F037F810230FA20421BE
:100C9000242000F0C1F906221146002000F02CF8B3
:100CA00007220621122000F027F80B22062124201B
:100CB00000F022F80C220621362000F01DF8102347
:100CC00002A20621482000F0A7F910BD3A0000005A
:100CD00070B504460D4605F1B000002100F0B9F9E9
:100CE000102141EA1410002100F0B3F904F00F00C4
:100CF000002100F0AEF970BD2DE9F04180460E46AE
:100D00001546002731464046FFF7E2FF00240AE07F
:100D1000124A02EB8511085D012100F09AF9781C56
:100D2000C7B2601CC4B2102CF2DB701CC1B24046CA
:100D3000FFF7CEFF00240CE06900491C074A02EBD4
:100D40004111085D012100F084F9781CC7B2601CD4
:100D5000C4B2102CF0DBBDE8F081000034000020AC
:100D60002DE9F04707460E46904699460025002497
:100D7000A8F12000C5B27F2F02DD0027B01CC6B24B
:100D8000B9F1100F24D131463846FFF7A1FF0024F6
:100D900008E004EB0511194A505C012100F059F9F3
:100DA000601CC4B2082CF4DB701CC1B23846FFF7DB
:100DB0008FFF002409E004EB051108310F4A505C55
:100DC000012100F046F9601CC4B2082CF3DB12E0EC
:100DD00031463846FFF77CFF00240AE005EB450169
:100DE000074A02EB4101085D012100F032F9601C65
:100DF000C4B2062CF2DBBDE8F08700008E2C0008A0
:100E0000662A00082DE9F04F85B00446894617464A
:100E10001D460026B2460020049080460390002123
:100E2000384601F06FFD02D20120049003E000205B
:100E3000049087F00047384601F01CFC804640468D
:100E400001F034FC3946009001F08DFD4F490190CE
:100E500001F08CFC4FF07E51029001F049FB83467B
:100E600001F008FC039004E0701CC6B20A2098FB55
:100E7000F0F8B8F1000FF7D14FF0020A384601F050
:100E8000F9FB80460498C8B3102D19D13346424669
:100E900049462046009500F07BF804EBC601C8B235
:100EA0002B462E224946FFF75BFF711C04EBC10164
:100EB000C8B2534600954946039A00F069F862E0CB
:100EC0003346424649462046009500F061F806EB5D
:100ED000460104EB4101C8B22B462E224946FFF7DA
:100EE0003FFF711C01EB410104EB4101C8B25346C5
:100EF00000954946039A00F04BF844E0FFE72B4683
:100F00002D2249462046FFF72BFF102D1CD104F15E
:100F10000801C8B2334642464946009500F038F809
:100F2000711C04EBC101C8B22B462E224946FFF7C3
:100F300017FFB11C04EBC101C8B2534600954946E6
:100F4000039A00F025F81EE0A11DC8B233464246C0
:100F50004946009500F01CF8711C01EB410104EBBF
:100F60004101C8B22B462E224946FFF7F9FEB11CBB
:100F700001EB410104EB4101C8B2534600954946DB
:100F8000039A00F005F805B0BDE8F08F0000C842F4
:100F90002DE9FF5F074691461E460E9D4FF0000A61
:100FA000002435E0301B401EC1B20A2000F08AFE4A
:100FB000B9FBF0F00A21B0FBF1F201FB1208BAF123
:100FC000000F14D1701EA04211DDB8F1000F0CD13A
:100FD000AB4605EBDB71491001FB0471C8B22B462F
:100FE00020220199FFF7BCFE10E04FF0010AAB464A
:100FF00005EBDB71491001FB0471C8B208F1300147
:10100000CAB22B460199FFF7ABFE00BF601CC4B209
:10101000B442C7DBBDE8FF9F2DE9F04104460F460F
:101020001546984600260FE0AA5D434639462046FD
:10103000FFF796FE04F10800C4B2782C02DD00240C
:10104000B81CC7B2701CC6B2A85D0028ECD1BDE8C0
:10105000F08170B504460D461DB1E0B200F0F4FC1D
:1010600002E0E0B200F0DAFC70BD704701460020FB
:10107000034A506820F44040084350607047000025
:101080000010024029B1064AD2690243044BDA61DA
:1010900004E0034AD2698243014BDA6170470000E1
:1010A0000010024029B1064A92690243044B9A613A
:1010B00004E0034A92698243014B9A617047000041
:1010C0000010024029B1064AD2680243044BDA609C
:1010D00004E0034AD2688243014BDA6070470000A3
:1010E0000010024030B500210022002400232D4DC5
:1010F0006D6805F00C0121B1042905D0082923D120
:1011000005E0294D056022E0274D05601FE0254DD3
:101110006D6805F47012234D6D6805F48034022566
:1011200005EB92421CB9214D554305600BE01D4D66
:101130006D6805F400351DB11C4D5543056002E096
:10114000194D5543056002E0174D056000BF00BF13
:10115000144D6D6805F0F0010909154D6B5C0568CB
:10116000DD4045600F4D6D6805F4E061090A104DE2
:101170006B5C4568DD4085600A4D6D6805F4605123
:10118000C90A0B4D6B5C4568DD40C560054D6D6857
:1011900005F44041890B074D6B5CC568B5FBF3F561
:1011A000056130BD0010024000127A0000093D00C8
:1011B000200000203000002030B589B005460C46E4
:1011C00001210420FFF75EFF01210820FFF76AFFDD
:1011D0004020ADF8200018208DF8230003208DF862
:1011E000220008A92E48FFF74AFA40212C48FFF7B1
:1011F000DCFA8020ADF8200018208DF823000320B1
:101200008DF8220008A92648FFF739FA80212448E2
:10121000FFF7CBFAADF81850ADF814400020ADF848
:101220001A00ADF8160005A91E4800F0DBF9702081
:10123000ADF804000120ADF806000020ADF80C0068
:1012400001A9184800F014F97020ADF8040001203D
:10125000ADF806000020ADF80C0001A9114800F01F
:101260005DF908210F4800F04FF908210D4800F002
:10127000A7F901210B4800F0EBF80821094800F01C
:1012800043F90821074800F09BF90121054800F0C7
:10129000C7F80121034800F0CFF809B030BD0000C5
:1012A000000C014000080040704710B500F002F843
:1012B00010BD00000CB5002001900090334800687C
:1012C00040F480303149086000BF3048006800F4C5
:1012D000003000900198401C0190009818B90198C6
:1012E000B0F5A06FF1D12948006800F4003010B1CA
:1012F0000120009001E0002000900098012843D1D7
:101300002348006840F01000214908600846006842
:1013100020F0030008600846006840F00200086002
:101320001A484068194948600846406848600846BD
:10133000406840F4806048600846406820F47C10B3
:1013400048600846406840F4E81048600846006875
:1013500040F08070086000BF0C48006800F000702A
:101360000028F9D00948406820F003000749486088
:101370000846406840F00200486000BF03484068EB
:1013800000F00C000828F9D10CBD0000001002404C
:1013900000200240042808D14FF0E021096941F003
:1013A00004014FF0E022116107E04FF0E0210969EC
:1013B00021F004014FF0E0221161704770470000F6
:1013C00010B51348006840F0010011490860084654
:1013D0004068104908400E494860084600680E49B8
:1013E00008400B4908600846006820F48020086027
:1013F0000846406820F4FE0048604FF41F008860F3
:10140000FFF753FF4FF000600449086010BD000073
:10141000001002400000FFF8FFFFF6FE08ED00E0BC
:1014200021B1028842F08002028004E002884FF677
:101430007F731A400280704721B1028842F0010296
:10144000028004E002884FF6FE731A400280704763
:1014500031B1B0F8442042F40042A0F8442005E045
:10146000B0F84420C2F30E02A0F8442070470000F8
:1014700070B5002400220023058C4FF6FE7635401F
:101480000584028C8388048B4FF68F752C40B51E23
:101490002C400D882C43751E2A400D892A434D8807
:1014A0002A43144DA8420BD0134DA84208D0134D27
:1014B000A84205D0124DA84202D0124DA84213D125
:1014C0004FF6F7752A404D892A434FF6FB752A409F
:1014D0008D882A434FF6FF652B404FF6FF552B4072
:1014E0008D892B43CD892B4383800483CD888586CA
:1014F000028470BD002C01400034014000400140D6
:1015000000440140004801400A460021018B4FF68B
:10151000F7731940114301837047000070B5002430
:1015200000220023058C4FF6EF7635400584028CAF
:101530008388048B48F6FF752C404FF6FF452C40FE
:101540000D884FF6FF7606EA05252C434FF6DF752A
:101550002A400D8906EA05152A434D8806EA051535
:101560002A43154DA84202D0144DA8421DD14FF672
:101570007F752A404D894FF6FF7606EA05152A4306
:101580004FF6BF752A408D8806EA05152A434FF6A7
:10159000FF352B404FF2FF752B408D8906EA8505FC
:1015A0002B43CD8906EA85052B4383800483CD88B0
:1015B0000587028470BD0000002C0140003401400A
:1015C0000A460021018B4FF2FF7319404FF6FF735B
:1015D00003EA02231943018370478186704701871C
:1015E00070470000002202881D4B98420ED01D4B10
:1015F00098420BD0B0F1804F08D01B4B984205D0D9
:101600001A4B984202D01A4B984204D14FF68F736E
:101610001A404B881A43174B984207D0164B9842F2
:1016200004D04FF6FF431A40CB881A4302808B88C0
:1016300083850B8803850A4B98420BD0094B98424F
:1016400008D00E4B984205D00D4B984202D00D4B5E
:10165000984201D10B7A03860123838270470000F0
:10166000002C01400034014000040040000800400C
:10167000000C0040001000400014004000400140F9
:10168000004401400048014010B540F225511D487A
:1016900000F0D2F810B31B4800F08AF9C4B21A481F
:1016A000008800F40040C8B91748008800F4804062
:1016B00060B10A2C03D000201349088020E01248B2
:1016C000008840F400401049088019E00D2C06D134
:1016D0000D48008840F480400B49088010E00A481B
:1016E0000088C0F30D0009490C5407480088401CCD
:1016F0000549088008460088C72801DD00200880C9
:1017000010BD00000038014094030020A803002011
:1017100010B540F22551164800F08EF808B3144871
:1017200000F046F913490870084600786B280AD182
:101730004FF400511048FFF736F840F26C710F4833
:10174000FFF74DFF0DE00B480078672809D14FF4F3
:1017500000510948FFF729F84FF4E1610748FFF706
:101760003EFF40F22551024800F00AF810BD00008B
:1017700000440040880300200010014000080040A1
:1017800001F40072B2F5007F00D100BFCA430280AD
:10179000704721B1828942F40052828104E082893B
:1017A0004DF6FF731A4082817047000000B585B086
:1017B00001210420FFF776FC01214804FFF762FCB9
:1017C0000420ADF8100018208DF8130003208DF8C8
:1017D000120004A91648FEF752FF0820ADF81000C9
:1017E00004208DF8130004A91148FEF748FF4FF4B8
:1017F000165000900020ADF80400ADF80600ADF8DA
:101800000800ADF80C000C20ADF80A006946094844
:1018100000F062F8FFF7F7F8012240F22551054881
:1018200000F034F801210348FFF7B3FF05B000BD15
:10183000000801400044004070B502460024002327
:101840000025002040F66A16B14200D100BFC1F366
:10185000421501F01F03012606FA03F3012D02D100
:101860009689334006E0022D02D1168A334001E00A
:10187000968A33400C12012606FA04F41688344086
:1018800013B10CB1012000E0002070BDF0B503469B
:10189000002400260025002040F66A17B94200D136
:1018A00000BF1846C1F3421401F01F06012707FAD2
:1018B00006F5012C01D10C3004E0022C01D11030CE
:1018C00000E014301AB107682F43076002E0076890
:1018D000AF430760F0BD00002DE9F04786B0054634
:1018E0000E460024A24600BFA1460027B08900B1E1
:1018F00000BF2F462C8A4CF6FF700440F08804434A
:101900002C82AC894EF6F3100440B088318908432C
:10191000718908430443AC81AC8A4FF6FF40044010
:10192000B0890443AC8201A8FFF7DCFB1F48874263
:1019300002D1DDF810A001E0DDF80CA0A88900F4C8
:10194000004040B10AEBCA0000EB0A1031684900C0
:10195000B0FBF1F807E00AEBCA0000EB0A103168AF
:101960008900B0FBF1F86420B8FBF0F00401200915
:10197000642101FB1089A88900F4004040B13220A5
:1019800000EBC900B0FBF1F000F00700044308E0F1
:10199000322000EB09106421B0FBF1F000F00F00E1
:1019A00004432C8106B0BDE8F087000000380140F8
:1019B00001468888C0F30800704700BFFEE70000BA
:1019C0002DE9F04105462C464FF400511248FEF730
:1019D000EAFE00261CE0274607F08007802F04D18E
:1019E00039020D48FEF7E1FE04E04FF400410A48D9
:1019F000FEF7D9FE6006040E4FF400510648FEF7CC
:101A0000D4FE4FF400510448FEF7CDFE701CC6B260
:101A1000082EE0DBBDE8F081000C014010B5044663
:101A2000FEF778FF7820FFF7CBFFFEF79FFF00203F
:101A3000FFF7C6FFFEF79AFF2046FFF7C1FFFEF74C
:101A400095FFFEF77FFF10BD10B50446FEF762FF5D
:101A50007820FFF7B5FFFEF789FF4020FFF7B0FFC2
:101A6000FEF784FF2046FFF7ABFFFEF77FFFFEF790
:101A700069FF10BD00BF704710B56FF00400FFF79D
:101A800089FC0A4800680A49B0FBF1F0094908706E
:101A90000846007800EB4001C1EBC0104FF6FF7123
:101AA00001EAC0000449088010BD00000C000020BD
:101AB00000127A008C0300208E0300200146114A98
:101AC00012884A434FF0E0235A6100229A611A4675
:101AD000126942F001021A6100BF4FF0E022106962
:101AE00000F001021AB100F48032002AF5D04FF064
:101AF000E022126922F001024FF0E0231A61002275
:101B00009A6170478E0300200146114A12784A43B9
:101B10004FF0E0235A6100229A611A46126942F09E
:101B200001021A6100BF4FF0E022106900F00102CB
:101B30001AB100F48032002AF5D04FF0E022126989
:101B400022F001024FF0E0231A6100229A617047EF
:101B50008C03002008B5FFF78FFF4FF4A060FEF75D
:101B60009DFFFEF731FFFFF721FEFEF7C1FF40F2B8
:101B7000CF2140F2CF70FFF71FFBFEF799FFFFF771
:101B800043F8FEF76FFCFEF7FFFEFEF743FE4FF44F
:101B90007A70FFF793FFFEF73DFE7EE0FEF7FEFC56
:101BA000102000903D480223002182683620FFF774
:101BB000EFF910200090394801230021C2684E201F
:101BC000FFF7E6F910200090344802231946026816
:101BD0003620FFF7DDF91020009030480123022164
:101BE00042684E20FFF7D4F9FEF71CFE4FF47A70DE
:101BF000FFF764FF2A48006800F058FD04462949B1
:101C000000F076FC28490860102308460421026889
:101C10003C20FFF7F7F80A210120FEF7E3FD2349F6
:101C200008800846008800F059FD804600F0C6FB99
:101C300006464FF066321E4B00F0A2F9044600F053
:101C40004DF81C4908600846006800F0B7FB0446E0
:101C50004FF06632184B00F057F90AD840F29E71E7
:101C60001648FFF7BAFC0B2206215A20FFF744F86A
:101C700013E01048006800F0A1FB04460022104B5E
:101C800000F07CFA09D240F23A710C48FFF7A5FC4B
:101C90000C2206215A20FFF72FF87FE79803002037
:101CA0007C03002000007A44000000200400002093
:101CB00066664A3F080000206666E63F000800406E
:101CC0000000F83F10B50246012000E050430B1E13
:101CD000A1F10104E1B2F9D110BD000021F00042F0
:101CE000A2F16052B2F5801F01F0004328BFD2F18B
:101CF0007F6C0BD95FEA001C43EAC20242EB5070D2
:101D000018BF704728BF20F001007047B2F5801F50
:101D1000BCBF184670474FEA410C1CF5001F02D2A9
:101D2000084600F0EABD70B500F0D4F90000008963
:101D3000FFF7F6BF4FF00040A0F5800070470000AD
:101D400010B591EA030F48BF83F0004300F15482BD
:101D5000841A71EB030C05D2121943EB0C03001B20
:101D600061EB0C01DFF824E14FEA1154A4EB135CA2
:101D70001EEA430F18BF9EEA445F73D023EA0E03A6
:101D8000DCF1200E21EA045143F4801332D322FA0D
:101D90000CFE10EB0E0023FA0CFE41EB0E01CCF111
:101DA000200E03FA0EFE10EB0E0051F10001B1F50A
:101DB000801FCCF1200E32D201EB045112FA0EF248
:101DC000BDE8104058BF7047401C38BF5FEA420270
:101DD00018BF7047002814BF20F0010041F1000136
:101DE0004FEA410313F5001F38BF7047A1F1C0410E
:101DF00000F0BEB9012A43EB0302ACF1200CDCF188
:101E00001F0E32BF4FF0000E23FA0CF310EB03004D
:101E100041EB0451B4EB115FD0D0A1EB045101F5BB
:101E2000801149085FEA300001EB04510ED350F1F4
:101E3000000038BF12FA0EFE08D1BDE81040C9E715
:101E4000401C38BF5FEA4202CAD1C3E7BDE8104078
:101E50004FEA410313F5001F38BF7047A1F1C0419D
:101E600000F086B99EEA445F08D011EA5E0FBDE833
:101E7000104004BF01F0004100207047BDE8104051
:101E800070B500F027F900BF64FBBE3E0000E0FF24
:101E9000491058BFC1F140415B1058BFC3F14043E6
:101EA0008B42EFF3008070474FEA41034FEA5353F0
:101EB000A3F58063D3F11E03C8BFD3F1210C0CDD61
:101EC0004FF0004242EAC12242EA505232FA03FC89
:101ED0008CEAE17CACEBE1707047102BC4BF0020B2
:101EE000704703F5787CBCF1FF3F04D06FF00042EF
:101EF00082EA2100704770B500F0ECF84992248026
:101F000000207047F2E7000051EA030C17D41CF5DB
:101F1000801F58BFBCF5801F00F10680994218BF92
:101F2000704708BF9042704707D711F5801F58BF10
:101F300013F5801F19D499427047894270471CF5E8
:101F4000801F08D5BCF5801FF7D58B4218BF70479E
:101F500008BF824270474FF4001C1CEB410F38BF92
:101F60001CEB430F01D28B42704770B500F0B2F802
:101F7000922449004FF000514FF08053FFF788BF83
:101F8000DFF848C170B51CEA111E1EBF1CEA13150C
:101F90009EEA0C0F95EA0C0F00F06F8081EA0304B3
:101FA00023EA4C134EEAD47E21EA4C1141F480110D
:101FB00043F48013AE44A1FB024CA0FB0365AEF1D9
:101FC0007F7E361955EB0C05A1FB034C4CF1000349
:101FD000A0FB021C16EB0C06654153F100030942FD
:101FE00018BF46F0010613F4007F0BD14FEA03310E
:101FF0004FEA0530340341EA155140EA16506FF0BC
:1020000003020AE04FEAC3214FEAC520F40241EA85
:10201000555140EA56506FF0020202EB2E4201EB9E
:10202000025585EACE710AD05FEA440C18BF24F04D
:10203000004450F1000041F1000120EAD47040F268
:10204000FE7C624500D270BDA84214BF4FF08044B0
:102050004FF04044002E08BF0024BEF1806FA8BF9F
:10206000A1F1C041BDE8704080F282804FF00000D5
:1020700001F1C04101F0004170479EEA0C0F0CEAEB
:10208000131518BF95EA0C0F06D04FF0000081EA37
:10209000030E0EF0004170BD00F01CF88900013EF7
:1020A00000F007B800F009B84FEA430C5FEA5C5C47
:1020B00008D081EA030100F05BB84FEA410C5FEA07
:1020C0005C5CF6D14FF00000014970470000FF074B
:1020D0000000F87F0EF1020E2EF0030E5EF8046B86
:1020E000364205D4012A43EB030515F5001F12D82B
:1020F000012841EB010C1CF5001F0CD80ED14FEA52
:10210000D17C15F5001F0CEB4C0C0CF1020C08BF38
:102110004CEBD37C04E04FF0080C01E04FEAD37C99
:102120000CEB4C0526FA05F606F00706B6F1040C92
:1021300006D20EEB860CBDE870404CF0010C6047F7
:10214000DFE80CF0090B02024FF000414FF00000F5
:10215000A1F5002170BD19461046012851EB01047C
:1021600018BFD4F5001484BF002001F0004170BDF9
:102170000808A0F500114FEA3101704753EA010C3D
:1021800017D41CF5801F58BFBCF5801F00F10680D6
:102190008B4218BF704708BF8242704707D713F5BC
:1021A000801F58BF11F5801F19D48B4270479B4286
:1021B00070471CF5801F08D5BCF5801FF7D59942E4
:1021C00018BF704708BF904270474FF4001C1CEBCB
:1021D000430F38BF1CEB410F01D2994270470FB437
:1021E0000CBC03BCFFF7C1BE10B591EA030F48BF9A
:1021F00083F000433FF5ACAD841A71EB030C07D2BA
:1022000012198CF0004C43EB0C03001B61EB0C012A
:10221000DFF8A4E14FEA1154A4EB135C1EEA430F6C
:1022200018BF9EEA445F00F0B08023EA6E0352427A
:1022300021EA0451C3EB6E0338BF5B1EDCF1200EB4
:1022400025D322FA0CFE10EB0E0043FA0CFE41EBF4
:102250000E01CCF1200E03FA0EFE10EB0E0051F130
:102260000001CCF1200E29D412FA0EF201EB045138
:10227000BDE8104058BF7047401C1CBFB2F1004F72
:10228000704700280CBF491C20F00100704712EB7A
:10229000020E43EB030218BF4FF0010E4EEA42025A
:1022A000ACF1200CDCF11E0E54D943FA0CFE10EBFD
:1022B0000E0051F1FF31CCF11E0ED5D50EF1010EFD
:1022C00012FA0EFE404141EB010101EB445C5FEA72
:1022D0005C5C10D910EBDE7001EB045138BFBEF12D
:1022E000004FBDE8104018BF704700280CBF491CC4
:1022F00020F00100704730D24FEAD42C11F50011C4
:1023000024F400641BD0B1FA81F20B3AA41AA41E83
:10231000D2F12003914030FA03F31943904001EBCE
:10232000CC71002C01EB0451BDE81040A8BF7047F0
:1023300001F1C0414FF0000001F000417047B0FAD8
:1023400080F310FA03F100D110BDE41A173C4805E0
:10235000C90AE4E701EB045110BD491001EB045137
:10236000BDE810404FEA300002E04FF00001704736
:102370004A0008BF0042F8D0B2F5001F28BF7047DE
:1023800001F000414FF0000070479EEA445F07D023
:1023900011EA5E0FBDE8104004BF00210020704725
:1023A000BDE8104070B5FFF795FE00BF40DFF63E78
:1023B00083F00041104670470000E0FF43004FEA01
:1023C000D30C4FEA3C0C43401FBF40070CF1605157
:1023D00013F0FE4F70471CF0006F03D100200CF08B
:1023E000004170470CF0004343EA507010B540EADA
:1023F000CC0000F03CFA00BF000000924FEA000160
:10240000FFF7B6BE4FF000414FF00000A1F50021EC
:102410007047000090EA010F48BF81F0004100F1D1
:10242000B482421A3CBF801A89184FEAD0524FF04A
:102430007F4C1CEA410FA2EBD15318BF9CEA026FFC
:1024400000F03B804FF0004C4CEA00204CEA0121A8
:1024500021FA03FC10EB0C0C1ED202F1FF325FEAF2
:102460001C2040EBC25038BF70471CF07F0F4FEA72
:10247000400C18BFBCF17F4F38BF7047C3F1200339
:10248000994008BF20F00100BCF17F4F38BF704772
:10249000A0F1C04000F031BA4FEA3C00000A40EB26
:1024A000C25028BF1CF0FF0F4FEA400CE6D018BF07
:1024B000BCF17F4F38BF7047EAE79CEA026F05D056
:1024C00010EA5C0F08BF00F00040704710B500F044
:1024D000CEF900BF64FBBE3E401058BFC0F1404083
:1024E000491058BFC1F140418142EFF3008070476D
:1024F0004FF47F0C1CEAD0121EBF1CEAD11392EAE3
:102500000C0F93EA0C0F00F0858090EA010F48BF92
:1025100042F4807240F4000C41F400002CF07F4142
:1025200020F07F4000B58142A2EB03020FF2081CAD
:10253000ACEB504EC0F100009EF800E04FEA4E0EAA
:1025400000FB0EFC38BF49004FEA2C1C02F5FA02D2
:102550000CFB0EF34FEACE1E4FEA112C4FEAC121BD
:102560000EEB635E42EB22420EFB0CFC4FEA1C5367
:1025700000FB03114FEA112C4FEA01310EFB0CFC5A
:102580004FEADC4C00FB0C11C14228BF09184CEB90
:1025900003335DF804EB10EB410143EBC250B2F59D
:1025A0007C0F38BF704729D512F0F00F1CBF00F127
:1025B000C04000F000407047008182838485868798
:1025C00088898B8C8D8E8F919293959697999A9CF2
:1025D0009D9FA0A2A3A5A7A8AAACAEB0B2B3B5B761
:1025E000B9BCBEC0C2C5C7C9CCCED1D4D7D9DCDF37
:1025F000E2E6E9ECF0F3F7FAFE0000004FEA400CE7
:102600000CF1807CBCF17E4F28BF7047B0F1C04018
:1026100000F073B990EA010F0CEAD11348BF42F4FD
:102620008072624538BF634507D213F47F0F16D01E
:1026300080EA010000F00040704710B500F017F983
:10264000097EFC3E00F005B880EA010000F0004081
:10265000704780EA010000F0004000F04EB912F42B
:102660007F0F04BF0248704780EA010000F045B9BF
:102670000000C07F41000B0ED3F19E0208D950F438
:1026800000034FEA032323FA02F048BF4042704799
:1026900010B500F0ECF800BF49922480002070478C
:1026A0006FF0004282EA20007047000010F0004105
:1026B00048BF4042B0FA80F310FA03F2C3F19D0321
:1026C0000BD051EAC35101EB1220530638BF7047BB
:1026D00000F1010008BF20F001007047B0FA80F35C
:1026E00010FA03F2C3F19D030AD0D90501EB1220C1
:1026F000530638BF704700F1010008BF20F0010009
:102700007047000050EA010C00F113801CF5000F27
:1027100058BFBCF5000F01D48842704707D710F5A9
:10272000000F58BF11F5000F15D488427047894239
:1027300070471CF5000F04D5BCF5000FF7D581429A
:1027400070474FF0807C1CEB400F38BF1CEB410FF3
:1027500001D28142704710B500F089F892244900F7
:102760004FF000504FF08051FFF7B6BE4FF47F0C92
:102770001CEAD0121EBF1CEAD11392EA0C0F93EA96
:102780000C0F00F0478090EA010F48BF42F48072BE
:102790004FF0004C4CEA00204CEA012102EB03020E
:1027A000A0FB0113A2F50002002918BF43F00103AA
:1027B0005B0028BF4FEA330342EB22425FEA132C4F
:1027C0004CEBC2502EBFBCEB436FB2F57C0F704791
:1027D0004FEA036CBCF1004F08BF20F00100B2F5D6
:1027E0007C0F38BF70470BD582F0FF0212F5803F97
:1027F000C8BF704700F1C040D8BF00F0004070472C
:1028000000F5000C5FEA4C0C48BF7047B0F1C040C7
:1028100000F073B890EA010F0CEAD11348BF42F4FC
:102820008072624538BF634504D280EA010000F03F
:102830000040704710B500F01AF800BF8900013E53
:1028400000F007B800F009B85FEA410C5FEA1C6CC1
:1028500008D080EA010000F050B85FEA400C5FEA5F
:102860001C6CF6D14FF00040A0F5800070470EF1CF
:10287000020E2EF0030E5EF8044B244204D44FEAFD
:102880004102B2F17F4F11D84FEA4003B3F17F4FBD
:102890000CD80ED14FEAD07CB2F17F4F0CEB4C0C30
:1028A0000CF1020C08BF4CEBD17C04E04FF0080C9B
:1028B00001E04FEAD17C0CEB4C0324FA03F404F062
:1028C0000704B4F1040C06D20EEB840CBDE81040F2
:1028D0004CF0010C6047DFE80CF0070802024FF0F3
:1028E0000040A0F5800010BD0846420018BFD2F19C
:1028F000807288BF00F0004010BDFF2141EAD05037
:10290000C005704751EA000C00F113801CF5000F60
:1029100058BFBCF5000F01D48142704707D711F5AD
:10292000000F58BF10F5000F15D48142704789423F
:1029300070471CF5000F04D5BCF5000FF7D5884291
:1029400070474FF0807C1CEB410F38BF1CEB400FF1
:1029500001D28842704780EA010081EA000180EAE2
:102960000100FFF7F8BE80F0004090EA010F7FF50C
:1029700058AD81F0004100F008B8000090EA010F66
:1029800048BF81F000413FF54CAD421A04D882F0B7
:102990000042A0EB020011444FEAD0524FF07F4CAE
:1029A0001CEA410FA2EBD15318BF9CEA026F4AD038
:1029B0004FF0004C4CEA00204CEA012121FA03FCC4
:1029C000B0EB0C0C0FD412F0FE0F36D05FEA4C00C7
:1029D0001DD5001240EBC25038BF70471CF03F0FAE
:1029E00018BF70470BE0A2F101025FEA1C2040EB28
:1029F000C25038BF70471CF07F0F18BF7047C3F13B
:102A00002003994014BF401E20F001007047800849
:102A10004FEA122308BF7047B0FA80FCA2EB0C0209
:102A2000CCF1280C60FA0CF093EA122F04BF00EBF3
:102A3000C25070474FEAC3707047130A5FEADC1058
:102A400008BF7047F6E79CEA026F04D010EA5C0FFB
:102A500008BF0020704710B5FFF709FF40DFF63EC2
:102A600081F0004070470000000000000000002FCF
:102A7000000000000700070000147F147F140024EA
:102A80002A7F2A1200626408132300364955225017
:102A900000000503000000001C224100000041224C
:102AA0001C000014083E08140008083E0808000036
:102AB00000A060000008080808080000606000002E
:102AC000002010080402003E5149453E0000427FAC
:102AD0004000004261514946002141454B310018F8
:102AE00014127F10002745454539003C4A494930BA
:102AF0000001710905030036494949360006494974
:102B0000291E00003636000000005636000000087E
:102B1000142241000014141414140000412214085B
:102B200000020151090600324959513E007C121140
:102B3000127C007F49494936003E41414122007FD5
:102B40004141221C007F49494941007F090909018F
:102B5000003E4149497A007F0808087F0000417F14
:102B60004100002040413F01007F08142241007FC6
:102B700040404040007F020C027F007F0408107F2D
:102B8000003E4141413E007F09090906003E415196
:102B9000215E007F09192946004649494931000153
:102BA000017F0101003F4040403F001F2040201FA7
:102BB000003F4038403F006314081463000708706A
:102BC000080700615149454300007F41410000551D
:102BD0002A552A55000041417F00000402010204E9
:102BE00000404040404000000102040000205454D6
:102BF0005478007F48444438003844444420003826
:102C00004444487F00385454541800087E09010297
:102C10000018A4A4A47C007F080404780000447D6C
:102C20004000004080847D00007F102844000000A8
:102C3000417F4000007C04180478007C080404787C
:102C400000384444443800FC242424180018242468
:102C500018FC007C08040408004854545420000464
:102C60003F444020003C4040207C001C2040201C71
:102C7000003C4030403C004428102844001CA0A0E8
:102C8000A07C004464544C44141414141414000024
:102C90000000000000000000000000000000000034
:102CA00000F80000000000000033300000000010B9
:102CB0000C06100C0600000000000000000040C0E0
:102CC0007840C0784000043F04043F0404000070D2
:102CD00088FC08300000001820FF211E0000F008CA
:102CE000F000E018000000211C031E211E0000F06F
:102CF0000888700000001E212324192721101016B7
:102D00000E000000000000000000000000000000B5
:102D100000E0180402000000000718204000000234
:102D20000418E000000000402018070000004040A8
:102D300080F0804040000202010F0102020000000A
:102D400000F0000000000101011F0101010000006E
:102D500000000000000080B07000000000000000D3
:102D6000000000000000000101010101010100005C
:102D700000000000000000303000000000000000F3
:102D8000000080601804006018060100000000E0E8
:102D900010080810E000000F102020100F00001095
:102DA00010F8000000000020203F202000000070EC
:102DB00008080888700000302824222130000030E4
:102DC0000888884830000018202020110E000000DC
:102DD000C02010F8000000070424243F240000F85D
:102DE0000888880808000019212020110E0000E042
:102DF000108888180000000F112020110E000038E4
:102E00000808C83808000000003F000000000070FB
:102E1000880808887000001C222121221C0000E084
:102E200010080810E0000000312222110F000000FD
:102E300000C0C000000000000030300000000000B2
:102E40000080000000000000806000000000000022
:102E500080402010080000010204081020004040BB
:102E600040404040400004040404040404000008FE
:102E700010204080000000201008040201000070B3
:102E800048080808F0000000003036010000C0309B
:102E9000C828E810E0000718272423140B000000BE
:102EA000C038E0000000203C23020227382008F848
:102EB000888888700000203F202020110E00C0303C
:102EC000080808083800071820202010080008F813
:102ED00008080810E000203F202020100F0008F80C
:102EE0008888E8081000203F20202320180008F8D8
:102EF0008888E8081000203F200003000000C03050
:102F000008080838000007182020221E020008F8D0
:102F100008000008F808203F210101213F20000897
:102F200008F8080800000020203F202000000000D2
:102F30000808F8080800C08080807F00000008F8BA
:102F400088C028180800203F20012638200008F8F3
:102F5000080000000000203F20202020300008F85A
:102F6000F800F8F80800203F003F003F200008F874
:102F700030C00008F808203F200007183F00E0108C
:102F800008080810E0000F10202020100F0008F89B
:102F900008080808F000203F210101010000E010AE
:102FA00008080810E0000F18242438504F0008F8D3
:102FB000888888887000203F2000030C3020007033
:102FC0008808080838000038202121221C00180831
:102FD00008F8080818000000203F2000000008F84A
:102FE00008000008F808001F202020201F00087893
:102FF000880000C83808000007380E010000F808F3
:1030000000F80008F800033C0700073C030008181C
:1030100068808068180820302C03032C3020083882
:10302000C800C83808000000203F20000000100839
:103030000808C83808002038262120201800000081
:1030400000FE020202000000007F40404000000C31
:1030500030C000000000000000010638C00000027F
:103060000202FE000000004040407F00000000001F
:103070000402020204000000000000000000000042
:10308000000000000000808080808080808000023E
:10309000020400000000000000000000000000002A
:1030A0008080808000000019242222223F2008F81E
:1030B000008080000000003F112020110E00000061
:1030C000008080800000000E1120202011000000F0
:1030D00000808088F800000E112020103F200000A2
:1030E000808080800000001F2222222213000080A6
:1030F00080F0888888180020203F202000000000F1
:10310000808080808000006B94949493600008F825
:10311000008080800000203F210000203F200080B0
:103120009898000000000020203F202000000000B0
:1031300000809898000000C08080807F000008F820
:10314000000080808000203F24022D3020000008F5
:1031500008F8000000000020203F202000008080B0
:10316000808080808000203F20003F20003F8080C2
:10317000008080800000203F210000203F200000D0
:10318000808080800000001F202020201F00808081
:1031900000808000000080FFA12020110E000000B0
:1031A000008080808000000E112020A0FF808080A1
:1031B00080008080800020203F212000010000004E
:1031C0008080808080000033242424241900008023
:1031D00080E0808000000000001F20200000808030
:1031E000000000808000001F202020103F208080F1
:1031F00080000080808000010E3008060100808081
:103200000080008080800F300C030C300F000080A5
:103210008000808080000020312E0E3120008080D0
:1032200080000080808080818E7018060100008000
:103230008080808080000021302C2221300000001E
:103240000000807C020200000000003F40400000BF
:103250000000FF00000000000000FF00000000026E
:10326000027C800000000040403F0000000000069B
:103270000101020204040000000000000000000040
:10328000A032000800000020980300002801000878
:10329000F433000898030020380700008401000878
:1032A000D184A24A04680901020304060708090C34
:1032B00069102009020406081060028C2BFE92019E
:1032C0000213FE180A04047E01407E42427E02047C
:1032D00013427E402809FC242424FC252624087956
:1032E000739100101140308F80844C552525255551
:1032F0004C8080803980497F091780080B514448F1
:10330000507F40407F50484480080F101014D45420
:103310005454FC525252D3121010401808405057C7
:103320005555557F040C10575040804E202020BE2C
:10333000AA011ABE0C01121C8080AF1C1AFF040ADD
:1033400011AF7F394113A0600F12FF608040201839
:103350001F10081008060140807F0D1101020408AB
:10336000A011080D118060F80710901011161010B0
:10337000D01F2201080B11FF4040415E4040704EBB
:1033800041C02809060909E6F80C040201031504E6
:103390001E2E071F302040010A11206021157C825B
:1033A000827C19BE0D1410080402C1140402010528
:1033B0003D3E41413E031530301E80828282FE0434
:1033C00049060A1180215440300F0217FF080B12E2
:1033D0001011161010F010101413DF00102181814D
:1033E000414121110D030D112141418181FC66668E
:0433F000E6E800000B
:04000005080000ED02
:00000001FF
